:020000022000DC
:1070000000000420197202000172020001D903007D
:1070100005720200077202000972020000000000FF
:107020000000000000000000000000000B720200E1
:107030000D720200000000000F72020011720200C7
:10704000698603001372020079860300137202003E
:107050001372020013720200D18303001372020044
:107060001372020013720200137202001372020004
:1070700013720200A1870300137202001372020050
:107080001372020019CA0300137202001372020085
:107090001372020013720200B5F8030013720200AB
:1070A00013720200137202001372020013720200C4
:1070B00013720200137202000000000000000000C2
:1070C00013720200137202001372020013720200A4
:1070D000137202001372020013720200F9A003007F
:1070E0001372020013720200B93C04000000000099
:1070F0000000000013720200000000001372020082
:10710000000000000000000000000000000000007F
:10711000000000000000000000000000000000006F
:10712000000000000000000000000000000000005F
:10713000000000000000000000000000000000004F
:10714000000000000000000000000000000000003F
:10715000000000000000000000000000000000002F
:10716000000000000000000000000000000000001F
:10717000000000000000000000000000000000000F
:1071800000000000000000000000000000000000FF
:1071900000000000000000000000000000000000EF
:1071A00000000000000000000000000000000000DF
:1071B00000000000000000000000000000000000CF
:1071C00000000000000000000000000000000000BF
:1071D00000000000000000000000000000000000AF
:1071E000000000000000000000000000000000009F
:1071F000000000000000000000000000000000008F
:10720000FEE7FEE7FEE7FEE7FEE7FEE7FEE7FEE756
:10721000FEE7FEE700F002B8FFF7FCBF0F484FF0B3
:107220000701884385460E4880470E48016841F4AF
:1072300070010160BFF34F8FBFF36F8F00F01AB87A
:1072400009480A490A4A884207D0521A05D00378E9
:1072500001300B700131013AF9D170470000042070
:1072600065E6020088ED00E0F8720400B8A4002092
:10727000F0A60020354936480A1A02D00722914369
:107280008D46344934480A1A06D00722914381F3C7
:107290000988022282F3148830483149314A00F0CB
:1072A00044F831483149324A00F03FF83148324918
:1072B000324A00F03AF832483249334A00F035F8A1
:1072C00032483349334A00F030F833483349344ABE
:1072D00000F02BF833483449344A00F026F834489B
:1072E0003449002200F02CF833483449002200F0E1
:1072F00027F833483349091A082902DB00220260C3
:107300004160314A90471F481F49884205D00268B2
:10731000043003B4904703BCF7E700208646EC46F0
:1073200000200021294A9047FEE7884207D0521AE0
:1073300005D0037801300B700131013AF9D1704763
:10734000884202D002700130FAE770470000042042
:1073500000E0032000000420000004204C11050080
:10736000F0A60020E4CE0020D0730200D07302000B
:10737000006F04004C110500F0A60020F0A60020CC
:107380003075040030750400307504003075040059
:107390003075040030750400307504003075040049
:1073A0004C11050040390500E4CE0020E4CE002059
:1073B000E4CE00208C6803208C68032090680320B2
:1073C000906803209088032041720200BDA2020051
:1073D00041F6702370B503FB00F5254E25490446A0
:1073E00005F25470304419F0C5FA2349731908683E
:1073F0004968C3F8D84A03F5EE6203C24FF0FF3282
:10740000C3F86C2741F658120026A3F868679E500F
:1074100041F65012FF259E5041F6541201219E5014
:1074200041F65C1283F85A579E5403F5CB5283F809
:107430008868166003F5805283F8A86A83F8986913
:1074400083F8D46AC3F8E06AC3F85C67C3F860677E
:10745000C3F8646783F87867A2F8641941F6661286
:107460009E5441F668129D5041F66C229E5470BDA8
:1074700000CF00203075040080A700200D4B41F69E
:10748000702202FB00304FF48072C0F87C264FF669
:10749000FF720023A0F882264FF0FF3280F8793681
:1074A000A0F87A3680F88036C0F8842680F88836CE
:1074B000704700BF00CF0020F8B541F67022274B7F
:1074C00050431C1803221A50052200254FF0FF36A6
:1074D000C4F854252830012284F84C25C4F84825E6
:1074E0001844C4E90866C4E901650F4684F8585594
:1074F00084F83555C4F84455C4F830652561E56015
:10750000C4F828642577C4F86C5584F87055A4F83D
:107510003C5584F83E554FF48072294619F0F7F92E
:107520000A2384F82830022384F82E31A36104232F
:1075300084F82D31C4F868356423C4F8646584F890
:107540002F5284F83B353FB1C4F8405584F830528F
:10755000A4F8365584F83455F8BD00BF00CF00209C
:107560002DE9F843DFF8E880364941F670274743B4
:1075700008EB07040623C4F8941601F1716101F5C4
:107580008151C4F89816082184F89C1604F2F4611D
:107590002D48C4F8A036C4F8E836C4F88C36C4F8D0
:1075A0009036C4F8F83604F204730025012614223C
:1075B00008604FF0FF39002107F5D660C4F8CC26EB
:1075C000A4F8FC66C4F8EC261960C4F8C056294635
:1075D000C4F8A466C4F8E496C4F8009784F8FE568C
:1075E000C4F8B456C4F8B85684F8F06684F8BC56AB
:1075F000404419F08CF904F2C463144A1A6007F588
:10760000E3606FF04703C4F8C896C4F8D066C4F8C6
:10761000DC66C4F8D466C4F8E036C4F81057A4F8A1
:1076200014572C222946404419F071F984F8165752
:1076300084F85067C4F84857C4F84457C4F84C5706
:10764000BDE8F883D8ECF0F4310CC33D00008C4267
:1076500000CF002010B50446FFF7BAFE2046FFF722
:107660000DFF01212046FFF727FF2046BDE810400F
:10767000FFF776BFF8B50C4D2C687CB10B4F264652
:107680000020A4683268394605F0AEF8304618F09C
:107690001FFF002CF3D106492C6000E0054920466D
:1076A000BDE8F84005F0A0B8F0BD01204D7504001C
:1076B0006A750400367504002DE9F047594DDFF86E
:1076C0008481CEB0002641F67027DFF874917743AD
:1076D0005DE00DF03BFC6FE080B3534B03AA03F178
:1076E000180E186859689446ACE8030008337345CF
:1076F0006246F6D118681B79CCF800008CF804308B
:1077000040F20F1200210DF1290019F000F947494C
:1077100052460DF12B0018F09BFFF622624341F612
:10772000702303FB0623434407F6E427B3F8D83B52
:107730003A44CDE90036424403A952E03C4B1B7861
:10774000ABB93C4B1B7893B1F622624341F67023F0
:1077500003FB0623434407F6E421B3F8D83B0A446D
:10776000CDE9003634494244012005F087FA6B68C0
:10777000013B6B60D9F80030013B0134C9F800309F
:107780000F2394FBF3F3C3EB0313E41A2C606A6832
:10779000002A38DD2C6841F670237343F62101FB83
:1077A00004334344B3F8D83B002B37D0052EB0B296
:1077B00021468ED80EF09CFD1328824623D008283F
:1077C0008AD1F622624341F6702303FB0623434429
:1077D00007F6E427B3F8D83B1849CDE900363A4418
:1077E0004244002005F04AFA6B68154A013B6B6081
:1077F0001368013B013413600F2394FBF3F3C3EBD5
:107800000313E41A2C60013605F5D355092E05F152
:1078100010057FF458AF4EB0BDE8F087013A6A60BA
:10782000A8E700BF54E800202E790400B4750400D6
:107830002DBE0120E8CE0020C07504009275040022
:1078400040BE012000CF00202DE9F14FDFF88490E9
:1078500041F67024444309EB040641F658170346E9
:10786000F5590F2D934609D104F2547217494A4431
:10787000002001B0BDE8F04F04F0B6BF41F650184B
:107880004FF0F60A56F8085004F6E4200AFB05FA11
:107890005044484419F012F801350F2395FBF3F3D7
:1078A000C3EB0313ED1AF359094A46F808500133A4
:1078B000F35154441368A1440133A9F8D8BB1360B1
:1078C00001B0BDE8F04FFFF7F7BE00BFC775040079
:1078D00040BE012000CF002041F67023074A5843E4
:1078E00013588B4202DB064B1868704701338B42FA
:1078F0001150ACBF034B044BF6E700BF00CF002094
:10790000E4CE002000A70020F8A600202DE9F84FC3
:1079100006460D4617469A4603B10135DFF88490B6
:1079200041F6702808FB06F809EB080B59F80830F7
:10793000DBF83025511CB94229D1FF213046FFF731
:10794000CBFF164B1B68834204461DD0DBF8303555
:107950000133CBF830353A464FF0FF3329463046F5
:1079600049F80830FFF7B8FF002DC8BF04460C4B9C
:107970001B68A34208D1BAF1000F05D041F6702070
:107980004643013D49F806502046BDE8F88F3A4687
:1079900029463046FFF7A0FF0446E8E7FCA6002092
:1079A000F8A6002000CF00202DE9F04FAB4F41F6A4
:1079B000702404FB00744FF0000885B005460E46A5
:1079C00084F85985A4F85A85A4F85C85C4F8541540
:1079D00084F8FE86C4F85C87F9B90323C4F8AC3692
:1079E0006FF04503C4F8DC366FF04803C4F8D036B6
:1079F0006FF04203C4F8D436012384F8FD1684F8EE
:107A00005935322101F034FDD4F8B01AD4F8AC0A5B
:107A100004F5EE6383E8030046E0012940F08F801F
:107A20006FF04703C4F8DC366FF04A03C4F8D03671
:107A30006FF04303C4F8D43694F85A3784F8FD162F
:107A40004D2BC4F8AC16864C40F002812378002BF5
:107A500040F00181834B1B78002B5FD00A2101F09D
:107A600007FD227841F67023002A59D06B43FA189B
:107A700002F5EE64D2F8C81AD2F8C40A84E803000A
:107A800003F6C42103F5EE603944384400F02EFFBC
:107A900075490246012004F0A7FE41F6702303FB5E
:107AA0000573012283F85B2541F670266E43BC19ED
:107AB00006F5EE61D4F8DC36D4F85495B4F8C48AEF
:107AC0000233C4F8DC36D4F8D0360233C4F8D036EA
:107AD000D4F8D43639440433C4F8D436084600F018
:107AE00005FFB4F87037614940F2E24B06F2547278
:107AF0004FF47A7A0BFB08F80BFB03F33A44B3FB21
:107B0000FAF3B8FBFAF8CDE90203CDE900982B4669
:107B1000012004F069FE05B0BDE8F08F14219BE060
:107B200003FB057303F5EE62D3F8B81AD3F8B40A71
:107B300082E803004E49012004F056FEADE7022919
:107B40004BD10323C4F8AC366FF04503C4F8DC36E0
:107B50006FF04803C4F8D0366FF04103C4F8D43650
:107B600094F85A3784F8FD864D2B01D0432B26D14B
:107B700041F6702404FB05740223C4F8AC361421CA
:107B8000284601F075FC6FF04703C4F8DC366FF04F
:107B90004A03C4F8D0366FF04303C4F8D43641F634
:107BA000702303FB057303F5EE62D3F8C01AD3F814
:107BB000BC0A82E80300012283F85C2574E7453B98
:107BC000DBB20D2BEBD842F2810222FA03F3DB0782
:107BD000E5D5322101F04CFCE1E7032916D1012360
:107BE00084F85A35322101F043FC6FF04503C4F8A4
:107BF000DC366FF04803C4F8D0366FF0410384F8E8
:107C0000FD86C4F8AC66C4F8D436FDE604297FF4DA
:107C10004BAF01260A2184F85D6501F029FC6FF065
:107C20004703C4F8DC366FF04A03D4F8D01AD4F80E
:107C3000CC0AC4F8D0366FF04303C4F8D43604F548
:107C4000EE6383E80300C4F8AC6684F8FD862BE796
:107C5000432B7FF463AF0521284600E700CF0020C7
:107C6000E7BD0120E8CE0020EE7504002D7604006B
:107C7000137604002DE9F04F41F670244443C14DC2
:107C80008FB004F6CC2AFA22AA4444F620660F46A6
:107C900080461146002350464FF00509009600F03B
:107CA000CBFD3A46B849CDF80480CDF800904B465C
:107CB000012004F0E3FF7A78562A3AD104F2547096
:107CC000B249284418F056FE2B190322C3F84C275A
:107CD00083F83B2547F2305640F2E24204F6AC20EE
:107CE000114604232844009600F0A6FD40F2E2422B
:107CF00004F6C420114604232844009600F09CFD9D
:107D000040F2E24204F6B4201146042328440096CF
:107D100000F092FD40F2E2420096042311465046E4
:107D200000F08AFD04F6BC200096042340F2E242F3
:107D300038E04D2A40F0408104F2547094492844C0
:107D400018F018FE2B1903F5CB520C2111600922F3
:107D5000C3F84C27012283F83B2504F6AC204FF4EE
:107D60007A7247F23053114600932844022300F000
:107D700063FD642240F6B83304F6B4201146009344
:107D80002844002300F058FD322204F6C4200023CA
:107D900011462844009600F04FFD04F6BC200096E2
:107DA0000423FA221146284400F046FD41F67026CD
:107DB00006FB085640F2E242B6F870174FF47A73A9
:107DC0005143B1FBF3F10591B6F8CC1A5143B1FB25
:107DD000F3F10491B6F8C41A5143B1FBF3F10391E6
:107DE000B6F8BC1A5143B1FBF3F10291B6F8B41ADC
:107DF0005143B1FBF3F10191B6F8AC1A04F254749B
:107E00002C444A430120B2FBF3F36249009322461B
:107E1000434604F0E9FC604B96F85A271B68C6F805
:107E20008C364FF0010986F868977B789A4200F00B
:107E30002E82502B86F85A3700F04E82FB78C6F817
:107E4000A4363B79C6F8A03697F802A0DFF864B1F3
:107E500006F2C4630793BAF1000F40F01B824F4B48
:107E600086F83BA5A3F800806FF04703C6F8D0362C
:107E70006FF04003C6F8D4366FF04403C6F8DC3622
:107E8000474B4046D96A01F0F3FA06F2F463D3EDAA
:107E9000007AADF834A0B2EE047A27EE877A0A2190
:107EA000BDEEC77ACDE90BAA8DED087ABDEEE77A73
:107EB0009DF920308DED087A9FED3A7A93FBF1F22F
:107EC00067EE877A01FB1233FDEEE77A5BB2CDED08
:107ED000097A9DF9242092FBF1F001FB102252B2A5
:107EE000314900920BA89DF9202018F0B1FBD6F87B
:107EF000DC360393D6F8D4360293D6F8D036019305
:107F00000BAB0093D6F8EC3628492246484604F0DD
:107F10006BFCD6F8DC36264907EE903A079BF8EE64
:107F2000E77A4846C3ED007A4FF0FF33C6F8C8360B
:107F3000D6F8A0361BF903300293D6F8A4361BF905
:107F40000330019396F86837009396F85A377A7899
:107F500004F04AFC06F072F8504606F047F841F685
:107F6000702000FB0855D5F89036062B40F08F8125
:107F7000D5F8A036052B00F38A813B79C5F89036F9
:107F800085E100BF00CF0020747604008E760400E7
:107F90009476040031770400D0A700200CA70020BD
:107FA000FCBD01200000C842977704009F770400C1
:107FB000DB770400E0A70020432A62D104F2547A60
:107FC000AA44D349504618F0D5FCD24B4FF0000BD1
:107FD000C3F800B0D04B05EB0409A3F800804FF4C0
:107FE0007A7204F6AC2047F2305389F83BB511465B
:107FF00000932844022300F01FFC322204F6B42030
:108000005B4611462844009600F016FC322204F626
:10801000C4205B4611462844009600F00DFCFA226D
:1080200004F6BC20114628440096042300F004FC0A
:10803000B9F8CC3A40F2E2414FF47A724B43B3FBC9
:10804000F2F30493B9F8C43A4B43B3FBF2F303934E
:10805000B9F8BC3A4B43B3FBF2F30293B9F8B43A24
:108060004B43B3FBF2F30193B9F8AC3A01204B4315
:10807000AA49B3FBF2F352460093434604F0B4FB23
:1080800094E64C2A3AD105EB040A4FF0020B04F2B5
:108090005470A3498AF83BB5284418F06BFC4FF4A0
:1080A0007A7204F6AC2011465B462844009600F034
:1080B000C3FB47F23053FA2204F6B420009328445D
:1080C0000023114600F0B8FB04F6C4200096FA2203
:1080D00011460023284400F0AFFB4FF47A7204F6F7
:1080E000BC205B4611460096284400F0A5FB0AF52B
:1080F000CB5308221A60CAF84C9757E6522A26D169
:1081000004F254708749284405EB040A18F032FC45
:108110004FF0020B4FF47A7204F6AC2011468AF845
:108120003BB55B462844009600F086FB47F230538F
:10813000FA2204F6B420009328440023114600F0EC
:108140007BFB04F6C42047F230530093BFE7452A77
:1081500023D104F254707449284405EB040A18F042
:1081600009FC4FF0020B4FF47A7204F6AC20114672
:108170008AF83BB55B462844009600F05DFB47F269
:108180003053FA2204F6C4200093284400231146F9
:1081900000F052FB04F6B420D5E7472A32D104F2AE
:1081A00054706249284418F0E5FB2B19032283F828
:1081B0003B25C3F84C2747F2305640F2E24204F622
:1081C000AC20114604232844009600F035FB40F211
:1081D000E24204F6C420114604232844009600F02D
:1081E0002BFB40F2E242114604235046009600F079
:1081F00023FB04F6B42040F2E24200960423114629
:1082000028448DE5582A06D104F254704849284480
:1082100018F0B0FBCAE5502A0DD104F2547045495C
:10822000284418F0A7FB2B190A2283F83B25424B60
:1082300001221A70BAE54149002004F0D5FA4FF442
:108240007A7204F6AC20114602232844009600F00E
:10825000F3FA47F23057FA2204F6C42011460023FD
:108260002844009700F0E8FAFA2204F6B4201146F8
:1082700000232844009700F0DFFA04F6BC244FF4F2
:108280007A72009602231146281900F0D5FA0FB031
:10829000BDE8F08F86F8369505F0D0FE002005F099
:1082A000A5FE079A2649002313600023C6F8C836A6
:1082B000D6F8A0361BF903300293D6F8A4361BF982
:1082C0000330019396F86837009396F85A377A7816
:1082D000484604F089FA42E64FF0FF32C6F8C82655
:1082E000C6F8D426174A86F87E96A2F800806FF06A
:1082F0006D01114AC6F8D01682F80090BA7812497A
:10830000CDE9009248467A7804F06EFABFE700BFE4
:108310009A76040068BF01200CA70020A076040014
:10832000FA76040000770400067704000C77040056
:10833000127704005ACA0400F0CE00201877040017
:108340002178040004A700206C78040000230C4A64
:1083500030B5014641F67025184692F85A478C42CE
:108360000CD0FF2C05D192F8684714B99842B8BFD9
:1083700018460133092B2A44EFD130BD1846FCE7DB
:1083800000CF00204338C0B213289ABF024B53F8E5
:1083900020000248704700BFB47C04003075040020
:1083A0002DE9F041284A294CD2F83011284FDFF846
:1083B000A880B2B00646D2F82C0192F834216B4660
:1083C00003C300211A700DF10900BF2218F09FFAB3
:1083D000684618F0F1FA1F493246684418F038F937
:1083E000062554F8040B0522314618F09FF9C8B948
:1083F00044F8047C013DF4D1684618F0DDFA32AB54
:1084000018445D2300F8CA3C684618F0D5FA32AB30
:108410001844694600F8C95C012004F0E5F932B05F
:10842000BDE8F08154F8040C0522394618F07EF9B5
:108430000028DFD054F8041C684618F031F9414692
:10844000684618F02DF9D5E72E79040018A700200A
:1084500030750400AC780400C97804002DE9F74FAA
:108460004848494D494F4A4EDFF86491DFF864A10E
:10847000FFF796FF474B48484FF00108C3F80080CC
:108480001423EB62FA2247F2305300931146002383
:1084900000F0D2F9414B4248C9F8008040F28A22EC
:1084A0001A60404B3B60404B4FF4FA721A603F4BEE
:1084B000FA2283F8008047F2305300244FF0060B75
:1084C00000931146042344F62068C6F800B08AF8E9
:1084D000004000F0B1F94FF47A72CDF800801146F7
:1084E0003348022300F0A8F94FF47A72CDF80080E7
:1084F00011463048022300F09FF93222CDF8008067
:10850000234611462C4800F097F9322211462346A3
:10851000CDF80080294800F08FF902F07BFE3B681F
:10852000274AE86A03EBD3735B103B60136000F0EB
:1085300065FF244B9AF80020234F9A70D9F8002049
:10854000DA704FF04308326883F801801A716121B4
:10855000F422384618F0DBF932683C70052AD4BFA3
:1085600013465B46194A7C70C5E90044C5E90244DC
:10857000C5E90444C5E9064487F80280136003B0E6
:10858000BDE8F08F9A760400FCBD012034BE0120C6
:10859000D8A70020F4A6002060A70020ECCE002081
:1085A00080A7002040694700F0A70020E8CE002007
:1085B00068A7002070A70020A0A7002088A700209F
:1085C000ECBD012047A70020F1BC0120D0A700206E
:1085D000DCA70020E9CE002008B50C4B1B789BB926
:1085E0000B490622012004F0FFF80A4B0A4A0B4906
:1085F000C3E90022C3E90222C3E904220120BDE845
:108600000840062204F0F0B808BD00BFF0BC01200D
:10861000D178040018A7002030750400CC7804003D
:10862000F8B500240A4E0B4F254656F8040B0522D8
:10863000394618F07BF800B101350134062CF4D12D
:10864000054923462A46012004F0CEF82846F8BD05
:1086500018A7002030750400EC78040070B51A4AA1
:108660001A4DD2F8F401D2F8F811194EB2B06B4697
:1086700003C3D2F8FC011860BC22002103A818F043
:1086800046F9002455F8041B684618F009F801342F
:108690003146684618F004F8062CF3D1684618F005
:1086A0008BF932AB18445D2300F8CA3C684618F0D9
:1086B00083F932AB1844002300F8C93C6946012015
:1086C00004F092F832B070BD2E79040018A7002093
:1086D000C97804002DE9F043364B374CB3F8C0227B
:1086E000DFF8DC80DFF8DC90B3B00546D3F8BC02DD
:1086F000009093F8C232ADF804200021C1220DF1A0
:1087000007008DF8063018F002F9684618F054F9A1
:108710002A492A46684417F09BFF0626002754F88A
:10872000040B0522414618F001F888BB87BB0522DF
:108730002946284644F8045C17F0F8FF28B154F89D
:10874000040C0522294618F00FF854F8041C68465A
:1087500017F0A6FF4946684617F0A2FF0127013E21
:10876000DDD197B1684618F027F932AB18445D2384
:1087700000F8CA3C684618F01FF932AB1844694645
:1087800000F8C96C012004F02FF833B0BDE8F08385
:1087900054F8040C0522414617F0C8FF0028DED02B
:1087A00054F8041C684617F07BFF4946684617F0EA
:1087B00077FFD4E72E79040018A70020137904006E
:1087C00030750400C978040075DF7047164B1749EF
:1087D0001A68174B1B681A44164B01301B6880B28D
:1087E000F0B5D21A00FB00F40C235A4304EB041337
:1087F00013444FF47A7710FB00F007FB03F540F2C7
:10880000E24600EB400095FBF6F50D800A2505FBDE
:10881000043300EBC0007B43104493FBF6F34B8022
:1088200000238B80C880F0BDFCCE0020C2A70020B2
:10883000F4CE0020F8CE0020F0B5184F838085B02C
:108840000E464FF47A7140F2E2450A9B4A4392FB8E
:10885000F5F242800A2293FBF2F3C3803B7801FBDE
:1088600006F494FBF5F40480ABB1A4B23046654342
:10887000B5FBF1F5CDE9024517F0D0FB084B00221E
:1088800017F012FA3246CDE900010649012003F043
:10889000ABFF00233B7005B0F0BD00BFC0A70020B8
:1088A0000000F43F047D040010B5044C207004481F
:1088B000017004490A70044A136010BD55BF0120BD
:1088C00056BF0120CAA70020B4A70020994230B5A6
:1088D0000AD10023994201DC012030BDC55CD45C83
:1088E000A54201D10133F5E70020F6E702880B88A5
:1088F0009A4209D142884B889A4205D180888B8858
:10890000C31A584258417047002070477FB54D88C0
:108910000B8845808D888580134DCC882A7803800C
:10892000C480F2B1114A1488114A41F6702606FB40
:108930000422D2F85445012C13D140F2E2425343B1
:108940004FF47A72B3FBF2F30393FFF7CFFF039B6D
:108950000849CDE900401A46204603F045FF0023B0
:108960002B7004B070BD00BFC1A700200CA7002071
:1089700000CF0020427D0400F8B541F67024164F68
:108980001649444304F284703E190022384417F01B
:1089900095FF002504F6A4102A461049C6F884580D
:1089A00086F8885886F8D45A384417F087FF04F6BA
:1089B0009C1038440A49C6F8A45A86F8A85A86F882
:1089C0007857FFF7A3FF04F27C7038440449BDE8F0
:1089D000F840FFF79BBF00BF00CF002054BF01202D
:1089E00058A700202DE9F04F974D41F670264643D9
:1089F000AF1989B097F8D43A0446002B00F01E81D5
:108A000097F88838002B00F09C8006F284762E447C
:108A1000D7F884388D4832460121FFF757FF60B3FD
:108A200097F86C354BBB97F85C3513B197F8343534
:108A30001BBB874B874F1B88A34215BF01234FF0F9
:108A400000083B70844B14BF844B87F800800222DF
:108A5000394620460DF062FC022300933A468049D5
:108A60000194002004F00AF900233B7041F67023C2
:108A700003FB0453012283F86C2541F6702808FBA0
:108A800004587248D8F8847832463B460121FFF7F3
:108A90001DFFC0B198F86D35002B44D198F85C35B6
:108AA0001BB198F83435002B3DD141F6702303FB00
:108AB0000453012283F86D256A4BBAB23146204631
:108AC0000DF02CFC2FE0022F40F0AB8098F884379B
:108AD000012B00F2A68098F88537432B40F0A18047
:108AE00098F86C95B9F1000F1DD1594B88F86C15A9
:108AF0001B88DFF86081A3420DBF574B574B88F8A6
:108B0000001088F800903A46414620460DF006FCD9
:108B10003B46CDE9007454494246484604F0AEF85D
:108B2000002388F80030FA220021304617F0EFFECB
:108B300041F6702303FB04530022C3F8842883F812
:108B4000882841F670276743EE194FF0000A96F81F
:108B5000789786F8D4AAB9F1000F6FD007F27C7825
:108B600007F69C132B44A844194640460793FFF789
:108B7000CDFE079B3D4986F878A74FF0010B1846BC
:108B800086F8D4BAFFF7C2FE96F8A81A07F28473E3
:108B90002B44002947D007F6A411D6F8A42A07933E
:108BA0002944184617F08AFE079BD6F8A42AC6F86F
:108BB000842886F888B8FA225146184617F0A7FE8E
:108BC000C6F8A4AA86F8A8AA41F6702303FB0453AA
:108BD0000A20B3F88217049141430391B3F8801738
:108BE0000291B3F87E1740F2E2464FF47A70714377
:108BF000B1FBF0F10191B3F87C371D4907F25472D3
:108C000073432A44B3FBF0F301200093234603F09F
:108C1000EBFD4146A0B2FFF7D7FD484609B0BDE8DD
:108C2000F08F144B49E7FA221846079117F06FFEB0
:108C30000799C6F8841886F88818C5E72046FFF714
:108C40009BFE4FF00009E8E700CF002014A70020AA
:108C50000CA7002053A70020807D0400AF7D0400F6
:108C6000947D0400C67D0400DD7D040058A700202B
:108C70000A7E0400F87D04002DE9F04F2DED028BF3
:108C80008BB0DFF870A10DF1200841F6702588E85F
:108C90000600454305F2547B0AEB05060BEB0A037D
:108CA00008EE103AB6F87E374C4940F2E2444FF4F1
:108CB0007A7B6343B3FBFBF30493BDF826300A22AF
:108CC00053430393BDF824300293BDF8223063432D
:108CD000B3FBFBF30193BDF8203018EE102A0746D2
:108CE0006343B3FBFBF300930346012003F07CFDD9
:108CF00096F8D49A05F27C735344B9F1000F34D03E
:108D000041461846FFF7F2FD044650B134490120B0
:108D100003F06AFD002420460BB0BDEC028BBDE8D9
:108D2000F08F05F69C1757443846FFF7DFFD20B15A
:108D30002C49012003F058FDEDE72B49012003F0F9
:108D400053FD41463846FFF7E1FD012305F6A41027
:108D500086F888482246254986F87837504417F027
:108D6000ADFDC6F8A44A4C46D5E7079305F6A41016
:108D70004FF001034A461D4986F8D43A86F87897A1
:108D800086F8A89A504417F099FD079BC6F8A49A54
:108D900018464146FFF7BAFDBDF8263004930A2273
:108DA00053430393BDF824300293BDF82230104999
:108DB0006343B3FBFBF30193BDF8203018EE102A98
:108DC00063430120B3FBFBF300933B4603F00CFD30
:108DD00041463846FFF7F8FC01249CE7687E040012
:108DE000C67E0400F47E0400277F040054BF0120E7
:108DF000367F040000CF00202DE9F04F2DED028BCF
:108E00008BB00DF12009169E9DF85C5089E8060094
:108E10000446984686B99D493246012003F0E4FC99
:108E200099E806002046FFF727FF054628460BB0C5
:108E3000BDEC028BBDE8F08F41F6702000FB04FB17
:108E4000934F0BF2547A0AEB070307EB0B0A08EE79
:108E5000103ABAF87E3740F2E2424FF47A70534348
:108E6000B3FBF0F30493BDF826300A214B43039380
:108E7000BDF824300293BDF8223086495343B3FB3A
:108E8000F0F30193BDF82030534318EE102AB3FBE2
:108E9000F0F301200093234603F0A6FC334642463C
:108EA000CDE900647C49002003F0E8FE9AF8D43A4A
:108EB0000693069A0BF27C733B44002A00F0A980CB
:108EC00049461846FFF712FD78B10BF28470DAF8C4
:108ED0008418334642463844FFF7F8FC28B16F49FE
:108EE000012003F081FC0025A0E70BF69C190BF68E
:108EF000A41AB944BA44D5B341F6702B0BFB047BDA
:108F00009BF87837D3B1BBF89C2940F2E2435A432F
:108F10004FF47A719BF8A83AB2FBF1F20120604954
:108F200003F062FC9BF8A83A43B1DBF8A43A5D4930
:108F3000CDE900345246002003F0A0FE5A4901203A
:108F400003F052FC08A94846FFF7E0FC41F6702008
:108F500000FB0474012784F8787732464146504676
:108F600017F0ACFCC4F8A46A84F8A87A5EE708A9F4
:108F70004846FFF7BBFC80B141F6702101FB04714C
:108F80003346D1F8A41A42465046FFF79FFC20B161
:108F90004649012003F028FC48E741F6702505FB0F
:108FA000047595F87837D3B1B5F89C2940F2E243BF
:108FB0005A434FF47A7195F8A83AB2FBF1F20120C6
:108FC0003B4903F011FC95F8A83A43B1D5F8A43A0F
:108FD0003449CDE900345246002003F04FFE3249B7
:108FE000012003F001FC08A94846FFF78FFC41F679
:108FF000702000FB0474012584F8785732464146FE
:10900000504617F05BFC84F8A85AC4F8A46A069D81
:109010000CE707930125069B8AF878370BF28470DA
:10902000324641468AF8D45A384417F047FC079B29
:10903000CAF88468494618468AF88858FFF766FCDB
:10904000BDF8263004930A2253430393BDF824301D
:109050000293BDF8223040F2E2424FF47A7153435A
:10906000B3FBF1F30193BDF820302846534318EECB
:10907000102AB3FBF1F30F490093234603F0B4FB2E
:1090800049462046FFF7A0FBD0E600BF947F0400CE
:1090900000CF0020AA7F04000C800400C67E0400DC
:1090A0001E80040055800400277F0400F47E040025
:1090B00064800400948004002DE9F74F83460D4638
:1090C0000120A849A84F03F08FFBA84A002610787A
:1090D0003C463A4641F670215FFA86F900286CD08A
:1090E00092F83B35002B68D192F86937002B64D198
:1090F00092F86837002B60D092F83032002B5CD1A8
:1091000092F83E35002B58D192F83635002B54D0CA
:1091100041F6702707FB06471FFA89F997F85C2587
:1091200082BBD7F85425012A03D001213046FEF72F
:109130003BFC8F49012003F057FB012341F67028C7
:10914000CDE9005308FB06F804EB080707F5EE6AC3
:109150009AE806005B464846FFF74EFE08F6940084
:1091600059462A46204417F0A9FB9AE803004FF01D
:109170000103C7F8945987F8983907F68C0787E8F0
:1091800003000AE002213046FEF70EFCD7F87427F0
:10919000D7F870174846FFF76FFD41F6702303FBC1
:1091A000064494F8FD06012384F86937002840F04E
:1091B000A680012003B0BDE8F08F0136062E0A44D8
:1091C0008AD1694A002641F6702C92F83B15012994
:1091D0005FFA86F920D192F86937EBB992F86837CF
:1091E000D3B192F83032BBB992F83E35A3B992F8B8
:1091F00036358BB141F6702202FB06421FFA89F91F
:1092000092F85C75BFBBB0B3D2F85425012A94D054
:109210003046FEF7C9FB90E70136062E6244D4D1F2
:10922000514A002641F6702192F83BC5BCF1020F6D
:109230005FFA86F92CD192F869374BBB92F8683700
:1092400033B392F830321BBB92F83E3503BB92F831
:109250003635EBB141F6702202FB06421FFA89F95E
:1092600092F85C1539B930B1D2F85425012A3FF48F
:1092700064AF0121CCE702213046FEF795FB41F6B1
:10928000702303FB0643D3F87427D3F8701781E7E4
:109290000136062E0A44C7D1334B002641F6702210
:1092A00093F83B1503295FFA86F82ED193F86917D6
:1092B00059BB93F8681741B393F83E1529BB93F84F
:1092C000361511B341F6702303FB064393F85C2572
:1092D0009AB9D3F85435012B03D001213046FEF75B
:1092E00063FB41F6702000FB06444046D4F8742727
:1092F000D4F87017FFF7C0FC53E70221EEE784F8BB
:10930000FE36002384F8FD3654E70136062E13445A
:10931000C6D10026DFF86490DFF86480344687F811
:109320006947494607F694002A4617F0C7FA0136FE
:10933000D8F80000D8F80410C7F8944987F898497D
:1093400007F68C03062E07F5D35703C307F1100762
:10935000E5D1084B08491C70002003F045FA0020B5
:1093600028E700BFFB80040000CF0020E7BD0120FC
:1093700018810400284103203481040054BF0120D7
:1093800058A70020F8B5194B194A1E885F88044673
:10939000002141F6702592F83BC5BCF1010FC8B21F
:1093A00014D192F83CC5BCF1000F0FD1B2F870C7D0
:1093B000B4450BD0B2F872C7BC4507D08C4205D07B
:1093C00019685A68BDE8F840FFF756BC0131062914
:1093D0002A44E0D1052C04DC19685A68A0B2FFF7D2
:1093E0004BFC044B00221A70F8BD00BF78A7002088
:1093F00000CF002057BF012077DF704707EE900AAB
:10940000B8EEE77AF7EE007A77EE277AB0EE006AE8
:10941000C6EE276A38B5124B1860124B044641F667
:10942000702517EE100AC3ED006A16F00BFE0E4B06
:10943000002216F013FB02460B4600204FF080413D
:1094400016F0CEFC16F018FE084B002243F67C31D5
:1094500002F29C628A421C6098602B44F8D138BDAD
:10946000CCA70020D4A700200000F03FECD50020BE
:10947000114B10B507EE901A1960104B41F670228F
:1094800002FB0030F8EEE77AC0F8EC1600F2F46464
:1094900017EE900A16F0D6FD094B002216F0DEFA00
:1094A00002460B4600204FF0804116F099FC16F062
:1094B000E3FD206010BD00BFCCA7002000CF00203E
:1094C0000000F03F094B70B5002441F6702642F2CF
:1094D000A87504F29C64AC42C3F8D006C3F8D41655
:1094E000C3F8DC263344F4D170BD00BF00CF0020A8
:1094F0000F4B10B503F52044C4F87005C4F874157B
:10950000C4F87C2503F5304403F55043C4F8E00F5C
:10951000C4F8E41FC4F8EC2FC3F8500AC3F8541A77
:10952000C3F85C2A034BC3E908019A6210BD00BF6F
:1095300000CF0020FCBD01202DE9F043044687B098
:109540000E46904689B2024603209946FFF754FF23
:109550001B4B1A681B4B07460025AA421BDA002545
:10956000194B41F67024CDE90389744304F2547118
:109570001C440020D4F88C2622442C4492F99426D2
:10958000029294F994260B44CDE900620F493A46C1
:1095900003F02AF910E013F9011BA14201D00135B3
:1095A000DBE7002FDCD1002DDAD0074941F670232C
:1095B00003FB0616C6F88C56384607B0BDE8F083A4
:1095C000D8A70020E0A7002000CF00204881040099
:1095D0002DE9F04FDFF85CA3044641F6702000FB54
:1095E00004A02DED028BD0F85C3793B00D4623B369
:1095F000D0F8E036994228D0C34B1B78DBB141F656
:10960000702B0BFB04A303F2C463642D93ED008A5B
:1096100002D1BE4B93F900500BFB04AB642DDBF879
:10962000903607934CD0DBF8CC36002B12DD013B93
:10963000CBF8CC3609E001F0BFFC41F6702303FB08
:1096400004A3D3F8E036AB42D9D113B0BDEC028B02
:10965000BDE8F08FAD4B07EE905A1D700BF2F4632E
:10966000D3ED008AF8EEE77A0BF2C46B67EEA87AC6
:1096700017EE900A16F0E6FC064618EE900A0F4622
:1096800016F0E0FC02460B460020A14916F008FB4C
:10969000804618EE100A894616F0D4FC02460B46A6
:1096A0004046494616F000FB02460B463046394616
:1096B00016F0D4F916F0E0FC08EE100ACBF8000022
:1096C00041F6702606FB04A60027C6F8E056CDE951
:1096D0000A77ADF8307006F2F463D3ED007AF2EE5B
:1096E000048A27EEA87A4FF00A08BDEEC77A0AA8C6
:1096F0008DED087ABDEEE77A9DF920308DED087A80
:109700009FED847A93FBF8F267EE877A08FB1233B9
:10971000FDEEE77A5BB2CDED097A9DF9242092FB4C
:10972000F8F108FB112252B27B4900929DF92020EA
:1097300016F08EFF68EE288A102239460EA80D9783
:1097400017F0E5F8FDEEE87ACDED087A9DF92000F6
:1097500016F0B7FDFDEEC87A90FBF8F317EE902AED
:1097600003FB18036D4952B20DA816F071FF96F86D
:109770006837002B3FF469AFD6F8C83601333FF4A1
:1097800064AF96F8F0366BB107EE905AB8EEE78A00
:1097900006F2C46383ED008AD6F8EC3686F8F076DC
:1097A000C6F8C8365E4B1B88A3423FF44EAF5D4BF4
:1097B000DFF878B11B78002B14BF072311238BF837
:1097C000003018EE100A41F6702916F03BFC09FB38
:1097D00004F90AEB09080646D8F8D0060F4616F039
:1097E0001DFC02460B463046394616F0FBFB0028AE
:1097F00000F0A480D8F89076DFF83C910137D8F8D3
:10980000A0369F423FF721AF9DF81C6017F9090071
:1098100019F90630C01A16F054FDD8F8DC3607EEF8
:10982000900AF8EEE78A07EE903A78EE888AF8EE2A
:10983000E77AF4EEE87AF1EE10FA03D9D8F8A03618
:109840009F425FD1FDEEC87A19F907208BF80170AD
:1098500017EE903A21468BF802308BF80350032024
:10986000FFF7CAFD41F67021614301F25472524480
:1098700080BB8A44FDEEE87ACAF88C76CDED077A93
:109880009DF91C302849CDE90453DAF8D03603930A
:109890000AF2C465D5ED007AFDEEE77A5644CDEDC7
:1098A000077A9DF91C30029396F994360193574438
:1098B000012097F994360093234602F095FF032385
:1098C000C5ED008A1949CAF8CC3604222046FDF7B6
:1098D000BBFFBAE60D4B1B7804938A440DAB039390
:1098E000DAF88C3612495344BA4493F99436029309
:1098F0009AF99436CDE9004313460246002002F05F
:1099000073FFA2E601377AE71640032021400320C7
:109910000000F03F0000C8429777040094810400E3
:1099200004A70020E8CE00209A8104004FA7002061
:10993000F981040000CF0020E0A70020D8F8D43639
:1099400007EE903AF8EEE77AB4EEE78AF1EE10FA15
:109950007FF77BAED8F8903609F25477994409F234
:10996000936957445E1ECA4408F2C46BD8F8A43603
:109970009E42FFF66AAE9DF81C300893079B9AF949
:10998000000058FA83F999F99436C01A16F099FC38
:1099900099F9943607EE900A9AF90000C01AF8EE89
:1099A000E78A16F08EFCD8F8DC36DA1C07EE902A2F
:1099B00078EE688AF8EEE77AF4EEE87AF1EE10FADB
:1099C0000DDB07EE903AF8EEE77AF4EEE87AF1EE86
:1099D00010FA04D8281A824201DB83420CDDD8F841
:1099E000A42696424AD107EE903AF8EEE77AF4EED2
:1099F000E87AF1EE10FA41D8FDEEC87ADFF8C090AF
:109A000017EE903A89F80230294B89F801609A578D
:109A100089F8035021460320FFF7EEFC024688BB7D
:109A2000FDEEE87AC8F88C66CDED097A9DF9243010
:109A30002049CDE90453D8F8D4360393DBED007AFE
:109A4000FDEEE77A3A46CDED097A9DF9243002938E
:109A5000089B4344012093F9943601939AF900300E
:109A60000093234602F0C0FE0323CBED008A0422BC
:109A7000C8F8CC3649462046FDF7E6FE013E0AF11D
:109A8000FF3A73E70C4B0D491B7804930DAB03931E
:109A9000D8F88C364344002093F9943602939AF90F
:109AA0000030CDE900433B4602F09EFEE6E700BFF2
:109AB000E0A700204782040021400320F981040030
:109AC0004FA7002030B441F670220F4C4243A1183A
:109AD00040F29C65D1F8443705FB003303F5E2738F
:109AE00004EB8303002098604FF0FF33C1F8003788
:109AF00001F20471002302F5E1620B60A018034932
:109B000030BC16F037BF00BF00CF0020A682040093
:109B100010B50446FFF7D6FF094B41F6702000FB55
:109B200004300323C0F8CC3600F2DC62D2ED007AB8
:109B3000F8EEE77A00F2C463C3ED007A10BD00BF0F
:109B400000CF00202DE9F047814B824D1A782DED92
:109B5000028B044688B041F670264AB106FB0056D7
:109B6000002386F8FD3608B0BDEC028BBDE8F08717
:109B700006FB005E40F29C67DEF800170929D4BF9F
:109B800008460A20944601384FF00B08674390427C
:109B90004ADC06FB04560A27D6F84C07092900FBC5
:109BA00007F706F2047A4FDCC1F10A0100FB01C09D
:109BB00016F034FA684B002216F076F816F05CFACC
:109BC00007EE907AB8EEE77A07EE900AC7EE877A4A
:109BD000CAED007A41F6702044432B1903F2047356
:109BE00093ED008AF2EE047A68EE277A04F5E164D8
:109BF000FDEEE77ACDED077A9DF91C0016F061FBCA
:109C0000FDEEC87A0A22CDED077A90FBF2F35349B4
:109C100003FB12039DF91C20281908B0BDEC028B30
:109C2000BDE8F04716F014BDDEF844370A339B1A3E
:109C300093FBF8F908FB19333B4405EB830301322E
:109C4000D3F818379C44A2E707EE90CAF8EEE77AFB
:109C500017EE900A16F0F6F93F4B002216F024F8A2
:109C600080463846894616F0D9F902460B464046EA
:109C7000494616F0B5F816F0FFF99FED397ACAF8A3
:109C8000000007EE900AF4EEC77AF1EE10FA05D55F
:109C9000D6F89026D6F8A0369A429BDB9FED317A13
:109CA000F4EEC77AF1EE10FA94DD41F670236343C7
:109CB000EE1806F2C46292ED007AD6F8DC2607EEC2
:109CC000902AF8EEE77AB4EEE77AF1EE10FA81DD49
:109CD000D6F89006D6F8AC26411E91427FF77AAFAF
:109CE000FDEEC77A204FCDED077A9DF91CC0797043
:109CF00006223A7087F802C0D6F8E0E687F803E05B
:109D000003F2547203F5E1632B44CDE904E3D6F882
:109D1000D436CDE902C33044314490F994360193EE
:109D200091F9943600932A4423461049012002F009
:109D30005BFD204604223946FDF786FDD6F89036B5
:109D4000013BC6F890362046FFF7E2FE42E700BF2F
:109D5000F0BC012000CF0020000059409481040095
:109D6000000098420000B4424FA70020AB820400DC
:109D70002DE9F04F2DED048B7C4B8BB01B780891B7
:109D8000044683B97A4E7B4B9DF820B083F800B02F
:109D900041F6702505FB0065D5F8CC36002B07DDB4
:109DA000013BC5F8CC360BB0BDEC048BBDE8F08FA1
:109DB00005F2F46393ED008AD5F890A618EE100A28
:109DC00016F040F902460B4600206B4915F068FF7B
:109DD00005F2C46780463868894616F033F90246B2
:109DE0000B464046494615F05FFFDDED087AF8EE78
:109DF000E77A804667EE887A894617EE900A16F071
:109E000021F902460B464046494615F027FE16F05A
:109E100033F9089B3860C5F8E03608EE100A16F0F2
:109E200011F98046D5F8D006894616F0F7F80246B3
:109E30000B464046494616F0D5F8002800F0A680AB
:109E400095F8FD3683B1D5F80037002B40F39E809E
:109E500005F2047595ED007ADFED487AB4EEE77A05
:109E6000F1EE10FA40F1928041F67025654305F25B
:109E700094690AF10107B14406EB05085FFA8AFA12
:109E8000D8F8A036BB428EDB08EB0A0319F90700AD
:109E900093F99436C01A16F014FAD8F8DC3607EEA7
:109EA000900A07EE103AF8EEE77AB8EEC77A77EE46
:109EB000887AB4EEE77AF1EE10FA08D9D8F8A0362D
:109EC000BB4204D0D8F890360233BB424CD1DFF805
:109ED000B4802B4988F80170BDEEC87AFDEEE77AB0
:109EE000062388F8003005F2547217EE103A05F593
:109EF000E165CDED097A354488F8023088F803B081
:109F00009DF92430069541F67025059305FB0465FF
:109F1000089B0493D5F8D036039305F2C463D3EDC0
:109F2000007AFDEEE77AAA44CDED087A9DF920305B
:109F300002939AF994360193EB19324493F99436CB
:109F400000930120234602F04FFC042241462046A4
:109F5000FDF77AFCC5F8907620460BB0BDEC048B7B
:109F6000BDE8F04FFFF7D4BD013789E7F0BC012011
:109F700000CF0020214003200000F03F0000A0425D
:109F8000108304004FA700200000A84241F670256E
:109F900005FB0465D5F8D40616F040F841EC190B22
:109FA00002460B464046494616F000F800283FF4AA
:109FB000FAAE95F8FD3683B1D5F800370A2B7FF459
:109FC000F2AE05F2047595ED007A5FED117AB4EE0C
:109FD000E77AF1EE10FA7FF7E6AEBAF1030F21DC73
:109FE00000224FF0804351EC190B15F037FD02466B
:109FF0000B464046494615F0D9FF00283FF4D3AE42
:10A00000BAF1030F0ED0574B002251EC190B15F08B
:10A0100025FD02460B464046494615F0C7FF00287D
:10A020003FF4C1AE41F67025654306EB0509D9F84A
:10A030005C37002B3FF4B7AE0AEB050808F29368D3
:10A040000AF1FF37B0445FFA8AFAD9F8AC36BB425E
:10A050003FF7A9AE09EB0A0398F9000093F994269B
:10A060000993801A16F02DF907EE900A099B18F94A
:10A07000010993F99436F8EEE78AC01A78EE688AF7
:10A08000F0EE007A78EEE78A16F01BF9D9F8DC36A4
:10A09000DA1C07EE902AF8EEE77AF4EEE87AF1EEB1
:10A0A00010FA09DB013307EE903AF8EEE77AF4EEA6
:10A0B000E87AF1EE10FA08D9D9F8AC36BB4204D0F0
:10A0C000D9F89036023BBB4249D1DFF8A09026492F
:10A0D00089F80170FDEEC87A062389F8003041F650
:10A0E000702817EE903A08FB0468FDEEE87A89F8CC
:10A0F000023089F803B098F8FD36CDED097A079360
:10A1000005F254729DF92430059305F5E165089B2D
:10A11000049335440695D8F8D436039308F2C46303
:10A12000D3ED007AFDEEE77AC244CDED087A9DF9D1
:10A13000203002939AF99436019308EB07033244D6
:10A1400093F9943600930120234602F04DFB04223C
:10A1500049462046FDF778FBC8F89076FCE6013FBB
:10A1600073E700BF00001040828304004FA7002067
:10A170003D4A41F6702343432DE9F047D418064683
:10A18000D4F8D80ADFF8F08006283848B4BF06258E
:10A1900010250570417004F2C46ADAED007AFDEE14
:10A1A000E77A88B0CDED067A9DF818508570D4F81E
:10A1B000E076C770D4F890C604EB010904EB0C00FC
:10A1C00099F994E690F9940603F254731A446145A0
:10A1D000AEEB00007FB2079227DA16F072F82D1A64
:10A1E0006DB2CDE90475D4F8D4360393DAED007A74
:10A1F000079A1F49FDEEE77ACDED067A9DF91830F2
:10A200000293D4F8903618F90330019399F99436F3
:10A2100000933346012002F0E7FA14490422304645
:10A2200008B0BDE8F047FDF70FBB16F04AF805444B
:10A230006DB2CDE90475D4F8D4360393DAED007A23
:10A24000079A0C49FDEEE77ACDED067A9DF91830B4
:10A250000293D4F8903618F90330019399F99436A3
:10A2600000933346D6E700BF00CF00204FA7002061
:10A2700048860400AD860400E0A700207047000077
:10A280000F280FD0162809D00E2810D1084B012214
:10A290001A70084A1368013313607047044B002298
:10A2A0001A70704704480022042111F067BE7047FD
:10A2B00060BF01205CBF012090A70400F8B54FF4F7
:10A2C0008041002014F048FE08B110F0F7F90DF0BD
:10A2D00017FC044608B110F0F1F900200DF034FC31
:10A2E0000DF0B8FC0028FBD014B1204610F0E6F9C0
:10A2F0002949022004F0ACF808B110F0DFF9002180
:10A300001622084604F0ECF8012003F0D5FE03F015
:10A31000F3FD00F0E1FC02F077F800F017FB01F02C
:10A32000A5F801F03DFF00F0E5FF01F07DFF00F032
:10A3300023FB00F095FF01F093FF00F0A9FF01F06F
:10A3400069F801F0BBF8012003F050FE134E144CE5
:10A3500003F032FE02F061F833789BB12368DB072B
:10A3600054BF0120022003F041FE22680025AA42CA
:10A37000357007DD0B4F0C49387838B1284602F0AC
:10A3800033FA3D7014F06AFE20BFE1E702F02CFAC8
:10A39000236801332360F5E781A2020060BF01203A
:10A3A000ECA700202CCB01201287040074DF70473B
:10A3B00075DF704776DF704777DF704778DF70476B
:10A3C0007ADF70477BDF70477CDF70477FDF704745
:10A3D00088DF704789DF70478CDF70478FDF7047F9
:10A3E000B1DF704702460249012002F0FDB900BF0B
:10A3F0001C8704000149012002F0F6B93B870400E4
:10A4000002460249012002F0EFB900BF468704006E
:10A4100002460249012002F0E7B900BF5D8704004F
:10A4200073B51B4D1B4A2E8841F67021714353189A
:10A4300093F86837CBB1184C94F80C01D4F8083174
:10A44000A8B1CDE90036154904F10802012002F057
:10A4500015FC01230193D4F80831009394E8060019
:10A46000288804F10803FEF7C7FC02B070BD01F2B2
:10A47000547100930A4403460949012002F0B4F9DB
:10A4800094E80600288802B0BDE87040FEF7F4BBEF
:10A49000B0A7002000CF002044BE01207887040030
:10A4A0009987040037B50C4B42884568044601463D
:10A4B000182000FB02300BF0E7FD2378032B08D1B6
:10A4C000628895F8C4320549009200202A4602F0BD
:10A4D0008BF903B030BD00BF94C80120CD870400C4
:10A4E0001FB50B4C03900C2303FB00440146204690
:10A4F00007F034FC618800904FF6FF73CA1A53428C
:10A5000053410449039A002002F06EF904B010BDD3
:10A5100084C90120F187040070B505460078B0B900
:10A520006B880B4C0B4941F6702606FB03F202F2D6
:10A530005472224402F058F9688806FB0044D4F8AB
:10A540007427D4F87017BDE87040FEF795BB70BD56
:10A5500000CF00202788040008B50E4B1B7833B1CC
:10A560000D4A0E49136809680B44136008BD0C4B73
:10A570001B78002BFAD0094B18680A4B1B782BB1BB
:10A580000AF0C8FBBDE808400AF074BC064A13682C
:10A590000344EAE72A40032034BE0120ECCE002029
:10A5A0002740032026400320F4BD01202DE9F04779
:10A5B0002DED028B90F868278AB004462AB1C94B6A
:10A5C0001B789BB1C84B1B7883B1C84BC8491B781B
:10A5D00083F00103009382F001020023012002F0C6
:10A5E00003F90AB0BDEC028BBDE8F087D4F8D83A85
:10A5F000052B00F3A18094F8FC26002A4DD0BD4A1B
:10A600001278002A49D1D4F86427D4F860170132AF
:10A6100003318A42C4F8642742DDD4F8CC56002DB9
:10A620003ED1D4F89026D4F8A0168A4238D0B24948
:10A63000561C8A5601928A570092B04904F254720D
:10A64000012002F0D1F84FF0FF333146C4F8E43670
:10A65000D4F8D80AFFF78CFDB4F8D80AC4F890668D
:10A66000FFF756FAD4F85C77C4F864574FF4004605
:10A670004FF47A7029464FF4FA620023C7FB0601B3
:10A6800015F024FD0146D4F8DC0A22460AB0BDECE0
:10A69000028BBDE8F04710F043B90022C4F86427EC
:10A6A000D4F800170122002984F8FC261CDBD4F81A
:10A6B000CC06C8B994F8FD26B2B1D4F844270B25CE
:10A6C000013292FBF5F605FB1622C4F8442709294E
:10A6D00004EB8202D8BF0131C2F81807D8BFC4F812
:10A6E000001798B2FFF72EFAD4F85C37002B7FF7EB
:10A6F00078AFD4F8E02A1344814AC4F8E03A934290
:10A700000DDD94F8683753B1D4F87427D4F8701776
:10A71000B4F8D80AFEF7B0FA0023C4F8E03AD4F847
:10A720005C674FF400454FF47A7000214FF4FA62F1
:10A730000023C6FB0501A3E7D4F8DC0A10F01EF9DC
:10A74000D4F85C376F4903EB4303009304F254726F
:10A75000D4F8D83A012002F047F86B4BD4F88C8635
:10A760001B689845BFF63DAF624B1D78002D7FF406
:10A7700038AF08F1010604F2C463D3ED008ADFF8B4
:10A78000A8A1DFF87491A31993F9940604EB0803C8
:10A7900093F99436C01A15F094FDD4F8D87A8DF850
:10A7A00025605B238DF82430DAF88C3619F9062001
:10A7B0008DF82630B9B208EE100A0320FFF7FCFD31
:10A7C00041F67021794301F25472504B5244514486
:10A7D000002867D1B8EEC88A01F2C46A38EE288A28
:10A7E0000120FDEEC87ACDED077A9DF91C50C1F825
:10A7F0008C66C1F8E466059593F900300493D1F8AE
:10A80000D0360393DAED007AFDEEE77A3144CDEDF0
:10A81000077A9DF91C30029319F90830019391F9D8
:10A82000943600933A493B4601F0DEFF07EE905A1A
:10A83000F8EEE77A0322CAED007A09A90620FDF7AF
:10A8400003F8344B1B7813B9334B1978C9B1334B28
:10A85000D4F85C571B6805EB45051D444FF40046D2
:10A860004FF47A704FF4FA6200230021C5FB060111
:10A8700015F02CFC22460146D4F8DC0A10F050F802
:10A88000AFE6274B1B78002B3FF4ABAED4F85C57F8
:10A890004FF4004605EB45054FF47A704FF4FA6229
:10A8A0000023E3E793F90030049301F2C463D3ED8E
:10A8B000007AFDEEE77ACDED077A9DF91C3003931F
:10A8C000D1F88C360B44314493F99436029391F9C4
:10A8D00094361449CDE9007313460246284601F028
:10A8E00083FF7EE62DBE0120164003202940032071
:10A8F00052880400F0BC0120E0A700209E880400DC
:10A90000BFD40100D2880400D8A700202140032032
:10A910000989040026400320E6BD0120F0A700209D
:10A920002A4003207089040000CF0020032808B5C6
:10A9300008D1022003F080FDBDE80840014602482E
:10A9400003F0A6BA08BD00BFC689040010B50024F4
:10A950002046FCF73DFD2046FCF790FD20460121F6
:10A96000FCF7AAFD20460134FCF7FAFD092CEFD1D3
:10A97000BDE81040FDF772BD10B588B000211C2263
:10A9800001A815F0C4FF0E4B0E4A01930E4BCDE902
:10A99000022305238DF810300023ADF812308DF816
:10A9A00014300A4B069301A8094B079304F052FE9A
:10A9B00004460146074803F06BFA204608B010BD74
:10A9C00090A700200000D4300000E45719A5020031
:10A9D000E5A30200D189040038B50A4B0A480122D8
:10A9E0001A700025094B2A4641F233311D700FF0D1
:10A9F00097FF074904460246284601F0F5FE204627
:10AA000038BD00BF1ECB0120F8CB00201DCB01209C
:10AA1000EC89040038B5FDF703FEB0B10C4B1D788E
:10AA20009DB90C4807F0A0FA0446FDF717FE0A4945
:10AA3000284601F0D9FE0948214603F029FA084BBF
:10AA40001D70084B1D70204638BD0024FBE700BF79
:10AA50001CCB0120F0C90120048A0400178A0400DD
:10AA60001ECB01201DCB0120F8B51D4B1B782BB14F
:10AA70001C4B1D491A88002001F0B6FEFDF7D0FDE1
:10AA8000002828DD194B1D782DBB194F3C78FCB1EF
:10AA9000184E33780BB3184807F066FA0446FDF7F2
:10AAA000DDFD1648214603F0F3F93D7035704CB9D1
:10AAB000134B144A1B7812781349204601F094FE78
:10AAC0002046F8BD11492246284601F08DFEF7E7E1
:10AAD000FFF782FFF4E70024F2E70124F0E700BF6C
:10AAE0001FCB0120B0A70020298A04001CCB012025
:10AAF0001ECB01201DCB0120F0C90120178A0400C4
:10AB0000E8CE0020E7BD0120598A04007F8A0400B6
:10AB100037B5104B104C01221A70FFF7A5FF2046E5
:10AB2000FFF750FC6388228840F2E2414B434A43DE
:10AB3000E1880A2569430191A18800914FF47A7058
:10AB40000649B3FBF0F3B2FBF0F2002001F04CFE3B
:10AB500003B030BD1DCB012098A700209F8A0400C0
:10AB6000F0B50478456889B0062C2BD8DFE804F0EE
:10AB7000042A2A2A463037000021052206A815F0AB
:10AB8000C6FEA9692B7FA3420FD90A190E5D527820
:10AB9000092A19D10234721E214406A815F08EFE2E
:10ABA00008AB1E44002306F8093C224F002657F844
:10ABB000041B052206A815F0B9FD044638B301367A
:10ABC000072EF4D109B0F0BD01363444E4B2DAE71F
:10ABD0001948294609B0BDE8F04003F059B9A979F0
:10ABE000AB786A7803916979029129790191E978C2
:10ABF00000910020114901F0F7FDE3E71049002022
:10AC000001F0F2FD09B0BDE8F040FFF72DBF0D4A9D
:10AC10000D490123A81CFFF7DFFB014605900B48F7
:10AC200003F036F9059B0A4906AA204601F0DCFD2F
:10AC3000C8E700BF18A70020F38A04001A8B04009D
:10AC4000488B0400B8A70020E8CB0020588B0400F4
:10AC5000708B040007F031B9F7B5114B002504469D
:10AC600001264FF4004729464FF47A701E704FF4C6
:10AC7000FA620023C4FB070115F028FA2A460146B0
:10AC800008480FF04DFE084A009005461288074913
:10AC90003046234601F0A8FD284603B0F0BD00BFB2
:10ACA0001FCB012080A80020B0A70020958B0400B6
:10ACB00008B5074800224FF4F0110FF031FE28B913
:10ACC000BDE808400349012001F08EBD08BD00BF6A
:10ACD00020A80020C58B040010B50FF0DDFD044650
:10ACE0000146714803F0D4F814B1032003F07EF953
:10ACF0006E4A6F4800210FF001FE01466D4803F0D7
:10AD0000C7F800216C4A6D480FF0F8FD0446014673
:10AD1000684803F0BDF814B1032003F067F900217F
:10AD2000674A68480FF0EAFD04460146664803F0AA
:10AD3000AFF814B1032003F059F90121634A6448C4
:10AD40000FF0DCFD04460146624803F0A1F814B19F
:10AD5000032003F04BF901215F4A60480FF0CEFD5C
:10AD6000044601465E4803F093F814B1032003F053
:10AD70003DF900215B4A5C480FF0C0FD04460146E6
:10AD80005A4803F085F814B1032003F02FF9584A0C
:10AD9000584800210FF0B2FD01460446564803F022
:10ADA00077F8564B564AC3F8DC2A14B1032003F057
:10ADB0001DF94F4A534800210FF0A0FD01460446FB
:10ADC0004D4803F065F8504B504AC3F84C2514B178
:10ADD000032003F00BF9464A4D4800210FF08EFD89
:10ADE00001460446444803F053F84A4B4A4AC3F824
:10ADF000BC2F14B1032003F0F9F83D4A4748002165
:10AE00000FF07CFD014604463B4803F041F8444BFB
:10AE1000444AC3F82C2A14B1032003F0E7F8344A5B
:10AE2000414800210FF06AFD01460446324803F014
:10AE30002FF83E4B3E4AC3F89C2414B1032003F084
:10AE4000D5F82B4A3B4800210FF058FD0146044637
:10AE5000294803F01DF8384B384AC3F80C2F14B1B9
:10AE6000032003F0C3F8224A354800210FF046FDC5
:10AE700001460446204803F00BF8324B324AC3F82F
:10AE80007C2914B1032003F0B1F8194A2F4800219E
:10AE90000FF034FD0146184802F0FAFF2C4B2D4A02
:10AEA000C3F8EC2310BD00BFE08B04009DC302007B
:10AEB00080990400EF8B040065B5020084990400BA
:10AEC00011AB0200389A0400048C040059A502005A
:10AED000349A04001A8C0400F5A302003C9A040082
:10AEE000348C040021A40200309A0400498C040030
:10AEF000ADA50200409A0400658C040000CF00203C
:10AF000040CC0020449A040000EF002060CC0020D8
:10AF1000489A040000FF002080CC00204C9A0400D6
:10AF2000001F0120A0CC0020509A0400003F012007
:10AF3000C0CC0020549A0400004F0120E0CC002037
:10AF4000589A0400006F012000CD00205C9A040094
:10AF5000008F012020CD002070B5134D2C68CCB996
:10AF6000124B1E684FF400454FF47A7021464FF49F
:10AF7000FA620023C6FB050115F0A8F82246014637
:10AF80000B480FF0CDFC70B9BDE8704009490120B5
:10AF900001F02ABC064800224FF420310FF0C0FC1B
:10AFA00000232B60EFE770BD64BF0120F8A70020ED
:10AFB00040A80020758C040090F868372DE9F04116
:10AFC00006462BB9BDE8F0413349012001F00CBC25
:10AFD000324BD0F8DC0A00251D70314B1D700FF08C
:10AFE000CDFCD6F8D83AD6F85C47052B21DC4FF4D7
:10AFF00000474FF47A70294600234FF4FA62C4FBED
:10B00000070115F063F832460146D6F8DC0A0FF066
:10B0100087FC06F25472034628B1BDE8F04121498D
:10B02000012001F0E1BBBDE8F0411F49012001F022
:10B03000DBBB74B31D4B1B785BBB1D4B1B7813B97B
:10B040001C4B1978C1B11C4B1B6804EB44041C4415
:10B050004FF400454FF47A704FF4FA620023002158
:10B06000C4FB050115F032F832460146D6F8DC0A79
:10B07000BDE8F0410FF054BC104B1B784BB104EB12
:10B0800044044FF400454FF47A704FF4FA62002301
:10B09000E6E7BDE8F08100BF938C04001640032072
:10B0A0002DBE0120C08C0400E58C0400F0BC012002
:10B0B00026400320E6BD0120F0A700202A400320FF
:10B0C00001480FF05BBC00BF00A80020F0B53D4B6D
:10B0D0003D4C9B7A3D4F412B85B05BD13C4E306857
:10B0E000C21CC11DFEF704FA3068C21CC11DFEF768
:10B0F000E9F9D4F800C000244FF400454FF47A7009
:10B100002146CCFB050100234FF4FA6214F0DEFF68
:10B11000224601462F480FF003FC2F4B3C7003F2F0
:10B120006452D2ED007A93F98035FDEEE77A054658
:10B13000CDED017A9DF9042006212046FEF7FCF9A9
:10B1400004238DF80C30254B1A68254B53F8223018
:10B150008DF80D30032233688DF80E3003A90620D8
:10B1600009F00EFF1F492A46204601F03DFB002052
:10B170001D4901F039FBFFF7A3FF02F05FFF1B4BF6
:10B18000187808B902F032FF032002F02FFF0020E8
:10B1900005B0F0BD266800244FF400454FF47A70E6
:10B1A00021464FF4FA620023C6FB050114F08EFF1E
:10B1B0002246014607480FF0B3FB0D493C7002469A
:10B1C000D2E700BF2D400320F4A700202A4103202E
:10B1D0000C400320C8CB0020006F012004CE0020CB
:10B1E00010CE0020028D0400348D04001640032090
:10B1F0001E8D040010B505480FF0C0FB044904463D
:10B200000246002001F0F0FA204610BDA8CB002035
:10B210003A8D040070B5FFF7EDFF0E4B00251E6858
:10B220004FF4004429464FF47A700023C6FB040112
:10B230004FF4FA6214F04AFF2A46014606480FF01E
:10B240006FFB064904460246284601F0CDFA204627
:10B2500070BD00BFF0A70020A8CB00204D8D0400DA
:10B2600013B508220021684615F051FB064B0093E8
:10B270006846064B019304F06DFD044608B10FF0DB
:10B280001DFA204602B010BDA5A4020060A800204F
:10B290007FB50C4B01930C4B02930C4E0C4B03935C
:10B2A000002501A930460AF039FF044608B10FF025
:10B2B00005FA0135062D06F11806F2D1204604B034
:10B2C00070BD00BFA963030001A4020094C801205F
:10B2D00060A8002010B5002201210446FFF778F88D
:10B2E00022460346BDE810400149002001F07CBA27
:10B2F000618D04001FB5112315488DF8043015F039
:10B300005BFB134982B201A8FFF75EF808B10FF0AA
:10B31000D5F9082200210DEB020015F0F8FA0D4BCB
:10B320001A88ADF808205A88ADF80A2002A89A8831
:10B33000DB88ADF80C20ADF80E30FFF741F804467D
:10B340000146054802F0A4FD204604B010BD00BF30
:10B350009A76040060A70020878D040030B508228B
:10B3600085B00DEB0200002115F0D1FA154A1068E6
:10B37000516802AB03C302A8FFF722F81249044642
:10B380000246002001F030FABDF80A30BDF808206E
:10B3900040F2E2414B434A43BDF80E100A2569438F
:10B3A0000191BDF80C1000914FF47A700749B3FB7E
:10B3B000F0F3B2FBF0F2002001F016FA204605B0DF
:10B3C00030BD00BFA8A700209F8D0400CB8D0400D6
:10B3D00013B508220021684615F099FA0B4B1A881C
:10B3E000ADF800205A88ADF8022068469A88DB88BC
:10B3F000ADF80420ADF80630FEF7E2FF0446014642
:10B40000034802F045FD204602B010BD60A70020B1
:10B410000B8E040037B5114B114D0193002401A987
:10B42000284606F089FC08B10FF048F90134092CD0
:10B4300005F10C05F3D104220021684615F067FAE6
:10B44000084B09480093694609F01EFB044608B101
:10B450000FF034F9204603B030BD00BF11A4020044
:10B4600084C901200554030080CB002013B514F0DB
:10B4700089F9044628B1022002F0B8FD20460FF0F9
:10B480001DF9002301A90120019314F04DFA04468F
:10B4900028B1022002F0AAFD20460FF00FF901A802
:10B4A00014F0ACFA044628B1022002F09FFD2046B9
:10B4B0000FF004F9204602B010BD000010B5ACB08A
:10B4C000AC22002101A815F022FA012402208DF8F7
:10B4D00006408DF80400FEF771FF06238DF8073053
:10B4E000124B13481B788DF88040002B14BF4FF48B
:10B4F000C863F023239345F6C053249301A90D4B51
:10B500002A9303F0DAFD044608B10FF0D7F821467C
:10B51000094802F0BDFC0648012103F0CBFD0748B5
:10B52000214602F0B5FC20462CB010BDF0BC012035
:10B530006CBF01202DA90200228E04003A8E040067
:10B5400010B50321054803F02FFE054904460246C5
:10B55000002001F049F9204610BD00BF6CBF01205A
:10B56000568E040037B5184C206828B9FFF7E8FF5D
:10B570000023236003B030BD144B93F85400FEF752
:10B5800015FF134AC8B9134B1968134B41F67025C0
:10B5900005FB013393F87B367BB912780F49012004
:10B5A00001F022F94823ADF804300D4B0222B3F923
:10B5B000000001A909F0E4FCDAE713780949024622
:10B5C000012001F011F9D3E764BF01206CBF012015
:10B5D000F0CE002068BF012000CF00206D8E040057
:10B5E0000CA70020AB8E04002DE9F04F04468BB071
:10B5F000808804F04DF983B2012B03D02288262ADB
:10B6000040F0DA81B849204609F080F92388A588FE
:10B61000222B19D80F2B20D9103B122B1DD8DFE875
:10B6200013F01F004B001C0195011C001C001C00A6
:10B630001C001C001C001C001C00CE001C001C0078
:10B64000E4001C0043015101522B00F08881562B6D
:10B6500000F0A1813B2B00F08B810BB0BDE8F08F97
:10B66000072002F0E9FE064608B10FF027F82A4647
:10B670009E49002001F0B8F82846FEF731FF314618
:10B680009B4802F005FC9B4BA08841F6702202FB10
:10B690000533012283F87B26974B09A91D600223FD
:10B6A0008DF825308DF82430FEF798FE9349024638
:10B6B000002001F099F8D0E741F6702808FB05F763
:10B6C0008C4E237A8E4907F25479B1444A460120C0
:10B6D00001F08AF8884B1B6808FB03634FF00008F1
:10B6E00083F87B862846FEF775FEF319854F93F89D
:10B6F0005A2783F86887092A0CD093F87E36F3B965
:10B70000814BA2881B889A4204D102F097FC012049
:10B7100002F06CFC7C4B1A88AA4204D1FF221A80EA
:10B720007A4B00221A70387828B9794B1B88AB42C3
:10B7300001D1FFF705FF77494A4600208BE1764BA0
:10B740001B78002BDCD0754B87F8008009221A800B
:10B75000734B1A78002AD3D083F80080DFF8E8A171
:10B76000704B4FF0040B96F83725F2B996F868172E
:10B77000D9B13168FF2906D8D6F830258AF80210E9
:10B780008AF8012007E0002905DAD6F830158AF892
:10B7900002200029F4DB012232778AF800B003226C
:10B7A000514640460AF0BAFD5E4B08F1010806F525
:10B7B000D356B8F1060F06F11006D4D1A0E794F9DC
:10B7C00008304C4ADFED586A07EE103A41F6702314
:10B7D00003FB052505F2C465D5ED007AB8EEC77AFE
:10B7E000E7EE267AC5ED007A37E722896389E68994
:10B7F000DFF800C1A78940F2E2404FF47A7142437A
:10B800004343B2FBF1F2B3FBF1F30A214E4341F69D
:10B8100070214D430CEB050191F86807B8B105F2B2
:10B8200054750093CDE90176134640490CEB0502AF
:10B83000002000F0D9FF04F10801A088FEF7B8FD50
:10B8400001463B480BB0BDE8F04F02F021BBCDE90B
:10B850000076384900F0C8FFEDE7264F2189B4F89B
:10B860000CE0608941F670236B43FE1803F25472BA
:10B8700096F8FD36C6F860E740F2E24C4FF47A7471
:10B880000CFB00F03A44B0FBF4F0C6F85C07CDE9DD
:10B8900001E301200CFB01F32749B3FBF4F3009310
:10B8A0002B4600F0A1FFD8E6022309A928468DF80F
:10B8B00024308DF82530FEF791FD01461F4802F037
:10B8C000E7FACAE6237A002B3FF4C7AE1C4B41F6D9
:10B8D000702202FB05331B492A4600200BB0BDE84D
:10B8E000F04F00F081BF00BF80CB0020DE8E04004F
:10B8F000F58E040000CF002068BF01200F8F0400E8
:10B900002B8F0400F0CE0020F0A600202B40032057
:10B910000CA700205C8F0400E8CE002004A70020C4
:10B9200028400320578F040000000000738F04009C
:10B9300008900400B98F0400339004007490040050
:10B9400054D600209790040055A70020002385219D
:10B950001A462846FEF73AFD0146B54872E700232D
:10B9600019461A462846FEF73BFD0146B14869E7ED
:10B97000B148002102F08CFA1321A088FEF71AFDCD
:10B98000AE4B1A68AE4B41F6702101FB0233002228
:10B9900083F87B2661E6A94B1A68A94B41F6702112
:10B9A00001FB023328460022132183F87B260BB0CB
:10B9B000BDE8F04FFEF7FEBC022B02D01D2A7FF43B
:10B9C0004CAEA04920460AF0DDFB2388A588222B37
:10B9D00030D80F2B7FF641AE103B122B3FF63DAE19
:10B9E00001A252F823F000BF4DBA0200CDBA020006
:10B9F00007BE02005BB602005BB602005BB6020047
:10BA00005BB602005BB602005BB602005BB60200EA
:10BA10005BB6020005BD0200C5BC02005BB60200B9
:10BA20005BB602002DBD02005BB602003BC0020007
:10BA30005DC002003B2B00F02583562B7FF40DAE3A
:10BA4000052D40F23F8380492A4603E0052D07D9A2
:10BA50007E492A4601200BB0BDE8F04F00F0C4BE7D
:10BA600006F02BFAA3887A49764D1A46002000F09A
:10BA7000BBFEA1881826002206FB01500AF02AFC12
:10BA80000146744802F004FAA2886D4B41F6702119
:10BA900001FB023306FB02556F49C3F840550020F5
:10BAA00000F0A2FE6D4BA1884FF4BA6000FB01309C
:10BAB00004F08EF901466A4802F0EAF9A088FEF720
:10BAC0000FFD03F03FFF6749024636E6052D02D918
:10BAD00065492A46BEE76549594E0B78644A4BB919
:10BAE0001388AB4206D041F6702303FB056393F83D
:10BAF0003C359BB900230B70142313805D4B1B78DE
:10BB000013B15D4B1B783BB141F6702000FB056023
:10BB100000F25470FCF7DEFDFEF7A6FFA288237A40
:10BB200041F6702000FB02F1771897F85A77FF2F43
:10BB300064D000FB056001F2547290F86817009120
:10BB400032444E49012000F04FFE41F6702303FBC2
:10BB500005F1721871580020814282F868071ADBDB
:10BB6000D2F83005002816DB0C278DF8247092F8E7
:10BB70005A278DF82520424A8DF8260010888DF826
:10BB8000271003FB006393F8683723B13D4B042271
:10BB900009A90AF0C3FBA088FEF71CFCA2883A4959
:10BBA0000346002000F020FEA088FBF7D9FC374BAD
:10BBB0001B78002B3FF451AD41F6702303FB056564
:10BBC00095F85A37FF2B3FF448AD95F83B35012BDC
:10BBD00023D12F4A1368013B13602E4B1A6901329F
:10BBE0001A6195F83E25002A3FF437AD2A490A68C4
:10BBF000013A0A605A6901325A612EE5274901204B
:10BC000000F0F2FD264B1B78002B9ED1254B1B78B4
:10BC1000002B9AD1FEF728FF97E7022B46D1224A44
:10BC20001368013B13601B4A93690133936114E568
:10BC3000C2900400E59004000891040068BF012050
:10BC400000CF002094C801200B960400229104002C
:10BC50004F9104007891040098910400A0A800205E
:10BC6000BA910400D8910400EE9104001FCB01208A
:10BC7000B0A70020E7BD0120F0BC01201E92040007
:10BC80000CA7002085920400A6920400E8CE0020B4
:10BC9000F4CE0020FCBD0120F8CE00205892040014
:10BCA00014400320F0CE0020FCCE0020032B7FF4B4
:10BCB000D4ACC04A1368013B1360BF4AD369013357
:10BCC000D361CAE4BD4E41F6702303FB0566D6F886
:10BCD000DC363133BFF6C1ACD6F85C37282B7FF7A2
:10BCE000BCAC052D3FF6B9AC96F8FC36002B3FF402
:10BCF000B4AC94F908102846FEF73AF8002386F809
:10BD0000FC36AAE4052D02D9AD492A46A2E6AD4982
:10BD1000002000F069FD237A022B7FF49EACA94934
:10BD200000200BB0BDE8F04F00F05EBD052D02D93C
:10BD3000A5492A468EE6DFF88492228941F67023CF
:10BD400003FB0593B3F870379A4205D104F108015B
:10BD50002846FEF72DFB064631469C4802F098F82F
:10BD6000E1894FF00A0841F6702308FB01F15D43B9
:10BD700023890291A1890191618905F2547240F2EF
:10BD8000E2474D444A444FF47A7600207B4379439E
:10BD9000B3FBF6F3B1FBF6F100918D49079200F089
:10BDA00023FD95F86807B4F808C06189B4F80C90D1
:10BDB000B4F80EE0B8B108FB0EF0CDE9019007FB36
:10BDC0000CF30020079AB3FBF6F37943B1FBF6F1CD
:10BDD00000917F4900F008FDD4E9020105F5EE6508
:10BDE00085E8030039E407FB01F37A49B3FBF6F376
:10BDF00008FB0EF2CDE9009207FB0CF7B7FBF6F259
:10BE000000F0F2FC29E461892389E089B4F80C9000
:10BE10006A4F40F2E24E41F670260EFB01F86E4387
:10BE200001EB91010A244FF47A7C6043B8FBFCFAE1
:10BE300006F25472CDE902A103EB9301CDE904901F
:10BE400001910EFB03F33A44B3FBFCF36249009308
:10BE500001202B4600F0C8FCBB194CF24F32904534
:10BE6000C3F85CA7C3F8609712DDD3F8DC26012A7B
:10BE70000ED093F8FE262AB1002283F8FE26012276
:10BE800083F8FD26B819FFF797F82846FDF740FE1E
:10BE900041F6702303FB05730022C3F8E02A28460D
:10BEA000FCF7A0FD044600287FF4D7ABDFF85491DF
:10BEB000DFF8548199F800300093B8F80020474922
:10BEC0002B4600F091FCB8F80030AB4268D199F8ED
:10BED0000030002B64D01423A8F8003089F800400B
:10BEE000FCF7BCFBFCF79CFB0028DFF814A109DD84
:10BEF0009AF800301BB1FEF78DFD394910E7FEF7C7
:10BF0000B3FDFAE7DFF80491DFF8048199F8002027
:10BF1000079203F017FD98F80010079A81F00101CD
:10BF2000019107210346009120462E4900F05CFC58
:10BF300099F8003083B303F005FD07282CD19AF857
:10BF400000306BB398F80040A4B1274B1B783BB38B
:10BF5000FCF766FB20BB99F800400CBB234B244840
:10BF600001211970234B1970FDF7A6F8224988F8B2
:10BF70000000D5E61F4B1E4801211970FDF79CF803
:10BF80001E4988F80000204600F02EFC02200BB06D
:10BF9000BDE8F04F02F02AB89AF80030002BD4D157
:10BFA000FCF75CFBFCF73CFB002833DD144B1B78F3
:10BFB000A0E700BFFCCE0020FCBD012000CF002088
:10BFC000CB920400F69204001493040048930400FA
:10BFD000738F040073930400C5930400339404002A
:10BFE00080940400909404002CBE01201CCB0120FE
:10BFF00014A7002028410320D6940400C79404000D
:10C00000E7BD01201FCB0120B0A70020F0BC01201C
:10C0100058BF0120364C2378002B3FF41EAB41F66D
:10C02000702303FB057506F69400D5F8941938447F
:10C03000FDF742F82070FFF710BB052D02D92D49FE
:10C040002A4607E5022309A928468DF824308DF8F1
:10C050002530FEF7C3F90146274830E4052D02D903
:10C0600026492A46F6E4264B207A41F6702202FB46
:10C07000053300287FF42FACCDE900532149A37A82
:10C08000627ABDE6052D02D91F492A46E2E41F4B1C
:10C090001F4941F6702202FB05331E4AD3F8903641
:10C0A0000020D3562A4600F09FFBA2881A490020A0
:10C0B00000F09AFB1321A088FEF77CF9014617488F
:10C0C000FFF7C0BB114B164941F6702202FB053346
:10C0D000104AD3F890360020D3562A4600F084FB4D
:10C0E0001321A088FEF766F901460E48FFF7AABBA8
:10C0F00058BF0120EA940400199504003C950400FF
:10C1000054D600206A950400A195040000CF0020B9
:10C1100047960400E0A70020D2950400F1950400A2
:10C120003C9604006C96040010B5044607F0ACFB86
:10C13000204607F0D3FB204607F006F923780D2BA5
:10C1400004D1BDE810400020FFF7FAB910BD00008F
:10C1500008B5064B93F85400FEF728F9BDE80840EF
:10C1600002460349002000F03FBB00BF6CBF012026
:10C170008696040007B5084B019093F854100246C8
:10C180000120FEF719F9019A04490346002003B083
:10C190005DF804EB00F028BB6CBF01209C96040006
:10C1A00010B5102288B000210DEB020002AC14F093
:10C1B000AEFB184B049308220021204614F0A7FB85
:10C1C000154B16481A88ADF808205A88ADF80A2091
:10C1D0009A88ADF80C20DB88114AADF80E3004A91E
:10C1E000069405F06DFE08B10EF068FA02230DF119
:10C1F000060204210948ADF8063005F035FE014677
:10C20000084801F045FE00221F21044805F041FEC8
:10C2100008B010BDE8CB0020B8A70020F0C901206D
:10C2200061AB0200BC96040010B50C48002105F07B
:10C230004DF808B10EF042FA0848F72105F061F810
:10C2400008B10EF03BFA0548F72105F066F8044600
:10C2500008B10EF033FA204610BD00BF24C90120FA
:10C2600013B506F03BFD08B10EF028FA05220021B7
:10C27000684614F04CFB35238DF8003007238DF809
:10C28000013010238DF802309DF8033023F00303B2
:10C2900043F003038DF803309DF8043023F00303CB
:10C2A00043F0030368468DF8043006F0D1FD08B171
:10C2B0000EF004FA044806F0B3FD044608B10EF08F
:10C2C000FDF9204602B010BD29C1020037B52B4C44
:10C2D00041F6702141436518024695F85A37FF2B05
:10C2E0002CD095F83C354BB301F254716318019092
:10C2F0002349012000F078FA0023019A85F8683775
:10C3000085F87B364FF6FF75AA4230D013211046D0
:10C310000192FEF74FF8019A052A9EBF194B18218A
:10C3200001FB0233044698BF5D80E0B10346164925
:10C33000002000F059FA204603B030BD134B1D78A1
:10C34000002DDFD112490192012000F04DFA019A2F
:10C350001046FBF77FF9019A41F6702303FB024474
:10C3600084F86857CEE70B4900F03EFAE3E70A4944
:10C37000002000F039FA6424DDE700BF00CF002080
:10C38000D696040094C8012020970400E7BD012040
:10C39000F5960400529704007C9704007FB5164C74
:10C3A000164EB4F900004CF2C773022203A9ADF88F
:10C3B0000C3008F0E5FD2388019302231049009317
:10C3C00003AA012000F05AFC0E4C002594F86837AF
:10C3D0004BB1A8B2FFF77AFF0020314600F004FA13
:10C3E000032001F003FE013504F5D354062D04F1BA
:10C3F0001004EBD104B070BD04A70020B297040074
:10C40000A397040000CF002010B512F099FA04465B
:10C4100008B10EF053F9204610BD08B512F01EFE0B
:10C4200018B9BDE8084012F0A1BA08BD2DE9F043E3
:10C43000234B83B01B7800AF05460C46002B3AD047
:10C44000204B1B88092B36D001F1110323F0070381
:10C4500004226E46ADEB030DDFF878804FF0FF331A
:10C46000B91868467B6014F029FA2946621C01A8B5
:10C4700014F024FA144DD8F800004FF0F80969467A
:10C48000224609FB005014F019FA104AD8F800307F
:10C49000126809FB0355013393FBF2F102FB1133E0
:10C4A0000B4AC8F800301368A5F8F4400133136054
:10C4B00008F0E0FCB5460C37BD46BDE8F08300BF90
:10C4C00020CB012004A700204CCC012050CD00201F
:10C4D00044CC012048CC012000B50238B5B00C286E
:10C4E0001BD8DFE800F0071A1A1A1A1A2F46591A31
:10C4F0001A1A1D0000231946C42203A8029314F03F
:10C5000006FA2F4A00922F492F4A002302A814F05E
:10C510009FF801B202A8FFF789FF35B05DF804FB70
:10C520000EF0EAFC01F08AFD00231946C42203A89C
:10C53000029314F0ECF9244A2449002302A814F0D1
:10C5400087F8E6E7224B5B88022B09D92148224B6A
:10C550002249C01AC008000440F0030012F0F0FEA7
:10C560000DF0DAFA0028D8D135B05DF804EB0EF002
:10C57000C1BC174B5B88022B09D91648164B1849CA
:10C58000C01AC008000440F0030012F0D9FE35B014
:10C590005DF804EB0EF0C2BC0D4B5B88022B09D991
:10C5A0000C480D4B0F49C01AC008000440F00300AE
:10C5B00012F0C6FE35B05DF804EB0EF09FBC00BF74
:10C5C000FCCB0120609A04009A7604009C9A040037
:10C5D000ECA4002000710400C8700400C89A040094
:10C5E000DB9A0400ED9A04002DE9F04F5E4E33789B
:10C5F000B5B00446002B4DD014F0DEF93F2849D8E1
:10C60000402200215948317014F081F921465748E1
:10C6100014F0B0F9204614F0CFF9544902465448BA
:10C620000FF054FC0546002831D0524B5B8853B1C3
:10C630005148524C5249241AE40824042A4644F032
:10C64000010012F081FE0024C422214603A80294B6
:10C6500014F05DF92B464B4A4B4902A813F0F8FF42
:10C6600001B202A8FFF7E2FEC822214602A814F098
:10C670004EF9464B46491B680093464B3B4A1B68A4
:10C6800002A813F0E5FF01B202A8FFF7CFFE35B014
:10C69000BDE8F08F204614F08FF93F2805465BDC9B
:10C6A000DFF8E8803C4FD8F8000000EB80102A4605
:10C6B0002146384414F002F9D8F8003003EB831215
:10C6C0001744364A87F840501268013393FBF2F161
:10C6D00002FB11333249C8F800300B689A4201DD81
:10C6E00001330B603378002BD1D02E491F4814F052
:10C6F00041F91E491E4801220FF0E8FB0023337068
:10C70000C5E7D8F80000BBF1400FA8BF4FF0400BC1
:10C7100000EB8010E1195A46484414F0CFF8D8F8DD
:10C72000003003EB83124A44013382F840B0DAF858
:10C73000002093FBF2F102FB11331949C8F80030D5
:10C740000B689A425F4401DD01330B60A5EB070BD8
:10C75000BBF1000FD5DCC5E7DFF83080DFF838909B
:10C76000DFF838A00027F1E754CD0020FCCB0120F2
:10C7700090A70400ECA40020C8700400007104001D
:10C78000F79A04009A7604001B9B040074C40220EC
:10C79000499B0400A410032078C4022058CD002037
:10C7A00070C402203475040073B50B4601910D4628
:10C7B000002102460646084614F064F8013013F0E2
:10C7C0003FFE044640B90748FFF70EFF204613F02E
:10C7D0007FFE204602B070BD2A46314614F060F854
:10C7E000F7E700BF6E9B04000EB42DE9F047A04BA5
:10C7F0001B78ADF51D7D0746002B60D0A6A9A59836
:10C800000591FFF7D1FF0546002858D014F0D4F861
:10C81000002F5ED0974B984ED3F8041533688B42A7
:10C82000964B52D9D3E9002012F1807240F10000FA
:10C83000C3E90020D3E9004204F07F440C431C60AC
:10C840004FF47A733160A4FB034603FB0266E40BEA
:10C8500044EA4644F60B4EF6602200232046314659
:10C8600013F034FC4EF66022804600232046314609
:10C8700013F02CFC104619464FF47A72002313F083
:10C8800025FC4FF47A72814600232046314613F08E
:10C890001DFCCDF80090CDE901254346BFB1784A93
:10C8A00040F28F1138A813F0BFFE0446284613F05B
:10C8B0000FFEB4F5C87F14D37248FFF795FE0DF54F
:10C8C0001D7DBDE8F04703B070470027B2E76E4A10
:10C8D000E6E76E4A2B4640F28F1138A813F0A4FE0B
:10C8E000E3E76B4D2B78002B5DD038A814F064F88B
:10C8F0003F2858D8402200216648297014F007F8D4
:10C9000038A9644814F036F838A814F055F861498D
:10C91000024661480FF0DAFA05460028CFD05F4B97
:10C920005B8853B15E485F4C5F49241AE4082404D5
:10C930002A4644F0010012F007FD00242146C422DB
:10C9400007A8069413F0E3FF2B46584A5849594E5E
:10C95000594D06A813F07CFE01B206A8FFF766FD4C
:10C960002146C82206A813F0D2FF336800932B6833
:10C97000484A524906A813F06BFE01B206A8FFF719
:10C9800055FD2146C82206A813F0C1FF3368009365
:10C990002B68404A4A4906A813F05AFE01B206A87D
:10C9A000FFF744FD8BE738A814F006F83F2804464B
:10C9B00056DC404F434E386800EB8010224638A9C1
:10C9C000304413F07BFF3B6803EB831216443E4A6E
:10C9D00086F840401268013393FBF2F102FB1133F9
:10C9E0003A493B600B689A4201DD01330B602B78BA
:10C9F000002B3FF464AF3649264813F0BBFF2549AE
:10CA0000254801220FF062FA00232B7057E738689F
:10CA1000BAF1400FA8BF4FF0400A38AB00EB8010CE
:10CA200099195246404413F049FF3B6803EB8312C7
:10CA30004244013382F840A0D9F8002093FBF2F180
:10CA400002FB113321493B600B689A42564401DDD9
:10CA500001330B60A4EB060ABAF1000FD7DCC6E77E
:10CA6000144FDFF86080DFF860900026F2E700BF27
:10CA700020CB012000B0004030CB012068C4022050
:10CA80008B9B0400DD9B0400AD9B0400CA9B04004B
:10CA900054CD0020FCCB012090A70400ECA4002082
:10CAA000C870040000710400F79A04009A7604002C
:10CAB0001B9B040074C40220A4100320499B0400A3
:10CAC000F29B040078C4022058CD002070C40220DC
:10CAD000347504002DE9F0471E4F3B78002B36D10A
