:1010000000000420751300005D130000FD44000083
:10101000611300006313000065130000000000006E
:101020000000000000000000000000006713000046
:1010300069130000000000006B1300006D13000036
:10104000095700006F130000195700006F130000CC
:101050006F1300006F130000895400006F1300002D
:101060006F1300006F1300006F1300006F13000078
:101070006F1300006F1300006F1300006F13000068
:101080006F130000E94400006F1300006F130000AD
:101090006F1300006F1300006F1300006F13000048
:1010A0006F1300006F1300006F1300006F13000038
:1010B0006F1300006F13000000000000000000002C
:1010C0006F1300006F1300006F1300006F13000018
:1010D0006F1300006F1300006F13000045700000D5
:1010E0006F1300006F1300006F130000000000007A
:1010F000000000006F130000000000006F130000EC
:1011000000000000000000000000000000000000DF
:1011100000000000000000000000000000000000CF
:1011200000000000000000000000000000000000BF
:1011300000000000000000000000000000000000AF
:10114000000000000000000000000000000000009F
:10115000000000000000000000000000000000008F
:10116000000000000000000000000000000000007F
:10117000000000000000000000000000000000006F
:10118000000000000000000000000000000000005F
:10119000000000000000000000000000000000004F
:1011A000000000000000000000000000000000003F
:1011B000000000000000000000000000000000002F
:1011C000000000000000000000000000000000001F
:1011D000000000000000000000000000000000000F
:1011E00000000000000000000000000000000000FF
:1011F00000000000000000000000000000000000EF
:10120000354936480A1A02D0072291438D4634499F
:1012100034480A1A06D00722914381F30988022232
:1012200082F3148830483149314A00F044F831489B
:101230003149324A00F03FF831483249324A00F031
:101240003AF832483249334A00F035F832483349E7
:10125000334A00F030F833483349344A00F02BF871
:1012600033483449344A00F026F8344834490022DF
:1012700000F02CF833483449002200F027F83348B6
:101280003349091A082902DB002202604160314A11
:1012900090471F481F49884205D00268043003B4B4
:1012A000904703BCF7E700208646EC46002000216B
:1012B000294A9047FEE7884207D0521A05D00378A2
:1012C00001300B700131013AF9D17047884202D0E8
:1012D00002700130FAE770470000042000E00320AC
:1012E0000000042000000420889D0000CC000020A5
:1012F000BC010020D0130000D0130000208D00009E
:10130000889D0000CC000020CC000020D88E00007A
:10131000D88E0000D88E0000D88E0000D88E000035
:10132000D88E0000D88E0000D88E0000889D000066
:10133000789E0000BC010020BC010020BC01002000
:10134000E40E0020E40E0020E40E0020E40E002055
:10135000E42E00209D130000A9780000FEE7FEE7C0
:10136000FEE7FEE7FEE7FEE7FEE7FEE7FEE7FEE755
:1013700000F002B8FFF7FCBF0F484FF007018843A9
:1013800085460E4880470E48016841F470010160AF
:10139000BFF34F8FBFF36F8FFFF732BF09480A4982
:1013A0000A4A884207D0521A05D0037801300B70E0
:1013B0000131013AF9D1704700000420057A00009C
:1013C00088ED00E0148E000008000020CC00002012
:1013D000F0B595B01D46164608460C4603F0CEFC07
:1013E0001A9B0D93CDE9086500252B46082205A917
:1013F00020460A958DF82C500C9503F0DBFC079BDA
:101400000293069B03939DF814308DF8115003F05E
:101410000302012A1DD1BDF81420059DC3F3C203A8
:10142000C2F383168DF81030B20008230EA92046AF
:1014300003F0C0FCC5F3952508AB0093324602AB20
:101440000EA9284600F0FEFB204603F09BFC15B0D9
:10145000F0BD022AF8D1BDF81650C3F3C203C5F39C
:1014600089158DF810300827082D2E4628BF08262C
:101470003B4632460EA9204603F09CFCAD1B08AB50
:1014800002AA31460EA8374400F040FC002DEBD1F3
:10149000DAE70000014B01221A707047FD010020BD
:1014A0007047000070B50E4D06460FCD88B06C46F3
:1014B0000FC495E80F00002E84E80F00094A0A487F
:1014C0004FF0060308BF00226946009303F0A4FD15
:1014D00008B100F0B3FE054B1E7008B070BD00BF30
:1014E000D88E000095140000CC000020BC01002024
:1014F00007B5044B0093044A4023FFF769FF03B08C
:101500005DF804FB0D150000BD01002038B50D4845
:101510000D4C0E4D002323700378EB5CD2B263B107
:10152000043004F0BDFD08B100F088FE084B1A78C5
:1015300012B12378002BFBD038BD0C3004F040FBF7
:10154000F1E700BFCC000020FD010020C40A00200C
:10155000BC01002008B50848084A0378D35C3BB1B9
:10156000043004F00DFDBDE808400020FFF79ABFED
:101570000C3004F0BDFAF6E7CC000020C40A0020CD
:10158000037813F0040216D003F00303012B03D0F9
:10159000022B09D0012070470A6800880232C0F38C
:1015A000831002440A60F5E70B684288023303EBBC
:1015B00092130B60EEE71046704700002DE9F04FE4
:1015C000DFF810A10F4685B00446861C00201546A2
:1015D00002F044FEDAF804203A60DAF8083003F545
:1015E00080739B1A0AF21C470AF583690AF21448B1
:1015F000B34219D30020002D68D004F00F039B01E3
:1016000043F0050363F30F00DAF80430DAB2033273
:1016100033444AF822000020CAF8043002F020FEC9
:10162000012005B0BDE8F08F0121384603F0CFF866
:10163000484603F0F2F8404603F0EFF8DAF8080005
:101640000090C0B203300AEB80006946FFF798FFB4
:10165000009B30BBDAB20AEB8202D16801919A1C7E
:101660000133DBB20AEB83030092D3F80CB001F034
:101670000303012B22D0022B15D08346404603F0F2
:10168000CFF810B1009BCAF808305946384603F02D
:101690009EF8DAF80830DAF8042003F580739B1A14
:1016A000A6E7D8B2CEE7BDF80630C3F389130333FB
:1016B0004FEA1B4B02EB93030093DFE7BDF80430C6
:1016C000C3F383134FEA1B4B1344F5E7A40544F01F
:1016D000060099E7D002002030B599B10A4B0B4AB9
:1016E0000B49D21AD20800239A4201D1052006E004
:1016F00031F823500468A54202D10360002030BDB8
:101700000133F1E70846FAE7208D0000E08D000084
:10171000080000202DE9F84F1E4B1F4800221A70C8
:1017200003F0E5FA814690BB1C48DFF880801C4C32
:10173000DFF87CA003F048FBA4EB0804E4084D4666
:10174000A54208D10023174A19469C421AD022F814
:1017500023100133F9E700273E4608EBC50BB542DD
:1017600009D058F83610DBF80000142206F002FC0D
:101770000028C8BF01370136B442F0D12AF82570DD
:101780000135DDE70848A200002106F054FC484678
:10179000BDE8F88FD0020020F88D0000408F0000D7
:1017A000E08D00000A00002068000020208D00006D
:1017B0000800002007B5019001A8FFF78DFF30B9A0
:1017C000019A044B53F8320003B05DF804FB00208B
:1017D000FAE700BF208D0000094B013903EBC00080
:1017E000032909D8DFE801F00A0204060420704743
:1017F0000079704740797047002070470220704799
:10180000208D000070470000034BD3E90130C31A5C
:1018100058425841704700BFD00200202DE9F043E4
:1018200085B0FFF7F1FF0546002840F00A81864C9D
:10183000C4F81804BFF34F8FA3680093DBB20333DF
:1018400004EB83006946FFF79BFE009B18B1D4F8B8
:101850001824002A63D0DAB2991C013304EB820207
:10186000DBB204EB8303D268DB68029302F003036C
:10187000022B019200915DD1BDF8063073489DF8AE
:101880000450C3F389184746502F28BF502707F14B
:10189000080167F38F13C1F30901ADF8063003F0B7
:1018A0003EFAC5F3C2050646002800F0B18003F0F9
:1018B00065FA0023082201A9304603F071FA009965
:1018C000CB43DBB20133C9B20331B7EB830F4FEA2D
:1018D000830204EB81012AD95FFA82F90823A7EB7E
:1018E0000907304603F05CFAFFB209F108035849D2
:1018F00003F0FC033A46304603F052FA009B08F12D
:10190000030803EB98030093D4F81834002B49D153
:10191000D4F81074DFF84C914FF0070867E0626864
:101920009A428BD8A260284605B0BDE8F083082310
:101930003A46E0E7012B6BD1BDF804504348C5F3AC
:101940008311062928BF062161F38915023101F0B0
:101950000F018900ADF8045003F0E1F9C5F3C205A9
:101960000646002854D003F009FA0023082201A9F2
:10197000304603F015FA0027BDF80420C2F38312A5
:10198000BB00974203F10803BED200994A1CC9B2BA
:101990000331009204EB81010422304603F000FA87
:1019A0000137E9E7304603F0EDF9FFF72DFF80F04E
:1019B0000100C5B2B7E7FB685A79B2B11B79BDF82F
:1019C000081003EB430259F8211008FA02F3052D21
:1019D00003EA010323FA02F308BF0325AB4204D351
:1019E0003B6831461B6838469847FB681F68002FE4
:1019F000E1D1304603F0C6F9384602F02FFCD4F8A6
:101A000018340BB9009BA360002002F029FCCCE73E
:101A1000D4F8104474B90F4B5B88012BC5D90E4B19
:101A20000E480F49C01AC008000440F0020000F040
:101A300063F8BAE7236820469B689847E3681C6808
:101A4000E8E700256FE700BFD0020020F88D000016
:101A5000DC02002020000020208D0000508D0000BE
:101A6000158F0000680000202DE9F34704460E465C
:101A7000924601A9012218469946FFF79FFD1C4F87
:101A800010B3019D4FF00008AA1CC84508EB0201E5
:101A900025D11848002102F077FE80F310000004E1
:101AA00040EA1440E4006B1C04F03804DBB2EDB2F1
:101AB00044F0010407EB8303033544EA881444EA45
:101AC0008624D86047F825403B781BB1FFF7A6FE77
:101AD0000028FBD1FFF796FE02B0BDE8F087C9B23F
:101AE00007EB81015AF82830CB6008F10108CCE7F8
:101AF000D0020020EC06002000231A46FFF7B4BFF6
:101B000007B50123019201AAFFF7AEFF03B05DF80C
:101B100004FB07B5CDE9002302236A46FFF7A4FFC3
:101B200003B05DF804FB1FB5CDE90123069B0393C9
:101B300001AA0323FFF798FF05B05DF804FB1FB56A
:101B4000CDE90023069B0293079B03936A46042377
:101B5000FFF78AFF05B05DF804FB000038B5084BBD
:101B60000125D3F810441D7004B938BDE3685D71D8
:101B7000236820465B689847E3681C68F4E700BF69
:101B8000D002002030B5C38885B004460D4633B17D
:101B9000144A00921449154A284602F09BFE217A05
:101BA00005291DD0637A4BB1A088FFF715FE104BB5
:101BB000104953F82020284602F08CFE227A0E4B62
:101BC000A08853F8222003920021FFF7F3FD039A27
:101BD0000A490346284605B0BDE8304002F07ABE07
:101BE00005B030BD6C8F0000548F00004C8F00009A
:101BF000D88F0000718F0000FC8F0000748F0000F0
:101C000007B503460846197A052911D05B7A2BB12E
:101C1000094A0A49019002F05DFE019808490190C5
:101C200002F058FE019803B05DF804EB02F047BEE5
:101C3000002AF8D0F2E700BF6C8F0000718F00001F
:101C4000698F00002DE9F04385B01F460C9D0023ED
:101C500095F80C902B7306460C469046294638465C
:101C6000FFF790FFB8F1060F09D8DFE808F004127B
:101C7000181F283340003146284602F02BFE002270
:101C800029463846FFF7BCFF85F80C9005B0BDE843
:101C9000F08322683146284602F01CFEEFE7D4E9C3
:101CA00000233146284602F015FEE8E7A3680093BA
:101CB0003146D4E90023284602F00CFEDFE7E36852
:101CC0000193A36800933146D4E90023284602F02B
:101CD00001FED4E723690293E3680193A3680093AC
:101CE0003146D4E90023284602F0F4FDC7E76369D2
:101CF000039323690293E3680193A3680093314639
:101D0000D4E90023284602F0E5FDB8E708292DE9CB
:101D1000F74F80460E4617461C463DD800251B7BD4
:101D20002573214610460193FFF72CFFDFF88CA0A6
:101D3000DFF88CB0AE4232D918F80520594620465B
:101D400002F0C8FD0135082DF4D11B49DFF874A05D
:101D5000DFF874B0204602F0BDFD4FF000094E459B
:101D600024D918F809507E2D1ED8284606F0BAF856
:101D7000002814BF2A462E225946204602F0AAFD0A
:101D800009F10109B9F1080FE9D1012221463846CC
:101D9000FFF736FF019B237303B0BDE8F08F514678
:101DA000204602F097FDCDE72E22E5E7514620467A
:101DB00002F090FDE4E700BF888F0000848F0000F0
:101DC0007E8F0000868F0000759A0000074B1B5C19
:101DD0001F2B8ABF064A4FF0A04203F01F03D2F820
:101DE0000405D840C04300F0010070471090000087
:101DF00000030050074B1B5C1F2B86BF064903F0F6
:101E00001F034FF0A041012202FA03F3C1F80C3581
:101E1000704700BF1090000000030050074B1B5C90
:101E20001F2B86BF064903F01F034FF0A04101227C
:101E300002FA03F3C1F80835704700BF10900000A4
:101E40000003005008B50020FFF7E8FF0120FFF76E
:101E5000E5FF0220FFF7E2FFBDE808400320FFF79F
:101E6000DDBF08B50020FFF7C5FF0120FFF7C2FF67
:101E70000220FFF7BFFFBDE808400320FFF7BABF0D
:101E80000A4B185C1F288ABF094B4FF0A04300F093
:101E90001F00D3F804250121814021EA02000A40F5
:101EA000C3F80805C3F80C25704700BF1090000068
:101EB00000030050263818BF4FF0FF307047000075
:101EC000C10710B5044642D54FF08043D3F84036E1
:101ED000DA072ED54FF01023D3F8043303F00703AD
:101EE000072B26D11D4A0123C2F80435D2F800344D
:101EF000002BFBD04FF01021D1F8043323F007035F
:101F000043F00403C1F804330023C2F80435134A34
:101F1000D2F80034002BFBD0BFF34F8F1049114B88
:101F2000CA6802F4E0621343CB60BFF34F8F00BF77
:101F3000FDE74FF0A0420C490323C2F81837C2F85E
:101F40002037C1F82437C2F83037FFF77BFFA307EB
:101F500042BF054B0C22C3F8182710BD00E001401A
:101F600000ED00E00400FA0500030050C30710B5BF
:101F700007D4F023054A4008145C23401943115448
:101F800010BD0901C9B20F23F4E700BF9807002074
:101F900030B5094B1C78094B196800239C4202DCC0
:101FA0000022104630BD11F83350854201EBC302C8
:101FB000F7D00133F2E700BF88070020B807002000
:101FC00013B504460191FFF7E3FF38B143682BB125
:101FD0000199204602B0BDE81040184702B010BD7C
:101FE000034B044819680022490800F04DBA00BFAD
:101FF0008C070020E800002010B5C0B2FFF7C8FF32
:102000000446007803F032FA63785A1E5342534173
:10201000834208D1044BD3E90023134303D1BDE825
:102020001040FFF7DDBF10BD9007002038B5334AE0
:1020300043080446D35CC2074CBF1B0903F00F03DF
:102040000D46042B59D8DFE803F003222A36390065
:10205000002952D00121FFF789FF002002F0FEF88D
:102060000120A4F12003C4F12001254A20FA01F146
:1020700000FA03F30B43A040D2E9004120430B4395
:10208000C2E90003BDE83840002002F0E9B80029A9
:1020900018BF02212046BDE83840FFF767BF41B1B5
:1020A0000321FFF763FF20460121BDE83840FFF719
:1020B00087BF0121EEE701BB0421EBE709B1032152
:1020C000E8E7FFF753FF29462046FFF779FF284648
:1020D00002F0C4F80120A4F12003C4F12001084A51
:1020E00020FA01F100FA03F30B43A040D2E90041CA
:1020F00024EA000021EA0303C2E738BD9807002064
:10210000900700202DE9F041124E134F0024337840
:10211000A34208DC114BD3E90023134318D0BDE8D8
:10212000F041FFF75DBF3D6805EBC40815F83400CA
:1021300003F09CF998F801305A1E53425341181A83
:102140004142414115F83400FFF770FF0134DEE7EA
:10215000BDE8F08188070020B80700209007002024
:10216000092AF7B505460C4616463ED903F0A6F8EF
:10217000E8B11F4B1F481D601F4B204F1C70204BA8
:10218000002120221E6005F056FF1E4B002000217A
:10219000C3E90001013CE4B20326FF2C0DD11A4A29
:1021A0001A48002103B0BDE8F04000F05BB903F02D
:1021B00041F80028DDD003B0F0BD9DF8063015F8D9
:1021C00034008DF8046005EBC40223F007038DF89A
:1021D000063001A993788DF805303A4603F078F877
:1021E000013CE4B20028D8D0E5E70720E3E700BFD0
:1021F000B80700209807002088070020F91F00007A
:102200008C0700209007002005210000449000006A
:1022100070B5084D084E00242B789C4201D3002055
:1022200070BD3368012113F8340003F0D1F8013494
:10223000F2E700BF88070020B80700201FB5002183
:10224000039001AA44F20100CDE9011100F004F865
:1022500005B05DF804FB000010B572B6FFF77EFC18
:10226000FFF7DCFA0028FBD1164C63884BB1164807
:10227000164B1749C01AC008000440F00100FFF7D0
:102280003BFC144BD3F8F030DB0700D500BE63886D
:10229000012B09D90C480D4B0F49C01AC008000486
:1022A00040F00200FFF728FCBFF34F8F09490B4BAA
:1022B000CA6802F4E0621343CB60BFF34F8F00BFE4
:1022C000FDE700BF20000020508D0000208D0000A1
:1022D0004890000000ED00E0549000000400FA0572
:1022E00010B5D0E90243D1E90202A04272EB030328
:1022F0002CBF0120002010BD08B50A4802F0DDF80F
:10230000094AD2E90031C018084BD3E9002341F152
:102310000001904271EB030303D210F1807041F190
:10232000000108BD1C010020C00700202808002073
:1023300037B505460C460A4801A902F0B0F960B16C
:102340000570446001A9064802F0D3F918B10548A8
:1023500002F0B8F8002003B030BD0420FBE700BF56
:10236000080100201C010020234B70B51E78044694
:1023700016B90026304670BD0028FAD0FFF7BCFF22
:10238000D4E90223904299412FD3002001F066FF47
:1023900023692BB94FF0FF324FF0FF33C4E902231A
:1023A000002001F05DFFD4E905309847002001F0DE
:1023B00055FF25696DB1D4E90212B2F1FF3F08BFA4
:1023C000B1F1FF3F0FD0691842F10002C4E90212D7
:1023D0003546002001F044FF002DCAD007482146B1
:1023E00002F0FBFCC6E70025F3E7B3F1FF3F08BFAF
:1023F000B2F1FF3FBDD0F1E7C80700208490000094
:1024000013B5114B11491868019008231048582240
:1024100002F032F9044698B90E4A0F4801A901F0BA
:102420002FFF044660B90C48012102F029F801236E
:102430000A4A0948194601F08BFF094B01221A701C
:10244000204602B010BD00BF7E900000CC070020E7
:10245000080100202D2500001C010020FFFF7F0047
:10246000C807002030B56AB103684FF0FF344FF061
:10247000FF355A614A1E5142C3E902455141196173
:10248000002030BD0720FCE7F8B5044600201746C1
:102490000D4601F0E3FED4E90223B3F1FF3F08BF8C
:1024A000B2F1FF3F15D1FFF727FF281841F10001D6
:1024B000C4E902010126002001F0D2FE5EB12369C9
:1024C000A76103B1256121460020BDE8F840FFF770
:1024D0002FBF0026EFE73046F8BD38B50446002090
:1024E00001F0BCFED4E90223B3F1FF3F08BFB2F113
:1024F000FF3F1FBF4FF0FF324FF0FF33C4E902230D
:10250000012508BF0025002001F0AAFE2DB12146BB
:102510000120BDE83840FFF70BBF284638BD00005A
:10252000014801F0CABF00BF1C0100202DE9F7439C
:10253000064601F0ADFF40B1624AD2E9003113F125
:10254000807341F10001C2E900310021304601F001
:10255000AEFF38B15C4C236823B12068FFF704FF5D
:10256000002323600121304601F0A1FF20B1FFF7D5
:10257000C3FE564BC3E900015548534C01A902F074
:10258000C8F84FF0FF384FF0FF39A0B9DFF84481A9
:102590004D4D404602F037FC002800F08580D0E920
:1025A0000223B3F1FF3F08BFB2F1FF3F32D14046F3
:1025B00002F023FCEDE70378012B20D0022B08D199
:1025C000444D284602F019FC002877D0C0E9028962
:1025D000F7E75BB94168D1E90223B3F1FF3F08BFD8
:1025E000B2F1FF3F02D03B4802F0F7FB01A93848A7
:1025F00002F0BAF801A9364802F08BF8C5E7416845
:102600002368994202D100232360EFE7314802F0AA
:10261000FDFBEBE7296891B12968D1E9020182420B
:102620008B412FD22B68D3E90223B3F1FF3F08BFC0
:10263000B2F1FF3F03D02968404602F0CEFB40468E
:1026400002F0DBFBD0E902490746FFF755FE201AEE
:1026500069EB0109012879F1000318DBB0F5350FAA
:1026600013D3FFF75DFF1C4A02441C484FF4960346
:10267000002101F08DFE90B92B6813B9304601F0AE
:102680005FFE2F6003B0BDE8F0832246EDE71348FC
:10269000002101F002FF3846FFF766FE01E00D2839
:1026A000F9D000232B6074E7074B1B68002BE9D19E
:1026B000304603B0BDE8F04301F046BE084B0122AE
:1026C0001A7093E7C0070020300800202808002077
:1026D0000801002084900000FFFFB4001C010020CE
:1026E000C807002043681B6818470000024B5B685E
:1026F00003B11847704700BF38080020020600F0F9
:102700000F034CBF02480348DB001844704700BF6A
:10271000440800208C08002008B5FFF7EFFF016097
:1027200009B14B681968416008BD0000024B0146C1
:10273000D3E90002104700BF8C08002038B5831E83
:10274000DBB2062B98BF1A4A1A4D98BFD25C2B7881
:10275000A3F10203DBB288BF0022062B9ABF144903
:10276000CB5C00239342044603D0B2B1124802F07E
:10277000CDFB022C14D0A4F10800424242412B7838
:10278000022B0FD0A3F108014B424B41934202D0E0
:1027900052B104F0C9F92C7038BD02F0E1FBE8E752
:1027A0000122ECE70123F1E704F0B4F9F3E700BFFD
:1027B000AE900000F4090020240100200378052BCE
:1027C00037B504460BD12B4AD2F88434D2F8802492
:1027D000D2B222B9284ADBB2052B08BF14462378AF
:1027E00013BB264B1D68C5B92846254D01F036FDA3
:1027F0002B6813B9234B62881A800121204801F00D
:10280000E6FF002001F02CFD1F4B1B6813B10121D6
:10281000204698472B6803B030BD2B6860889B68C2
:1028200098472B685D68DEE7184801A901F037FF7B
:1028300005460028EFD023680360002001F00EFD5C
:10284000104B0F481B88026801339B1AEB80002154
:1028500001F09AFFA880002001F002FD01A90B48B9
:1028600001F047FF084B1B680146002BD3D02046E0
:102870009847D0E700700240B6900000E8090020B9
:10288000F0090020D4080020380800202C01002086
:10289000FFF794BF0148FFF791BF00BFBA90000057
:1028A0002DE9F04F87B000260546884691461F4621
:1028B00002966B6800225C682946012302A8A047A3
:1028C000044638B98DF8060004908246564503D870
:1028D000052028E00136ECE76B680DF10602D3F81D
:1028E00004B02946012304A8D8476B680DF10702FC
:1028F000D3F804B02946012304A8D8479DF807302F
:1029000043459DF8063013D14C450FD1109A136002
:102910003B7087F801806A68023B54682946BA1CFC
:1029200004A8A047002007B0BDE8F08F0134E4B24E
:102930006A68023BD2F804B02946002204A8D847AE
:102940009DF806309A44C1E72DE9F7430823054670
:102950002D492E484FF4847201F08EFE002851D18B
:102960002B4804F0F7F80446002847D1294B18708B
:10297000294B1860294B014618604822284805F069
:102980005AFB28484822214605F055FB264B8DB9B5
:10299000C3E900551D72002002F0F6FA18B185282F
:1029A00001D0FFF74BFC214F002697F8089007F164
:1029B000090810E095E8070083E80700EBE7A37833
:1029C00023443946985CFFF7A7FE01356378EAB2E5
:1029D0009342F4D80136F4B2A14504D904EB44047F
:1029E00044440025F2E70B2310488DF8043001A978
:1029F000FFF778FE044608B103F08AFF204603B0D3
:102A0000BDE8F0830324F9E7D60800202C0100205C
:102A100091280000F4090020E0090020E4090020CA
:102A2000440800208C08002038080020EC900000AA
:102A300003F078BF04F094BB4FF08043D3F8382400
:102A4000920702D50348FFF7B9BED3F83824D1075F
:102A5000F4D47047BF90000007B5822301A88DF819
:102A60000430FFF7ABFE03B05DF804FB2DE9F7433C
:102A700000F1090190F80890054600270E46FBB2C8
:102A80004B452AD291F801800024E3B298450AD937
:102A90008B780A190134D05CFFF730FE0368002BF5
:102AA000F3D0112028E001370331E8E7A27823446E
:102AB0002946985CFFF730FE01376278FBB29A42F4
:102AC000F4D808F101082B7A5FFA88F4A34216D9EA
:102AD00004EB440434440027EFE74FF00008F2E72A
:102AE00013681A68002AFBD11D6001A90B23284630
:102AF0008DF80430FFF7F6FD03B0BDE8F083014B1D
:102B0000EFE700BFE0090020024B1878003818BF3B
:102B100001207047EC090020030710B5044604D4D7
:102B200004F034F9204604F0E1FB2046BDE81040F3
:102B300004F088BB04F054BB014B1868704700BF19
:102B4000E0090020F0B50A4B0246186878B1057A12
:102B50000023861DDCB2A54201D80368F5E70133E6
:102B600003EB4307F75D9742F4D101B10C70F0BD60
:102B7000E00900201146FFF7B5BD08B500F00F03CE
:102B8000082B07D8FFF7BAFD006818B1BDE8084068
:102B9000FFF7A8BD102008BD38B5054B05461C68D9
:102BA00004B938BD29462046FFF79CFD2368F6E7A7
:102BB000E009002038B5074B05461C680CB9062013
:102BC00038BD29462046FFF78DFD0628F8D1236839
:102BD000F3E700BFE009002013B50446019103F0BC
:102BE000FFFF50B1064B1B78022B06D101992046FE
:102BF00002B0BDE8104004F003B8082002B010BDD8
:102C0000F409002013B50446019103F0E9FF50B127
:102C1000064B1B78022B06D10199204602B0BDE875
:102C2000104004F061B8082002B010BDF409002083
:102C3000F8B543689B6805460C46164613B92EB195
:102C4000072002E098470628F9D0F8BD2B7AA34266
:102C500013D9093504EB44042C446778F3B29F423E
:102C600001D80020F1E762789A4208D9A219A37826
:102C7000D05CFFF751FF0136F0E77378FFDE0023E9
:102C80001B78FBE74368DB6870B505460C4603B16B
:102C900098472B7AA34213D9093504EB44042C44FA
:102CA00000256678EBB29E4200D870BD62789A42E9
:102CB00009D96219A378D05C04F092FA0135F1E7E2
:102CC00000235B78FFDE00231B78FBE743681B696A
:102CD00003B118471846704770B5084B1C6804B913
:102CE00070BD267A0025E9B28E4201D82368F5E747
:102CF00000222046FFF79CFF0135F4E7E0090020A1
:102D000070B5084B1C6804B970BD267A0025E9B27D
:102D10008E4201D82368F5E72046FFF7B3FF01355F
:102D2000F5E700BFE009002038B503780F2B044613
:102D300010D9A3F1800283F08003052B00D938BDA0
:102D4000052AFCD8DFE812F067002C004900730068
:102D50007E00E0000F2BF2D801A252F823F000BF52
:102D6000672E0000972E0000F72E0000BB2E0000FB
:102D7000D92E0000092F00001B2F00003F2D00005E
:102D8000452F0000492F00004D2F00003F2D00006F
:102D90003F2D00003F2D00003F2D0000132F0000AD
:102DA0006B48FFF7C3FC6A48FFF7F6FE0D20FFF7FC
:102DB0009DFCFFF7A5FF00F06AFF664B1B6853B947
:102DC000654B187A00F0010003F044FE0120BDE8D5
:102DD0003840FFF7B3BC0120F4E7FFF791FF04F0A0
:102DE0009DF90020FFF7AAFC5C48FFF7D5FE5B4881
:102DF000FFF79CFC0E20FFF779FC594B1B78023B38
:102E0000DBB2062B9BD8574AD35C002B97D0BDE88A
:102E1000384002F0A5B8524B1B78062B05D003F0C2
:102E2000FD03052B8BD10220D1E70820CFE74C4BC7
:102E30001B78032B83D104F0ADF900283FF47FAF5A
:102E40000420C4E7464B1B78032B05D104F0A2F9FC
:102E500010B10420FFF772FC03F02AFE00283FF4B3
:102E60006EAF0620B3E73E4B1B78032B01D0082B37
:102E700002D13D48FFF758FF0020FFF737FC354BE4
:102E80001D68002D3FF45BAF28462146FFF72AFC62
:102E90002B685D68F5E7FFF733FF00F0EFFE0220D7
:102EA000FFF74CFC0120FFF721FC2046FFF73EFC1A
:102EB0002046BDE83840FFF76FBE294B1B78082B32
:102EC00006D10220FFF73AFC03F038FE0320EAE7C0
:102ED0000520FFF733FCF9E70320FFF707FC234841
:102EE000FFF724FC2148FFF757FE1D4B1B78062BEC
:102EF00099D107206BE70320FFF720FC0220FFF7A2
:102F0000F5FB2046FFF748FE2046BDE83840FFF7B6
:102F10000DBC0F20FFF7EAFBCAE78078FFF7EEFB56
:102F2000214643680068984700283FF408AFA0781E
:102F300002073FF404AF03073FF501AFBDE8384097
:102F400003F016BF0820E5E70920E3E70A20E1E7E0
:102F5000BE900000E409002038080020BD90000069
:102F6000F4090020AE900000BC900000BB9000006F
:102F700073B5224E00230193336823B920492148B9
:102F800001F0C7FB30603468ECB1A58885B1E388F7
:102F9000B3F5006F24BF0023E380E388ADF806306B
:102FA0005A1C013DE280A58001A8FFF7BDFE07E0A5
:102FB0002046FFF7B9FE1249124801F0D5FB3560F3
:102FC000012002B070BD104B18680028F9D02046CF
:102FD00001F044F90D4B0C481A88B2F5006F28BF78
:102FE0001C801A88ADF80620511C1980012101F0BF
:102FF00006FC002001F034F9D6E700BFF8090020F4
:10300000340800202C010020F0090020D408002002
:10301000C36903B11847704703680022C3E91E2241
:10302000C3E920221A845A62DA6203F134025A6731
:103030007047CA699A4210B543600CD38C6904602A
:10304000086F18440867D01A1C44C86100388C61A6
:1030500018BF012010BD01F1280202608B6700201B
:10306000F8E758B90B681A7B202A09D1D3F80E204B
:103070009A615A8A9A831A7D9A777047032070471B
:1030800006207047F0B504680D7A002C00F08780A8
:10309000A4F213347C2C00F222837C2C00F21F83D8
:1030A000DFE814F085008F009D00A900B500C10085
:1030B000CD00D9001D031D031D031D031D031D03AA
:1030C000EF00FB001D031D031D031D031801240158
:1030D00032011D031D031D03450151017F011D0325
:1030E0001D031D031D03670173017F011D031D03E4
:1030F0001D031D031D031D038B011D031D031D0364
:103100001D039F01AB01B701C301CF011D031D03C7
:10311000DB01E701F301FF010B021D031D031C028C
:103120002802340240021D031D034C0258026402AF
:1031300070027C021D031D031D031D031D031D03DF
:103140001D031D031D031D031D031D031D031D037F
:103150001D031D031D031D031D039B02A7021D0369
:103160001D031D03C0021D031D031D031D03DD02FE
:103170001D031D031D031D03DD021D031D031D0390
:103180001D031D031D03E902F5021D031D031D039D
:103190001D0313031D031D031D031D031303082437
:1031A000047123B940F2133303600120F0BD0AB16A
:1031B000047914700B24012B04710ED84FF445735D
:1031C000F2E700240AB10679165501340E7D067126
:1031D0009C4205D340F21533E6E70124F2E70024D0
:1031E0000AB106791655013402269C42067103D3B2
:1031F00040F21633D8E700240AB106791655013497
:1032000002269C42067103D340F21733CCE7002418
:103210000AB106791655013402269C42067103D381
:103220004FF44673C0E700240AB1067916550134FD
:103230004E7E06719C4203D340F21933B4E700245A
:103240000AB106791655013400269C42067103D353
:1032500040F21A33A8E700240AB1067916559D4EAC
:103260000027013437709B4E3678AE4202D340F2CD
:103270009A3399E70926A342067103D840F2213315
:1032800092E700240AB106791655013404269C42BF
:10329000067103D340F2223386E700240AB106798F
:1032A00016558C4E0F7A3678DFF82CC2B74204F1EF
:1032B000010440F2188201F1090706EB460607EB0C
:1032C000060E9C42BE5DCCF800E0067103D340F2CE
:1032D000273369E700240AB1067916550134002620
:1032E0009C42067103D34FF44A735DE700240AB190
:1032F00006791655784E36680134767806719C4208
:1033000003D340F229334FE700240AB1067916555A
:10331000714E0F7D36683678B74204F101041ED134
:1033200002269C42067103D340F22D333CE7002471
:103330000AB106791655013402269C42067103D360
:1033400040F22E3330E700240AB1067916550134D5
:103350004E7E06719C4225D340F22F3324E78F7DA9
:10336000B74223D10A269C42067103D34FF44D7312
:103370001AE700240AB106791655013400269C424A
:10338000067103D340F235330EE700240AB1067903
:103390001655013400269C42067103D340F23633A1
:1033A00002E700240AB10679165501340026A3422B
:1033B000067103D840F23D33F6E600240AB10679DF
:1033C0001655454E0F7D36683678B74204F1010434
:1033D00040F0E98005269C42067103D340F2423357
:1033E000E2E600240AB106791655013424269C42EF
:1033F000067103D340F24333D6E600240AB10679BE
:103400001655013400269C42067103D34FF45173C4
:10341000CAE600240AB106791655013410269C42EA
:10342000067103D340F24533BEE600240AB10679A3
:103430001655013401269C42067103D340F24633EF
:10344000B2E600240AB106791655013405269C42DD
:10345000067103D340F24933A6E600240AB1067987
:103460001655013424269C42067103D340F24A3398
:103470009AE600240AB106791655013401269C42C9
:10348000067103D340F24B338EE600240AB106796D
:103490001655013403269C42067103D34FF453732F
:1034A00082E600240AB10679165501348E7D067134
:1034B0009C4203D340F24D3376E600240AB10679EC
:1034C0001655013404269C42067108D34FF45473F8
:1034D0006AE600BFFD090020000A002000240AB1AE
:1034E00006791655013424269C42067103D340F216
:1034F000513359E600240AB10679165501340226E3
:103500009C42067103D340F252334DE600240AB1C7
:1035100006791655013402269C42067103D340F207
:10352000533341E600240AB10679165501340526C5
:103530009C42067103D340F2563335E600240AB1AB
:1035400006791655013424269C42067103D340F2B5
:10355000573329E600240AB10679165501340626A8
:103560009C42067103D34FF456731DE600240AB142
:103570000679165501340E7D06719C4203D340F244
:10358000593311E600240AB10679165501348E7DAF
:1035900006719C4203D340F25A3305E600240AB177
:1035A000067916550134534E36687778524E377087
:1035B000524E00273770514E37784F4E3678B7420B
:1035C00004D34F4F3E7801363E704CE60726A342A7
:1035D000067103D840F26E33E6E500240AB106799D
:1035E0001655013405269C42067103D340F26F3311
:1035F000DAE500240AB1067916553E4E3F4F36688B
:103600003F7896F801C0BC4504F1010470D996F8E2
:1036100002C03E449C4216F80C60067103D340F28F
:103620007333C1E500240AB106791655314E0F7D7A
:1036300036683678B74204F1010406D103269C426D
:1036400006710DD34FF45E73AEE58F7DB7420BD19B
:1036500002269C42067103D340F27D33A4E5002488
:103660000AB10679165501344026A342067103D8E3
:103670004FF4617398E500240AB1067916550134B8
:1036800000269C42067103D340F285338CE500246A
:103690000AB106791655174E0F7D36683678B7424F
:1036A00004F1010407D10E6A9C42367806710DD3ED
:1036B00040F28A3378E58F7DB7420BD100269C42D9
:1036C000067103D340F28F336EE500240AB1067908
:1036D00016550134094F3E7801363E706BE70023E2
:1036E0000360184662E50023CCF800301B78FFDE4B
:1036F0000023FBE7000A0020FC090020FE0900204F
:10370000FD090020037A012B08D9427B012A00F130
:103710000C0306D9827B13445878704700235B78EA
:10372000FFDE00231B78FBE72DE9F0470B7888B01C
:1037300005460E460E2B1AD8DFE813F060003B0159
:103740006000600019000F00A60019001900380180
:10375000190060006000600060004A78D1094FEAFB
:10376000521335D013F0030303D0012B21D00624CC
:103770001BE002F01F02012AF9D1B478062CF6D121
:1037800005A8039300F0EAFC03AB0093F2783179CB
:10379000034607462846FFF783F8052805D0039A15
:1037A0003946701C00F08EFA0446204608B0BDE889
:1037B000F087B378212BDAD1B6F80720072AD6D1C3
:1037C0000168701C183108B0BDE8F04700F07ABA03
:1037D000012BCCD1B3780768202B11D0222BC6D176
:1037E000B6F80730002BC2D13A8CB6F803303B84D0
:1037F00002F0010203F001018A4220D10024D4E743
:10380000B6F80730072BB2D14FF4E462BA8100203A
:103810000E37CDE90573079000F020FD05A90020C3
:10382000FFF7DAF9044630B9684B03A9CDE903354F
:1038300000F036FA0446002000F012FDB5E78CB225
:10384000C1F10301C9B2FFF7E3FB002CD6D12B7AFB
:10385000012B40F2B4806B7B05F10C02002B00F0D1
:10386000B080AB7BD05C03F0AFFB2846FFF74AFF8C
:1038700003F0AAFB07F13403C7E91E44C7E920445B
:103880007C62FC627B6790E7037A002B00F09B80F0
:10389000837A00F10901002B00F09380C27AB3789B
:1038A0008A5C9A42AAD01B06F77809D527B1032F64
:1038B00014BF0324002478E70121FFF7A9FB9DE74B
:1038C00007F0FD03012B99D0002F76D10668FFF792
:1038D00019FF3F4BB46A059306F10C03814606932A
:1038E000C4B9F36FB467C6E91F43F36A63B1D6E99D
:1038F0000B0106F1240383E80300F46205A948469E
:10390000FFF780F9044600E0746200212846FFF7C3
:103910007FFB4AE7D6F884A0706A544528BF544616
:1039200006F134082246414604F05CFBF36F234461
:10393000C6E91F73AAEB0403B367F36A44447467D0
:103940002BB306F1240406F12C0898E8030084E860
:103950000300B36F706AF7621BB9736A002BCDD195
:1039600016E0B26A716F9A4214D804F03BFBB36A56
:10397000B26FC6F88030D21AB267726F1A4472679B
:1039800000212846FFF744FBF36A002BDDD1736268
:103990000024BAE71A4604F025FBB26FB36AF26757
:1039A0009B1AB362736A13447362D6E70321FFF76D
:1039B0002FFB2846FFF730FB20E70324F5E663786A
:1039C000FFDE1B78FCE75B78FAE700BF633000009E
:1039D000333000001FB503681B8CDC0714D5037A55
:1039E000012B13D9437B00F10C0493B1837BE05C82
:1039F0009306CDE901120CBF0123002301A9039313
:103A0000FFF7EAF804B010BD0820FBE700235B785D
:103A1000FFDE1B78FCE70368D3F88000704703687B
:103A2000986F7047F7B50468238CDB070F4616467E
:103A30003BD5656A002D32D1A16F91420ED3616FE3
:103A4000384604F0CFFAA36FC4F880609B1BA367CD
:103A5000636F33446367284603B0F0BDC4E909725D
:103A6000FFF750FE134B009304F10C03064601933D
:103A700069B10A463846616F04F0B4FAA36FA26ACE
:103A8000D21AA262626AC4E91E531A44626269468B
:103A90003046FFF7B7F8002808BF9220DCE7E36A5A
:103AA0002BB9C4E90B129220D6E70820D4E71120E5
:103AB000D2E700BF33300000F0B506680C4685B091
:103AC00005460020174600F0C9FB202C35D8032CF2
:103AD00029D8631E012B2ED8718CA4B2002F2FD0B1
:103AE0000C4342F2A103F38102220023B2827484C8
:103AF00033827382F482297A2A6821B3A97A05F184
:103B0000090411B3E87A0E32205C019201A90A225D
:103B1000CDE90223FFF760F80446002000F0A0FB87
:103B2000204605B0F0BD221FD3B201229A40084BB7
:103B30001340002BD0D10624EFE7402CFBD1CBE77C
:103B400021EA0404CDE74B78FFDE0B78FCE700BFE9
:103B500011100010002070472DE9F04F2DED028B61
:103B60004B6885B080460C4601926BB90B681B68A8
:103B70001B684BB98D683DB9C0E90055284605B0B2
:103B8000BDEC028BBDE8F08F03F0EEF8019BE76817
:103B90009F4228BF1F4604F110034FF0000A08EEB1
:103BA000103A8146564601254FB3A3686168BB426F
:103BB0009B4628BFBB4629B35A4609EB060004F0D2
:103BC00011FA00236360A268E368A2EB0B02A3EB87
:103BD0000B03A260E360A7EB0B075E440ABBBAF1DC
:103BE000000F03D02268126812682260DBB12368DC
:103BF000DBB963601EB1019BB34288BF0025C8E9F1
:103C00000096BBE7002BDED021684B6818EE100A47
:103C1000D3F804A009EB06025B46D0474FF0010A37
:103C2000D1E7002BC0D10025BEE700230293216815
:103C30004B680022D3F804B002A80123D84708B982
:103C40002061B1E7A3680133A360F0E7084B1A785D
:103C500082420CD0052818BF064A187018BF137886
:103C600005481CBF23F002031370FFF75DB87047CF
:103C7000100A00202C0A0020FC90000008B500204B
:103C8000FEF74AFFBDE808408020FEF745BF08B5B3
:103C90000020FEF74FFFBDE808408020FEF74ABF36
:103CA00038B505460C4603F0EDF8A84205BFD4E947
:103CB0000001034B1020C3E9000108BF002038BDFC
:103CC000300A00207FB5C38893421E4628BF16469F
:103CD00093420D46144620D9802002F07BFFB4FBAE
:103CE000F0F202FB1044B4FA84F464090020039457
:103CF000CDE9015600F0B2FA01A98020FEF76CFF71
:103D0000044620B906498020FFF7CAFF0446002078
:103D100000F0A6FA204604B070BD0024E6E700BF1C
:103D2000309100002DE9F04F0B780E2B89B00D4635
:103D300013D8A3B1013B0D2B11D8DFE813F012000B
:103D40001A00160010002A00EE01100010001000EA
:103D500010001A00D801DC01EC01852B13D00624D9
:103D6000D5E10320FFF772FFF9E7A54800F058FD01
:103D700008B90024CBE1A34B0122DA65BFF36F8FB2
:103D8000BFF34F8FF5E7A04B1B78032BE7D104203F
:103D9000E8E705230DF115008DF8143003F006F85F
:103DA0009DF81520994D002302F01F072B60032F6B
:103DB00000F25681DFE817F00400EE004B013600F8
:103DC00012F0600FC2F341182CD1D2099DF81630C1
:103DD00000F09A80062B0ED0082B00F087800BBBDA
:103DE0008B4A13808B4B1B78990744BF02231370B7
:103DF000022287490EE09DF81830022B16D0032BC3
:103E000064D0012B0ED1BDF81B30002B00F06C816B
:103E1000814912220DF11500FFF754FF0446062CCC
:103E200040F0268105A8FEF7C5FE0EE1BDF81B6037
:103E3000002E00F05981092E28BF0926FEF77CFECE
:103E40004FF00909044654BB714C74493246204670
:103E500004F0C8F82771A4F80290FEF755FE18B1D7
:103E6000E37943F02003E371FEF766FE6C4BC3E990
:103E700000049E60BDF81B20DA60002000F0EEF91F
:103E800068498020FEF7BEFE044620B966498020BE
:103E9000FFF706FF0446002000F0E2F9BFE7CDF887
:103EA0000C804FF0000A63680022D3F804B021466A
:103EB000012303A8D84730B9237A1F442368D1448B
:103EC0001C68FFB2BFE70AF1010AECE7BDF81B303E
:103ED000002B00F00981BDF819109DF8170000F0C3
:103EE0008DF9014600289DD0027893E7464B1B7858
:103EF000052B03D1464B1A7001227AE7042B91D18E
:103F0000434B83F80080F7E7032B0FD0092B2BD00E
:103F1000012B87D1BDF81730012B83D1FEF7F4FDBB
:103F200060B13C4A137823F002030FE0BDF817306C
:103F3000012B7FF477AFFEF7E7FD18B90F2402F0ED
:103F400097FFE4E0334A137843F0020313702B68C1
:103F5000002B00F0C98002F095FF044600287FF492
:103F600008AF02F045FFD2E0274B1B78043B012B42
:103F700001D90824E3E79DF817302BB9FEF7C0FEFE
:103F80000420FFF763FEE2E7012B57D1FEF7A4FE02
:103F90000520F6E79DF8190003A9FEF7D3FD0646B4
:103FA00008B91024CBE79DF80C1005AAFEF7E2FD36
:103FB000062804465CD19DF8152012F0600FBED192
:103FC000114B9DF80C1018789DF81630D2092DD0A1
:103FD0007BB10A2BB3D10528CBD130460192FEF735
:103FE00075FE0B49019A08700DF11500FFF76AFE86
:103FF0002BE00528BDD106490B800222F4E700BF63
:10400000380A002000700240100A0020300A002008
:104010003C0A00202C0A00201C910000FD900000AA
:10402000140A002038910000309100000B2B86D13B
:1040300005289ED1BDF81730FF2B01D907247EE754
:104040009DF817203046FEF7F3FD044610E09DF87A
:104050001900030706D19DF8153013F0600F0BD03F
:1040600006246CE705A9FEF788FD06280446F2D071
:10407000002C3FF46CAF62E79DF81620344B9DF89E
:1040800019401B78012A1DD0032A0CD0002AE7D141
:10409000052B02D027077FF46CAF204602F074FE98
:1040A0002C490880A9E72607DAD4BDF81720002A92
:1040B000D6D12007D4D0052B7FF45BAF204602F089
:1040C00057FE44E72107CBD4BDF81720002AC7D1FB
:1040D0002207C5D0052B7FF44CAF204602F056FED8
:1040E000204603F003F932E702F0B8FE41E6002073
:1040F000FFF7ACFD3DE64FF08043D3F8384414F0B1
:10410000010401D00220F3E70120FFF79FFD2046C4
:1041100009B0BDE8F08F0120EAE7C87803283FF432
:104120001EAE0D4E33688BB1002271683260984725
:10413000044600287FF403AF336823B1AB78002B2B
:104140007FF417AE0DE702F089FEE0E70E24F6E6F5
:10415000100A00203C0A0020300A002008B1402349
:1041600003600148704700BF3C0A002070B54FF063
:10417000805286B0D2F8A830D2F8A42000926FEA1C
:1041800083436FEA93430B4A0B4E9BB20D2102A867
:1041900003F0B0FE02AD002402A803F07FFF8442CA
:1041A00001D306B070BD15F8013B06F8013B0134A0
:1041B000F2E700BF409100007C0A002010B50E4BD2
:1041C00053F8204023780BB9A01C10BD0020FFF746
:1041D000C5FF013C00235A1CA15C39B9DBB2013395
:1041E0005B00DBB243F440730380EEE7D3B220F808
:1041F00013101346EFE700BF98910000034608B97B
:10420000FFF7DCBF012807D0022805D0032803D020
:10421000042801D0052809D1054800EB430358784C
:1042200020B1044B53F82030002BE9D10020704717
:10423000B09100009891000072B6024A13680133F1
:10424000136070478C0A0020034A1368013B136017
:1042500003B962B6704700BF8C0A0020FFF7ECBFBD
:10426000FFF7F2BF435882B03BB10023435043589D
:104270000193019B012002B070471846FBE7000044
:10428000F8B5264C4379264D44F8232005EBC303AB
:10429000244E1B7973B17388012B09D92248234B13
:1042A0002349C01AC008000440F00200FDF724FCB6
:1042B0000820F8BD03680A88C3F8082590F904406F
:1042C0008B7802795B01002CDBB221DB19490F19D5
:1042D00087F800330123640902F01F0203FA02F297
:1042E00041F82420437905EBC30245F83300738875
:1042F0000121022B117109D90B480C4B0E49C01A30
:10430000C008000440F00300FDF7F6FB0020D0E7F2
:104310000A4902F00F028B54E4E700BF980A00201C
:10432000900A002028000020608D0000208D0000F1
:10433000BC91000000E100E0DE91000014ED00E01F
:10434000036801221A607047036801225A607047AF
:1043500073B501F15005AD000068ADB24FF4803483
:104360008C400026C0F80843C0F84843465101F588
:10437000A8714559019522F07F42019D40F8212006
:10438000C0F844430BB1C0F8044302B070BD000054
:104390002DE9F74F0D4622F07F4402684FF4803735
:1043A00005F150068F408046B60002EB8500C2F84A
:1043B0004873B6B2C2F80873D2F8041599464FF0A4
:1043C000000BD0F84035C0F8401542F806B05B1A33
:1043D0009259009223F07F43012B009A4FEA850AFD
:1043E0000CD1264B4FF4806043F001039847D8F876
:1043F000003043F806B09B590193019BD8F8001098
:10440000D1F80465C1F84473A31B23F07F43012B4B
:104410001CD11A4B05F5A875013443F0010341F88E
:1044200025404FF480609847D8F80030D3F8043521
:104430009E4209D1D8F800300020C3F84473C3F875
:10444000047303B0BDE8F08F0D20FAE78A44C9F188
:10445000FF13CAF84045D1F80405221A013A22F0A8
:104460007F4203F57F439342EED3002AE2D1013429
:10447000CAF84045D1F804359842DAE7F0910000D7
:1044800003680222C3F8442309B1C3F80423704728
:1044900000684FF48271FFF7E5BE4FF4803303FAF2
:1044A00001F10368C3F84813C3F80813704750318B
:1044B0008900006889B2FFF7D5BE0368D3F8040508
:1044C0007047000090F90430002B09DB5A090121E4
:1044D00003F01F0301FA03F34032024941F822308E
:1044E000704700BF00E100E0024B034A1B68106800
:1044F000184700BF980A0020900A00201EF0040F01
:104500001CBFEFF309800AE0EFF308800549064A73
:10451000884201D8904202D88D464FF00000034BEC
:10452000184700000000042000E00320554500006B
:10453000BFF34F8F0549064BCA6802F4E06213438C
:10454000CB60BFF34F8F00BFFDE700BF00ED00E081
:104550000400FA052DE9F74F0546FDF7FFFAFDF7D0
:104560005DF90028FBD1374C3748384B384E9F6AED
:104570007388241AE408240444F00104002D59D05F
:10458000D3B1AA6933492046FDF7BAFA73889BB1C3
:10459000EB680193AB6800932F49D5E900232046CF
:1045A000FDF7CDFA73883BB1EB6900932B49D5E950
:1045B00004232046FDF7B7FA244BDB6A990705D59B
:1045C00073881BB126492046FDF796FADFF8A0A0B4
:1045D000DFF8A0B04FF000084FF0010909FA08F326
:1045E0003B4208D05AF828202AB173881BB159469B
:1045F0002046FDF785FA08F10108B8F11A0FEDD150
:104600003A0607D573882BB1104B16495A6B2046D2
:10461000FDF776FA3B0407D573882BB10B4B124993
:104620009A6B2046FDF76CFA2846FFF781FF03B02E
:10463000BDE8F08F002BBFD00C492046FDF75CFA97
:10464000BAE700BFC88D0000208D000000ED00E03B
:104650005C000020F69100000B92000040920000E8
:104660009B920000EA9200000A930000689200000A
:10467000E4970000DF92000010B561B1B2FBF3F4E3
:1046800003FB1424A4B244B9C0E9001484608281FD
:10469000C381204610BD0E20FCE70920FAE737B59C
:1046A00050E8013F9DB2C48925448489A54228BFB2
:1046B0002D1B0489A54202BFBFF32F8F002207E004
:1046C000C5EA030540E80154002CE9D14FF001028E
:1046D0008DF803200193019A0A609DF8031001F000
:1046E000FF0321B1006810FA82F003B030BD184614
:1046F000FBE70A884B889A4209D150E8012FC2EAA9
:10470000024240E80123002BF7D10120704700202E
:10471000704737B550E8023F1FFAA3F5C488A54299
:1047200002BFBFF32F8F00220DE0C4892544848986
:10473000A54228BF2D1BC3EA054540E80254002CC2
:10474000E8D14FF001028DF803200193019A0A602D
:104750009DF8031001F0FF0321B1006800EB124047
:1047600003B030BD1846FBE70A884B889A4209D14E
:1047700050E8022FC2EA224240E80223002BF7D180
:10478000012070470020704710B5034653E8000F22
:104790000A4643E8002494F0000FF7D110BD10B58D
:1047A000034653E8002F42EA010043E8000494F076
:1047B000000FF6D110BD10B5034653E8000F00EA14
:1047C000010243E8002494F0000FF6D110BD10B5AB
:1047D000034653E8002F02EB010043E8000494F085
:1047E000000FF6D110BD10B5034653E8002FA2EB21
:1047F000010043E8000494F0000FF6D110BD10B59D
:10480000034653E8002F8A422CBF501A104643E853
:10481000000494F0000FF4D110BD0121FFF7BFBFD9
:104820000021FFF7C8BF10B590B1D0E9012301689E
:104830009B1ADBB20A60013BDBB2FF2B026802D19C
:104840000020107110BD11684C1C14600B70F2E751
:104850000E20F7E738B504460020FFF7FFFC22687A
:1048600063681168994213D9481E106011F8013C21
:10487000E568218B01FB0355A36811791B1ADBB294
:10488000994200D213710020FFF7EAFC284638BD98
:104890000025F8E738B5054600200C46FFF7DEFC9A
:1048A0002A681368591C1160E968641A298BB4FBE3
:1048B000F1F41C70BDE838400020FFF7D1BC8268DD
:1048C00010B504462AB1436901680069984700237E
:1048D000A36010BD0EB403B5039921B104AB01AAC6
:1048E000019300F077F802B05DF804EB03B0704775
:1048F0000A2938B504460D4602D10D21FFF7F8FF0D
:10490000A3682268591CA160D554D4E901329A42A7
:1049100004D32046BDE83840FFF7D1BF38BD0000C2
:104920002DE9F84F9846DDE90A43154682460F46C1
:104930000A464FF00109AA420FD2C14538BFC1460D
:1049400013F0010B01D16CB900240126B8F1010F5D
:104950001BD908F1FF386E43F8E709F10109B2FBF2
:10496000F5F2E8E79B070ED5B8F1000F0CBF302633
:104970002026A145E9D2013C31465046FFF7B8FF59
:10498000002CF6D1E0E72026F3E7B7FBF6F39D42D3
:10499000E1D9DFF83C80B7FBF6F3504618F8031076
:1049A00006FB1377FFF7A4FF3346AB42B6FBF5F6E1
:1049B000F1D2BBF1000F02D00CB1A14501D3BDE88B
:1049C000F88F20215046013CFFF792FFF4E700BF2B
:1049D000559800002DE9F74F0546174688460029EF
:1049E00000F03E8118F8011B49B92B7B002B00F029
:1049F0003781284603B0BDE8F04FFFF760BF252997
:104A000040F0B780002698F800302D2B424608F180
:104A1000010823D0302B24D02B2B25D000242A2B87
:104A200002F1010123D13B681A1D1B683A601C4446
:104A30000A4613782E2B26D101324FF0000A104679
:104A400010F8011BA1F1300CBCF1090F1DD80A238D
:104A500003FB0A13A3F1300A0246F0E746F0010611
:104A6000D1E746F00206CEE746F00406CBE711F8A0
:104A7000013CA3F130000928DBD80A2202FB0434F0
:104A8000303C0A46CBE74FF0000A12F8011B01F058
:104A9000FB0068289046F8D0782909D86F290CD8EF
:104AA000632962D022D8252963D0582900F0888054
:104AB00098F80030002B95D197E770390829F7D87E
:104AC00001A353F821F000BF3B4C0000B14A0000A5
:104AD000B14A0000D14B0000B14A0000AF4B0000CA
:104AE000B14A0000B14A0000C14B0000642901D066
:104AF0006929DDD13A68D2F80090111D89EAE9727E
:104B00003960A2EBE9724FF0010B092A35DCD3457D
:104B100038BFD3462CB1B9F1000F01DB720700D5C5
:104B2000013CB30702D5BAF1000F03D0F00701D45E
:104B30004CBB0024B9F1000F2DDAC9F100092D2179
:104B40002846FFF7D5FE06F00302022A04D1BAF187
:104B5000000F01D11CBB0024CDE9004653460A22B8
:104B600049462846FFF7DCFEA2E73B681A1D197884
:104B70003A602846FFF7BCFE9AE70A230BF1010BC7
:104B8000B2FBF3F2C1E7A345D4D220212846013C71
:104B9000FFF7AEFECCE77107D5D52B21D0E7A345B3
:104BA000DAD230212846013CFFF7A2FED2E739686D
:104BB000CDE900460A1D3A6053460A220968D0E74B
:104BC00039680A1D3A60CDE9004653461022F5E7E0
:104BD0003B681A1D3A6016F00106D3F8009024D104
:104BE000B9F1000F03D0484603F058FA0646B44224
:104BF0001DD809F1FF3919F8011F00293FF458AFFA
:104C00002846FFF775FEF6E728460136FFF770FEE7
:104C100019F806100029F7D1A642BFF449AF2021A8
:104C20002846013CFFF764FEF6E70026F0E7202166
:104C30002846013CFFF75CFED9E73B681A1D3A6045
:104C4000302128461C68FFF753FE78212846FFF7DD
:104C50004FFE00220823CDE900322146102280E7D2
:104C600003B0BDE8F08F00BF2DE9F84FB0F806A003
:104C70004579D2F800B09DF828900AFB05F5043D6F
:104C800088460BEB0301A94203F1040488BFA5EB9E
:104C9000030BB4FBFAF607460AFB1644C2F800B051
:104CA0004EB9AAEB04055D4528BF5D46BBF1000F78
:104CB00004D1BDE8F88F3F68013EF1E7043408EB0A
:104CC00006003C442A46B9F1000F0DD02146ABEB5B
:104CD000050B03F087F9DA452E443F6855464FF03F
:104CE000000428BF5D46E1E701462046EFE7FFF7F5
:104CF0009ABDF8B546790146721E054600239342D7
:104D00002D6803D30024A64202D8F8BD0133F6E78C
:104D10000F682846FFF7BEFD01343946F3E72DE959
:104D2000F843068BCD1C0746FFF794FD043E35443F
:104D30000446B5FBF6F5F0B14FF48073EDB2838015
:104D4000C680013D076081464FF00008A84512D299
:104D50003846FFF77FFD064648B16379013363713A
:104D600008F10108C9F8000007608146EEE7204617
:104D7000FFF7BFFF34462046BDE8F8830121043029
:104D8000FFF725BD10B5012104460430FFF72BFDC8
:104D9000C0B220B92046BDE81040FFF7AABF10BD41
:104DA0001FB503920022009203AAFFF75DFF05B032
:104DB0005DF804FB1FB503920122009203AAFFF7DE
:104DC00053FF05B05DF804FB836800225A60C3E915
:104DD00004229A60DA601A60704770B5446806462B
:104DE0000D46206818B1B3682946984718B923685A
:104DF0002B60256070BD2468F3E74368186808B12C
:104E000002681A60704743681868704743681868FA
:104E100000B97047884203D102681A6001207047C8
:104E200003460068F4E7000038B5074C051E04F19E
:104E3000080318BF1C4623682BB11A6822605B6800
:104E400028469847F7E738BDA40A002020B9054B4B
:104E500001225A70FFF7E8BF012802D1014A907081
:104E6000F8E770479C0A002038B50C4C23789BB9B2
:104E70000B486360A3602361E36000F021F90546FD
:104E800000F02AF901232370064BD3F800340BB14C
:104E90000123A370284638BD8525F5E79C0A00202C
:104EA0004D4E00000000014038B5134CA378054674
:104EB00003F0FF0073B115B16B6801209847002023
:104EC000FFF7CCF9E3680133E3600020BDE8384028
:104ED000FFF7C6B9FFF7C2F925B1226913463BB9FE
:104EE0002A602561E368002BECD100F00BF9E9E7BB
:104EF0009D42F7D01B68F2E79C0A00204FF08043E8
:104F0000D3F81804C0F300407047000038B5134CC4
:104F10006378054603F0FF0073B115B16B6800209C
:104F200098470020FFF79AF9636801336360002017
:104F3000BDE83840FFF794B9FFF790F925B1A268B2
:104F400013463BB92A60A5606368002BECD100F0E2
:104F5000E6F8E9E79D42F7D01B68F2E79C0A0020DB
:104F600038B5084C0020FFF779F96368013B6360AE
:104F7000656815B900F0E0F86570BDE838400020BC
:104F8000FFF76EB99C0A002010B5074C23784BB987
:104F9000064B002808BF184600F044FB08B901235F
:104FA000237010BD8520FCE7B00A00207D9800002A
:104FB0001FB503788DF800304368019383688DF83E
:104FC0000830C368054A0393054B684653F82130FF
:104FD00052F82110984705B05DF804FBB40A002090
:104FE000BC0A00201FB503788DF800304368019398
:104FF00083688DF80830C368054A0393054B6846FB
:1050000053F8213052F82110984705B05DF804FBA1
:10501000B40A0020BC0A0020F0B5194B90F800C07B
:10502000DFF86CE043F82C20164B16460A6943F86B
:105030002C204B7F0EF80C300C4607460FCC89B065
:105040006D460FC594E80F0085E80F003B78CDF85A
:1050500010C01EF803304BB1002E0B4A694608BF42
:105060003246381D00F0B0FE09B0F0BD002E074AF0
:10507000694608BF324607F10C0000F069FCF3E70F
:10508000BC0A0020B40A0020B14F0000E54F000028
:10509000C40A002010B5034653E8000F00EA0102DD
:1050A00043E8002494F0000FF6D110BD00F18040D9
:1050B000002382B0036003680193019B02B0704734
:1050C000044A137923B90121106091801846704772
:1050D00085207047C80A0020084B1A68D20704D4FC
:1050E000C02283F8002301221A604FF0804201237E
:1050F000C2F81835024A1370704700BF00E100E0A3
:10510000D00A002008B54FF48270FFF7CFFF4FF0B0
:1051100080430222C3F8042301229A6008BD08B527
:105120004FF48070FFF7C2FF4FF080430122C3F8B5
:1051300004231A6008BD00004FF08042012108B529
:105140004FF48070C2F80813FFF7B0FF5160D2F837
:105150000C3403F00113B3F1011FF8D0014B00220E
:105160005A7108BDC80A00204FF0804110B5D1F82F
:10517000003163B14FF48070FFF798FF0D4B587901
:105180000122C1F8082310B95A711B6898474FF0E3
:105190008042D2F8043163B14FF48270FFF786FF8A
:1051A0000223C2F80833034BBDE810401B680120FE
:1051B000184710BDC80A002000F1804000F5C0402B
:1051C000002382B0036003680193019B02B0704723
:1051D00003681F2B83BF03F01F03036001484FF0D8
:1051E000A04070470003005007B5019001A8FFF7E9
:1051F000EFFF019B00EB8300D0F8003723F440332E
:10520000C0F80037D0F8003743EA0141C0F8001772
:1052100003B05DF804FB0000054B4FF0FF32072898
:1052200043F8202084BFC01880F85820704700BF82
:10523000D40A002038B51D4991F86A30A3BB4FF657
:10524000FF70FF245A09012A0CBF02464FF0FF32BB
:1052500003F01F05EA40D20748BFCA1803F1010353
:1052600048BF82F83040302BECD10024E0B201344A
:10527000FFF7D2FF0C2CF9D10D4B00224A669A8021
:105280000C4BC02083F80603402018604FF4BE701A
:10529000FFF792FF084B4FF00040C3F804030123CF
:1052A00081F86A30104638BD0820FCE7D40A002097
:1052B000380B002000E100E000600040034B93F851
:1052C0006A00003818BF0120704700BFD40A0020D0
:1052D000F7B53D4F3B18044693F93030002B71DA97
:1052E0008B78C3F34003002B0BBF082500250C204F
:1052F0000820854202D1042003B0F0BD57F8256094
:10530000013647D138196EB247F8252080F8306051
:1053100013B97B1983F858408B785A071AD4D807E9
:105320003AD501A80194FFF753FF019B00EB8300DE
:10533000D0F8003723F00203C0F800372348E20812
:1053400004F0070C012303FA0CF310F802C043EA3F
:105350000C03835488780B7810F0020028D0AD003D
:1053600005F1804505F5C0452402D5F8102522F445
:105370004F3222F44072C5F810251B04D5F81025D1
:1053800004F47C5403F440331C431443C5F8104523
:105390000020B1E70135ACE701A84A780194FFF796
:1053A00017FF019B03F5E073920040F82320C5E747
:1053B000083E47FA86F797F8604044EA831387F877
:1053C000603099E7082097E7D40A0020380B0020C6
:1053D00073B5244D2E18044696F93020072A1DDD9A
:1053E000083A45FA82F595F860309B09032B10D1F5
:1053F000019001A8FFF7ECFE019BD0F81015D940F1
:1054000001F001010231204602B0BDE87040FFF713
:10541000EBBE012B0CBF02210321F4E7D3B2072B13
:105420001DD8930003F1804303F5C043D3F8100562
:1054300040F00100C3F8100502F1400040B28000C6
:1054400080B2FFF7B9FE51B196F9303055F82330EC
:105450002BB1012303FA02F2034BC3F8042302B079
:1054600070BD00BFD40A00200060004007B5019065
:1054700001A8FFF7ADFE019BD0F81005D84000F061
:10548000010003B05DF804FB2DE9FF470024CDE9DE
:105490000244584D4FF48072012102F1804303F51C
:1054A000C04390B21B68012B06D1D5F804330B42E0
:1054B00002D0FFF781FE0C430432B2F5907F4FEA31
:1054C0004101EAD14B4BD3F87C31012B11D14FF480
:1054D000BE70FFF771FE4FF0A04344F00044D3F8D4
:1054E00020250292C3F82025D3F820280392C3F880
:1054F0002028E3B2D3B1404F00250126344210D01A
:10550000AB0003F1804303F5C043D3F81005D3F893
:10551000101557F8253023B1C1F30141C0F3052020
:1055200098470135082D4FEA4606E7D1002C59DA95
:10553000314D324C324E4FF00008012716F9013B35
:105540005A1C3CD0C3F3C201103169445FFA83F99D
:1055500011F8081C03F03F0203F0070307FA03F3F6
:1055600019422CD001A80192FFF732FE019B03F5EE
:10557000E07350F82330C3F3014ABAF1020F0CBFB5
:10558000032102211046FFF72FFE01A80192FFF729
:105590001FFE019B07FA03F3C0F82035AB1893F9FF
:1055A000303055F8233053B14FEA9911032904D014
:1055B000BAF1020F19D1012901D11046984708F11B
:1055C0000108B8F1040FB9D14FF0A043D3F820255A
:1055D0000292C3F82025D4F820350393C4F820356F
:1055E0001343A7D104B0BDE8F087BAF1030FE6D1A9
:1055F0000229E1E700600040D40A002000030050C7
:10560000340B002000F1804382B01A68002A14BFD6
:105610000120002004D000221A601B680193019B26
:1056200002B070470E4A1378C3B903784FF0804137
:10563000C3F34003C1F88035037803F00103C1F8D8
:105640007835084B1968C90704D4C02183F80013C2
:1056500001211960012313700020704785207047D5
:105660004C0B002000E100E04FF0804310B5D3F870
:105670000443620707D54FF48470FFF7C3FF10B1EE
:105680001E4B1B689847A30608D54FF48A70FFF796
:10569000B9FF18B11A4B00201B689847600608D55F
:1056A0004FF48C70FFF7AEFF18B1154B01201B684B
:1056B0009847210608D54FF48E70FFF7A3FF18B165
:1056C000104B00201B689847E20508D54FF49070F6
:1056D000FFF798FF18B10B4B01201B689847A305F3
:1056E0000AD54FF49270FFF78DFF28B1054BBDE846
:1056F00010401B680220184710BD00BF400B00205F
:10570000440B0020480B002008B5FFF7ADFFBDE8B3
:105710000840FFF729BD0000014B1B68184700BF78
:10572000500B002038B50B4B98420C4601D000209E
:1057300038BD0020FEF792FD074B1D7915B90122F7
:105740001C601A710020FEF78BFD002DEFD0112098
:10575000EEE700BF00200040500B0020034B9842B2
:1057600001BF034B00221A601A71704700200040ED
:10577000500B00200023435082B043580193019BFB
:1057800002B070470A4610B54FF48E71FFF7F2FF72
:10579000136A9168C95C136A01331362C0F81C155F
:1057A00010BD8B690A4610B54FF4847123B9FFF719
:1057B000E1FFD0F8183510BDFFF7DCFF536AD16860
:1057C000D0F81805C854536A01335362F3E7000058
:1057D0001FB501238DF80030044BCDE90110D3E94A
:1057E00000126846904705B05DF804FB580B002096
:1057F00030B54D4DD5F804339A0585B051D5D5F85F
:105800002431002B4DD04FF492712846FFF7B2FFA0
:105810004FF40173C5F80833444B93F829200AB9B3
:1058200001226A60404902228DF80020D1F88024CC
:10583000C1F8802403929A690292DA6801920022E8
:10584000C3E906226846D3E9001290473648D0F8EB
:105850001C315BB1354A5169136A99424DD992F8AE
:105860002830002B49D11146FFF78CFF2E48D0F885
:105870004431002B56D04FF4A271FFF77BFF2B4B26
:1058800093F829200AB1012202609A69002A49D0BE
:10589000586AD96800229A6105B0BDE83040FFF728
:1058A00097BFD5F804335B07D0D5D5F80831002B66
:1058B000CCD01E4C1C482146FFF773FF636AA269D7
:1058C0009A42C3D1E369E1684BB1A3612369E36004
:1058D0000023606AE3616362FFF77AFFB6E794F83A
:1058E00029300BB901236B600F4B4FF40172C3F8E1
:1058F00008230023606AA361EEE70B484FF48E7122
:10590000FFF738FF5369002BB0D051690291002393
:1059100091688DF80030019153616846D2E9001317
:105920009847A3E705B030BD00200040580B002089
:105930001F2886BF00F01F00044B4FF0A04300F566
:10594000E070022243F82020704700BF000300509F
:105950002DE9F843604D90F804802C2303FB085395
:10596000064693F82A300C469146002B40F0AF8053
:105970005A490068FFF7D6FE0746002840F0A98084
:105980002268531C10D01F2A87BF554902F01F03FD
:1059900013464FF0A0410120984003F5E073C1F891
:1059A0000805032041F823006168481C0DD01F2919
:1059B0008BBF01F01F030B4649484FF0A04003F591
:1059C000E0734FF0000C40F823C03068A369C0F8C2
:1059D000243594F814C0637DBCF1010F4CEA030335
:1059E000C0F86C35C0F81415C0F80C252BD1A3688D
:1059F000591C0DD01F2B8BBF03F01F021A463849CC
:105A00004FF0A04102F5E0724FF0000C41F822C0C7
:105A1000E1684A1C13D01F2987BF314A01F01F0CCF
:105A20008C464FF0A0424FF0010E0EFA0CFE0CF522
:105A3000E07CC2F808E54FF0030E42F82CE0C0F815
:105A40000815C0F810352C2202FB08F2AB18C3F879
:105A500004902369AB50B9F1000F20D04FF48E7140
:105A6000247FFFF787FE4FF4A2713068FFF782FEB4
:105A700032681C4BC2F80433130B42F30732610146
:105A8000002AC9B21EDB1848841884F800130121CB
:105A9000520903F01F0301FA03F340F82230336880
:105AA0000422C3F800252C2303FB08530022C3E97A
:105AB000062283F829205A61012283F82A203846D9
:105AC000BDE8F883094A03F00F03D154E7E708273C
:105AD000F5E71127F3E700BF580B0020F15700004E
:105AE000000300508000020000E100E014ED00E03F
:105AF0002DE9F04103680579284C0022C3F8002500
:105B00002C2202FB054201465268A2B1244AC3F886
:105B100008231A0B43F30733002B0CDB02F01F00A2
:105B20005B090122824020331E4840F82320BFF346
:105B30004F8FBFF36F8F0B68D3F80C05D3F8148524
:105B4000D3F80865D3F810754FF0FF329042C3F8D0
:105B50001425C3F80C25C3F80825C3F8102501D077
:105B6000FFF7E6FEB8F1FF3F02D04046FFF7E0FE48
:105B70007A1C02D03846FFF7DBFE731C02D0304699
:105B8000FFF7D6FE0868FFF7E9FD2C2303FB054469
:105B9000002384F82A306360BDE8F081580B0020B0
:105BA0008402020000E100E00279044B2C2101FB99
:105BB00002335869003818BF01207047580B002085
:105BC0002DE9F84F064690F8048089469246FFF783
:105BD000EBFF044600283CD1204F2C2508FB057B19
:105BE0004FF48E71CBF814A0CBF80890CBF82000BE
:105BF0008BF828003068FFF7BDFD30680123836013
:105C00005946FFF7BFFDDBF804305D461BBB30682B
:105C1000DBF814402B6A9C4211D83368D3F81C215E
:105C2000002AFBD00122DA6000202C2303FB087736
:105C300000237B61BDE8F88F95F828303BB9D0F898
:105C40001C31002BF8D05946FFF79CFDE2E70F20EE
:105C5000EBE71120EEE72046ECE700BF580B0020F1
:105C60000023435082B043580193019B02B0704718
:105C70001FB501238DF80030044BCDE90110D3E9A5
:105C800000126846904705B05DF804FB840B0020C5
:105C90007FB5434AD2F82461002E60D010464FF4FD
:105CA0009271FFF7DDFF02238DF80030D2F88034C7
:105CB000C2F880340393D2F83C350293394BDA684A
:105CC00001920022C3E906226846D3E900129047F8
:105CD0003348D0F8443173B14FF4A271FFF7C0FFDD
:105CE000304B9A693AB10022C3E90622D968D0F84C
:105CF0003C05FFF7BDFF2A48D0F82031ABB14FF487
:105D00009071FFF7ADFF0123C360264B5A6962B162
:105D1000D0F84C150291002299688DF8002001916D
:105D20005A616846D3E9001290471D48D0F85831AF
:105D30009BB14FF4AC71FFF793FF1A4B5A6962B1F4
:105D4000D0F84C150291002299688DF8002001913D
:105D50005A616846D3E90012904704B070BDD2F88A
:105D60001031002BB4D04FF488711046FFF778FF44
:105D70000C4BD2F83C0599698842A9D1DC69D968F5
:105D800064B1D2F8005225F02005C2F800521A6919
:105D90009C61DA60DE61FFF76BFF99E79C61FAE7CF
:105DA00000200040840B00201F2886BF00F01F0049
:105DB000044B4FF0A04300F5E070022243F820208E
:105DC000704700BF000300502DE9F843664E90F87D
:105DD0000480242303FB0863044693F820300D4617
:105DE0009146002B40F0BC8060490068FFF79AFCA8
:105DF0000746002840F0B68029684B1C10D01F29A8
:105E000087BF5B4A01F01F030B464FF0A042012001
:105E1000984003F5E073C2F80805032042F8230018
:105E20006A68501C0DD01F2A8BBF02F01F03134657
:105E30004F484FF0A04003F5E0734FF0000C40F8DE
:105E400023C02068AB69C0F8243595F814C06B7D79
:105E5000BCF1010F4CEA0303C0F86C35C0F80C1517
:105E6000C0F814252BD1AB68591C0DD01F2B8BBF4C
:105E700003F01F021A463E494FF0A04102F5E072BE
:105E80004FF0000C41F822C0E9684A1C13D01F29CA
:105E900087BF374A01F01F0C8C464FF0A0424FF0ED
:105EA000010E0EFA0CFE0CF5E07CC2F808E54FF08E
:105EB000030E42F82CE0C0F80815C0F81035242273
:105EC00002FB08F2B318C3F804902B69B350B9F180
:105ED000000F2FD04FF488712A7FFFF7C1FE206892
:105EE0004FF49071FFF7BCFE20684FF49271FFF7FA
:105EF000B7FE20684FF4A271FFF7B2FE4FF4AC7109
:105F00002068FFF7ADFE23681A49C3F80413190B84
:105F100043F307335201002BD2B21CDB1648C518DD
:105F200085F8002301225B0901F01F0102FA01F14B
:105F300040F8231023680822C3F80025242303FB1C
:105F400008660023C6E906337361012386F8203012
:105F50003846BDE8F883094B01F00F015A54E9E7D0
:105F60000827F5E71127F3E7840B0020915C000078
:105F7000000300501003420000E100E014ED00E0D7
:105F80002DE9F0413D4D06790468242303FB0653B7
:105F900002465B68ABB13A4BC4F8083344F30733AD
:105FA000002B4FEA14310CDB01F01F005B090121CB
:105FB00081402033334840F82310BFF34F8FBFF3A5
:105FC0006F8FD4F8003223F02003C4F8003224236A
:105FD00003FB06539B6933B14FF4A2712046FFF7D0
:105FE0003FFE012363604FF4AC712046FFF738FE9B
:105FF0000123E360242303FB0653D4F8581100293E
:10600000FBD0996919B1D4F844110029F5D00023C7
:10601000C4F800351368D3F80C05D3F81485D3F809
:106020000815D3F810754FF0FF329042C3F80C25D5
:10603000C3F81425C3F80825C3F8102501D0FFF7CD
:10604000B3FEB8F1FF3F02D04046FFF7ADFE7A1C29
:1060500002D03846FFF7A8FE4B1C02D00846FFF7D7
:10606000A3FE2046FFF77AFB242303FB06550023FB
:1060700085F820306B60BDE8F08100BF840B002004
:106080001003420000E100E00279044B242101FBEF
:1060900002335869003818BF01207047840B002074
:1060A00001F06043B3F1005F2DE9F04706468846F2
:1060B00092463BD190F80490FFF7E6FF0446002893
:1060C00036D11D4F3068242505FB09754FF49071BA
:1060D000C5F814A0C5F80880FFF7C2FD4FF4AC71F5
:1060E0003068FFF7BDFD33686A69A968C3F84415D5
:1060F000C3F8482501229A606A68DAB9D3F82021EA
:10610000D3F858011AB90028F8D00F2007E000286A
:10611000FBD10122DA60D3F85821002AFBD02423D6
:1061200003FB097700237B61BDE8F0871020FBE7C4
:106130001120F9E72046F7E7840B0020020713D46B
:1061400000F00F0310F0800F084A0BBF03F58873AF
:1061500003F5847302EB830352F8230008BF5868E9
:10616000431E58425841704700207047007002405B
:1061700010F0080F074B06D0D3F8C00410F4803F8E
:1061800018BF0020704700F00F0000F5947053F81E
:1061900020007047007002404FF08053D3F8300168
:1061A000A0F1080358425841704700004FF0805357
:1061B000D3F83021082A06D1D3F83431052B04D87E
:1061C000034AD05C7047002070470120704700BF31
:1061D0009F98000030B54C680D68A34297BFC0E996
:1061E00000530021E41AED188EBFC0E900514C6045
:1061F0000D60934203D1201E18BF012030BD002046
:10620000FCE74B6810B59A420C6828BF1A46C0E9F3
:106210000042981A0B6848601A4400380A6018BF98
:10622000012010BD30B54C680B68A24228BF224641
:10623000002A14BF1D460025C0E90052A4EB020449
:106240001A444C600A6014BF0120002030BD0000D9
:10625000054B10F0800FA3F1900208BF134600F029
:106260000F0003EB001070471C0D002010F0800F92
:1062700014BF0023102300F00F00184470470000E3
:1062800008B5FFF789FF18B1034B0022C3F81C2C97
:10629000024B00221A7008BD00700240A90B0020BA
:1062A00007B5094A00231370084AADF8053013708A
:1062B0008DF8073001238DF80430054B01A81B68C9
:1062C000984703B05DF804FBA80B0020B00D002038
:1062D000AC0D0020704700004B68934228BF134666
:1062E00070B51D46094B0C4606462A4609681846F5
:1062F00001F078FEC6E9000560682268401B606016
:106300002A440038226018BF012070BDB40D00205F
:106310004B68934228BF134670B506460D461C468F
:106320008BB10A4B09682246184601F05BFE3060CB
:106330006B6874601B1B6B602B68201E23442B60F2
:1063400018BF012070BD0360F2E700BFB40D00204C
:1063500008B50020FDF782FF0A4BD3F8001C03228A
:1063600061B949F27531C3F8001CC3F8142DC3F8A4
:10637000001CBDE808400020FDF772BFC3F8142DD3
:10638000F7E700BF00E0064008B50020FDF766FF14
:106390000A4BD3F8001C61B949F27532C3F8002CDE
:1063A000C3F8141DC3F8002CBDE808400020FDF719
:1063B00057BF0022C3F8142DF6E700BF00E00640E7
:1063C00008B50146FFF75CFF0846FFF741FF827BF7
:1063D000032A0AD10846FFF749FF01218140BDE8A1
:1063E00008400448C943FEF755BE0368002BF1D0AE
:1063F00008BD00BF180C00208720FFF7E1BF8620F2
:10640000FFF7DEBF8520FFF7DBBF8420FFF7D8BF93
:106410008320FFF7D5BF8220FFF7D2BF8120FFF78F
:10642000CFBF000008B5FFF72BFF084B93F89E2065
:10643000032A06D1BDE8084005486FF00101FEF7C8
:1064400029BED3F89030002BF4D008BD8C0C00206E
:10645000180C0020012273B502FA01F51E491F4EE7
:106460000B6810F0800F43EA050304460B6027D049
:1064700000F00F021A4B33F8123003F1804303F59A
:106480001C331A684AB100221A60BFF36F8FBFF342
:106490004F8F802811D0FFF793FF316829400AD130
:1064A00006238DF804308DF806408DF807100D4B4B
:1064B00001A81B68984702B070BDFFF7B3FFECE777
:1064C00033681D42F7D106238DF804308DF806009D
:1064D0008DF80720EBE700BF880C0020180C002087
:1064E000AE980000AC0D002008B5054B1A78104698
:1064F000FFF7BCFEBDE8084001461046FFF7AABF03
:10650000B00D0020FFF78EBF07B500238DF80430D3
:106510000B4BD3F82025ADF80620D3F8C034094A38
:10652000002B13680CBF4FF480714FF001210B4317
:106530001360054B01A81B68984703B05DF804FB86
:1065400000700240880C0020AC0D002007B5FFF75A
:1065500097FE0D4B93F88E20032A11D0D3F880308C
:1065600073B90A486FF08071FEF794FD06238DF829
:1065700004300823ADF80630054B01A81B68984786
:1065800003B05DF804FB00BF8C0C0020180C002049
:10659000AC0D002007B5FFF773FE114B93F81E21D9
:1065A000032A07D10F486FF4807103B05DF804EB44
:1065B000FEF770BDD3F8103173B90A486FF48071DB
:1065C000FEF768FD06238DF804308823ADF8063009
:1065D000054B01A81B68984703B05DF804FB00BF9A
:1065E0008C0C0020180C0020AC0D00202DE9F04F81
:1065F0005D4E337885B0002B6DD15C4C5C4B1968D7
:106600002368194067D011F0012367D093FAA3F1F2
:10661000002966D0B1FA81F10F2964D9A1F11008DF
:106620005FFA88F84046FFF713FE4FF0010B4FFA70
:1066300088FA0BFA01F1BAF1000F81466FEA010BFB
:1066400054DA03688289416802A8984708B9C9F8F2
:106650000000FFF7A1FD18B1464B8222C3F81C2CA5
:1066600001232168039A3370D9F8083001EA0B013D
:106670001344BAF1000F2160C9F8083008F008008F
:1066800002993C4B08F00F085EDA002854D0C3F89A
:10669000A016C3F8A426042303EB880303F1804368
:1066A00003F51C3301221A60BFF36F8FBFF34F8FC6
:1066B000314B324A2F4913EA2A0338BF134633F8C5
:1066C000183003F1804303F51C331A681AB9D1F866
:1066D0000021002AF9D005B0BDE8F08F91FAA1F1B0
:1066E00096E720219AE741F080089BE74046FFF7B4
:1066F0003FFDB9F80C20D9F80410D9F80050034632
:10670000074602A8A847029A002A9FD0039A9742F8
:106710009CD9022789F80E7059461548FEF7BAFC35
:1067200006238DF80430164B8DF806801B688DF813
:10673000077001A8984761E7142000FB0833C3F8ED
:106740000016C3F80426A6E728B1C3F8A017C3F8BB
:10675000A4272823A0E7142000FB0833C3F8001760
:10676000C3F80427F5E700BFA90B0020880C002020
:10677000180C002000700240AE980000CA9800007B
:10678000AC0D002037B50446FFF77AFD2046FFF731
:106790005FFD837B032B0DD12046FFF767FD0121B1
:1067A0008140C9430F48FEF775FC03B0BDE8304097
:1067B000FFF71CBF0568002DF7D12046FFF756FDF7
:1067C00001218140C9430748FEF764FC06238DF888
:1067D0000430054B8DF806401B688DF8075001A862
:1067E0009847E2E7180C0020AC0D00200720FFF7C7
:1067F000C9BF0620FFF7C6BF0520FFF7C3BF0420AF
:10680000FFF7C0BF0320FFF7BDBF0220FFF7BABFED
:106810000120FFF7B7BF000038B5134BD3F86C4425
:10682000C3F86C44BFF36F8FBFF34F8F01251CB9C2
:10683000BDE83840FFF7DABE94FAA4F171B1B1FABD
:1068400081F30F2B19460BDDA1F11000C0B205FA40
:1068500001F324EA0304FFF7FDFDE8E72021F3E755
:1068600043F08000F3E700BF00700240254B13B5F2
:10687000D3F80044C3F80044BFF36F8FBFF34F8FCA
:10688000BFF36F8FBFF34F8FE1050ED51E4B012273
:106890001A700023ADF805308DF8073002238DF80B
:1068A00004301A4B01A81B689847A2050DD5164A5B
:1068B00000231370ADF805308DF8073003238DF8F1
:1068C0000430124B01A81B689847630518D50E4A7F
:1068D0001378ABB1002313700A4A0121C2F80815DE
:1068E0009165BFF36F8FBFF34F8FADF805308DF813
:1068F000073004238DF80430044B01A81B68984727
:1069000002B010BD00700240A80B0020AC0D0020AA
:10691000024A00231360024A13707047AC0D002036
:10692000AA0B002008B5454B4FF40062C3F80024C1
:10693000BFF36F8FBFF34F8FFFF738FC08B1FFF73E
:1069400007FDFFF729FC98B10020FDF787FC3C4BC1
:10695000D3F8001CC022002967D149F27531C3F871
:10696000001CC3F8142CC3F8001C0020FDF778FCB1
:10697000324B0122C3F80025BFF36F8FBFF34F8F57
:10698000D3F800241205FBD54FF40062C3F80024AD
:10699000BFF36F8FBFF34F8FFFF7FEFB90B1002067
:1069A000FDF75CFC264BD3F8001C002940D149F2CE
:1069B0007532C3F8002CC3F8141CC3F8002C002057
:1069C000FDF74EFCFFF7F2FB30B1FFF7DDFCFFF700
:1069D000EDFB08B1FFF7BCFCFFF7DEFB174B50B136
:1069E00040F2E372C3F800284022C3F80428BFF342
:1069F0006F8FBFF34F8F00218022C3F81C25C3F88F
:106A00003015104B40F2FF121A600F4B1960FFF760
:106A100037FC0E4B19700E4B02221A70FFF7C6FBA3
:106A200050B1BDE80840FFF7AFBCC3F8142C9CE799
:106A30000022C3F8142CC2E708BD00BF007002405A
:106A400000E00640880C0020180C0020B00D00204B
:106A5000AA0B00200C4B00221A700C4A0C4B002889
:106A600018BF13460B4AC2F804330B4BC02183F8FE
:106A70002713802159600123C2F80435BFF36F8FBB
:106A8000BFF34F8F704700BFA80B00200714E00131
:106A90000714C0010070024000E100E0034B1878C9
:106AA000012894BF00200120704700BFAA0B0020DE
:106AB00010B50020FDF7D2FB134B1B7803F0FF0449
:106AC000BBB1124AD2F82C35DBB10023C2F82C3509
:106AD000FFF762FB68B10E4BD3F8001CC02269B906
