:020000022000DC
:10700000000004201972020001720200697D05006F
:1070100005720200077202000972020000000000FF
:107020000000000000000000000000000B720200E1
:107030000D720200000000000F72020011720200C7
:1070400051B404001372020061B404001372020010
:10705000137202001372020009AF040013720200DF
:107060001372020013720200137202001372020004
:107070001372020099B80400137202001372020026
:10708000137202004D5E05001372020013720200BB
:107090001372020013720200EDBD050013720200AC
:1070A00013720200137202001372020013720200C4
:1070B00013720200137202000000000000000000C2
:1070C00013720200137202001372020013720200A4
:1070D00013720200137202001372020079F50400A9
:1070E00013720200137202003D000600000000004F
:1070F0000000000013720200000000001372020082
:10710000000000000000000000000000000000007F
:10711000000000000000000000000000000000006F
:10712000000000000000000000000000000000005F
:10713000000000000000000000000000000000004F
:10714000000000000000000000000000000000003F
:10715000000000000000000000000000000000002F
:10716000000000000000000000000000000000001F
:10717000000000000000000000000000000000000F
:1071800000000000000000000000000000000000FF
:1071900000000000000000000000000000000000EF
:1071A00000000000000000000000000000000000DF
:1071B00000000000000000000000000000000000CF
:1071C00000000000000000000000000000000000BF
:1071D00000000000000000000000000000000000AF
:1071E000000000000000000000000000000000009F
:1071F000000000000000000000000000000000008F
:10720000FEE7FEE7FEE7FEE7FEE7FEE7FEE7FEE756
:10721000FEE7FEE700F002B8FFF7FCBF0F484FF0B3
:107220000701884385460E4880470E48016841F4AF
:1072300070010160BFF34F8FBFF36F8F00F01AB87A
:1072400009480A490A4A884207D0521A05D00378E9
:1072500001300B700131013AF9D170470000042070
:107260002162030088ED00E0A8370600B8A40020E2
:10727000F0A60020354936480A1A02D00722914369
:107280008D46344934480A1A06D00722914381F3C7
:107290000988022282F3148830483149314A00F0CB
:1072A00044F831483149324A00F03FF83148324918
:1072B000324A00F03AF832483249334A00F035F8A1
:1072C00032483349334A00F030F833483349344ABE
:1072D00000F02BF833483449344A00F026F834489B
:1072E0003449002200F02CF833483449002200F0E1
:1072F00027F833483349091A082902DB00220260C3
:107300004160314A90471F481F49884205D00268B2
:10731000043003B4904703BCF7E700208646EC46F0
:1073200000200021294A9047FEE7884207D0521AE0
:1073300005D0037801300B700131013AF9D1704763
:10734000884202D002700130FAE770470000042042
:1073500000E00320000004200000042094F4060054
:10736000F0A60020F4D50020D0730200D0730200F4
:10737000A033060094F40600F0A60020F0A600203A
:10738000E0390600E0390600E0390600E039060081
:10739000E0390600E0390600E0390600E039060071
:1073A00094F4060098230700F4D50020F4D50020BB
:1073B000F4D50020846603208466032088660320B9
:1073C000886603208886032041720200F5AD020022
:1073D00082B00190019B41F6581202FB03F303F5C2
:1073E000E963834A1344834A1068186092889A803C
:1073F0007F4A019B41F6581101FB03F3134403F24A
:107400004E73FF221A707A4A019B41F6581101FB14
:1074100003F3134403F5EB6300221A70744A019BD3
:1074200041F6581101FB03F3134403F25973002290
:107430001A706F4A019B41F6581101FB03F3134484
:1074400003F6780300221A70694A019B41F658112D
:1074500001FB03F3134403F6982300221A70644AD5
:10746000019B41F6581101FB03F3134403F6881303
:1074700000221A705E4A019B41F6581101FB03F38A
:10748000134403F5EC635C4A1068516803C3584A1F
:10749000019B41F6581101FB03F3134403F6C42387
:1074A00000221A70524A019B41F6581101FB03F366
:1074B000134403F25C734FF0FF321A604C4A019B95
:1074C00041F6581101FB03F3134403F5EA6300226C
:1074D0001A60474A019B41F6581101FB03F313441C
:1074E00003F2547300221A60414A019B41F658117D
:1074F00001FB03F3134403F6C823019A1A603C4AC4
:10750000019B41F6581101FB03F3134403F5CA53E1
:10751000043300221A60364A019B41F6581101FBE0
:1075200003F3134403F5C9531C3300221A60304A95
:10753000019B41F6581101FB03F3134403F5CA53B1
:1075400000221A602A4A019B41F6581101FB03F3FD
:10755000134403F5CA530C3300221A60244A019BDA
:1075600041F6581101FB03F3134403F5CA531033DA
:1075700001221A701E4A019B41F6581101FB03F3C8
:10758000134403F5CA53083300221A70184A019BAA
:1075900041F6581101FB03F3134403F5ED63002298
:1075A0001A70134A019B41F6581101FB03F313446F
:1075B00003F5CA53113300221A700D4A019B41F69C
:1075C000581101FB03F3134403F5CA53123300228D
:1075D0001A70074A019B41F6581101FB03F313444B
:1075E00003F5CA531433FF221A6000BF02B070477C
:1075F00010D70020E039060010D3002082B001909F
:107600003F4A019B41F6581101FB03F3134403F277
:10761000716300221A703A4A019B41F6581101FB2E
:1076200003F3134403F2726300221A70344A019B7D
:1076300041F6581101FB03F3134403F27363002274
:107640001A702F4A019B41F6581101FB03F31344B2
:1076500003F2756300221A70294A019B41F6581102
:1076600001FB03F3134403F2766300221A70244AE9
:10767000019B41F6581101FB03F3134403F27463B9
:1076800001221A701E4A019B41F6581101FB03F3B7
:10769000134403F2776300221A70194A019B41F6E2
:1076A000581101FB03F3134403F5CF634FF6FF7248
:1076B0001A80134A019B41F6581101FB03F313444E
:1076C00003F27A634FF6FF721A800D4A019B41F66E
:1076D000581101FB03F3134403F27C634FF6FF726E
:1076E0001A80074A019B41F6581101FB03F313442A
:1076F00003F27E6300221A7000BF02B0704700BF21
:1077000010D7002000B583B001900B468DF80330F0
:10771000C24A019B41F6581101FB03F313444FF099
:10772000FF321A60BD4A019B41F6581101FB03F379
:10773000134403221A60B94A019B41F6581101FB18
:1077400003F3134403F2545300221A70B34A019B0B
:1077500041F6581101FB03F3134403F231530022A5
:107760001A70AE4A019B41F6581101FB03F3134412
:1077700024334FF0FF321A60A84A019B41F658119A
:1077800001FB03F3134420334FF0FF321A60A34A86
:10779000019B41F6581101FB03F3134403F5A86361
:1077A00000221A609D4A019B41F6581101FB03F328
:1077B000134403F5AA6305221A60984A019B41F617
:1077C000581101FB03F3134403F5A96301221A7056
:1077D000924A019B41F6581101FB03F3134403F253
:1077E0002C534FF0FF321A608C4A019B41F658111E
:1077F00001FB03F31344103300221A60874A019BF4
:1078000041F6581101FB03F3134404334FF0FF32E8
:107810001A60824A019B41F6581101FB03F313449D
:10782000083300221A607D4A019B41F6581101FB82
:1078300003F313440C3300221A60784A019B41F68B
:10784000581101FB03F3134403F224434FF0FF32BA
:107850001A60724A019B41F6581101FB03F313446D
:107860001C3300221A706D4A019B41F6581101FB2E
:1078700003F3134403F2695300221A70674A019B11
:1078800041F6581101FB03F3134403F5AD630022E5
:107890001A70624A019B41F6581101FB03F313442D
:1078A00003F5A76300221A705C4A019B41F6581148
:1078B00001FB03F3134403F23A5300221A70574AB0
:1078C000019B41F6581101FB03F3134403F23953B2
:1078D00000221A70019B41F6581202FB03F3283371
:1078E0004E4A13444FF480720021184635F086FF4B
:1078F0004A4A019B41F6581101FB03F31344283314
:107900000A221A70454A019B41F6581101FB03F304
:10791000134403F2291302221A70404A019B41F6D4
:10792000581101FB03F31344183302221A603B4A37
:10793000019B41F6581101FB03F3134403F59473C3
:1079400004221A70354A019B41F6581101FB03F3DA
:10795000134403F5AC634FF0FF321A602F4A019BCA
:1079600041F6581101FB03F3134403F2645304225C
:107970001A602A4A019B41F6581101FB03F3134494
:1079800003F22A2300221A70244A019B41F658115F
:1079900001FB03F3134403F2375309221A709DF8D5
:1079A0000330002B36D01D4A019B41F6581101FBD4
:1079B00003F3134403F23C5300221A60174A019B5D
:1079C00041F6581101FB03F3134403F23253002232
:1079D0001A70124A019B41F6581101FB03F313443C
:1079E00003F22B2300221A700C4A019B41F6581116
:1079F00001FB03F3134403F2335300221A70074AC6
:107A0000019B41F6581101FB03F3134403F5A663F0
:107A100000221A7000BF03B05DF804FB10D70020ED
:107A200000B583B00190444A019B41F6581101FB17
:107A300003F3134403F2B46300221A603E4A019B2D
:107A400041F6581101FB03F3134403F28463062249
:107A50001A60394A019B41F6581101FB03F31344A4
:107A600003F5D26308221A70334A019B41F658117C
:107A700001FB03F3134403F28F6304221A702E4AAE
:107A8000019B41F6581101FB03F3134403F28E638B
:107A900000221A70284A019B41F6581101FB03F39A
:107AA000134403F28D63FC221A70234A019B41F6B2
:107AB000581101FB03F3134403F28C63F8221A708C
:107AC0001D4A019B41F6581101FB03F3134403F2D5
:107AD0008B63F4221A70184A019B41F6581101FB7E
:107AE00003F3134403F28A63F0221A70124A019BD3
:107AF00041F6581101FB03F3134403F28963EC22AE
:107B00001A700D4A019B41F6581101FB03F313440F
:107B100003F5D163D8221A70019B062B0EDC064AAE
:107B2000019B41F6581101FB03F3134403F5DC6399
:107B300014221A600DE000BF10D70020CF4A019B2D
:107B400041F6581101FB03F3134403F5DC631422DF
:107B50001A60CA4A019B41F6581101FB03F3134412
:107B600003F5DC631B6807EE903AF8EEE77A17EE50
:107B7000900A34F08BFE4FF00002C14B34F09EFBB4
:107B800002460B464FF000004FF0804134F052FDAA
:107B900002460B461046194634F092FE0246B7499B
:107BA000019B41F6581000FB03F30B4403F5DD6322
:107BB0001A60B24A019B41F6581101FB03F31344CA
:107BC00003F5D36301221A60AC4A019B41F65811B8
:107BD00001FB03F3134403F2946306221A60A74ADD
:107BE000019B41F6581101FB03F3134403F2DC63DC
:107BF00006221A60A14A019B41F6581101FB03F3CA
:107C0000134403F5D86300221A609C4A019B41F695
:107C1000581101FB03F3134403F5DB634FF0FF320C
:107C20001A60964A019B41F6581101FB03F3134475
:107C300003F2EC6306221A60904A019B41F6581148
:107C400001FB03F3134403F5D06306221A608B4A49
:107C5000019B41F6581101FB03F3134403F5DE6366
:107C600001221A70854A019B41F6581101FB03F36A
:107C7000134403F2F16300221A70804A019B41F61B
:107C8000581101FB03F3134403F2F4634FF0FF3286
:107C90001A607A4A019B41F6581101FB03F3134421
:107CA00003F2F26300221A70744A019B41F65811E4
:107CB00001FB03F3134403F5DF634FF000021A6086
:107CC0006E4A019B41F6581101FB03F3134403F57F
:107CD000DC6314221A60694A019B41F6581101FBCA
:107CE00003F3134403F5D56300221A60634A019B32
:107CF00041F6581101FB03F3134403F2AC63002275
:107D00001A605E4A019B41F6581101FB03F31344CC
:107D100003F2E46301221A70584A019B41F658119C
:107D200001FB03F3134403F5D66300221A70019B91
:107D300041F6581202FB03F303F5D4634F4A134490
:107D4000043314220021184635F058FD4B4A019B9C
:107D500041F6581101FB03F3134403F2BC634FF0E7
:107D6000FF321A60454A019B41F6581101FB03F3AB
:107D7000134403F5D763434A1A60404A019B41F616
:107D8000581101FB03F3134403F2C4636FF04A027A
:107D90001A603A4A019B41F6581101FB03F3134460
:107DA00003F5DA636FF047021A60344A019B41F62B
:107DB000581101FB03F3134403F5D9636FF0430239
:107DC0001A602E4A019B41F6581101FB03F313443C
:107DD00003F2D4636FF047021A60284A019B41F610
:107DE000581101FB03F3134403F2047300221A60D9
:107DF000224A019B41F6581101FB03F3134403F59A
:107E0000E16300221A701D4A019B41F6581101FBE3
:107E100003F3134403F2097300221A70019B41F625
:107E2000581202FB03F303F5E163144A13440433CD
:107E30002C220021184635F0E1FC104A019B41F646
:107E4000581101FB03F3134403F20A7300221A7062
:107E50000A4A019B41F6581101FB03F3134403F254
:107E6000447301221A70054A019B41F6581101FB27
:107E700003F3134403F23C73002205E010D7002003
:107E80000000F03F00008C421A600D4A019B41F651
:107E9000581101FB03F3134403F5E76300221A6052
:107EA000074A019B41F6581101FB03F3134403F504
:107EB000E86300221A6000BF03B05DF804FB00BF56
:107EC00010D7002000B583B001900198FFF780FA29
:107ED0000198FFF793FB01210198FFF713FC01982C
:107EE000FFF79EFD00BF03B05DF804FB00B583B053
:107EF000154B1B68002B04D11449002006F070FDBF
:107F00001EE0114B1B680193002300930EE0019BC0
:107F10009B680093019B1B681A460D49002006F0E0
:107F20005FFD019835F026FB009B0193019B002B20
:107F3000EDD1054B00221A600649002006F050FDE5
:107F400003B05DF804FB00BF70BB0120E8390600F8
:107F5000003A0600203A060000B587B0039002916F
:107F60001346ADF80630434A039B41F6581101FB16
:107F700003F3134403F5CA5304331B680F2B0ED1CC
:107F8000039B41F6581202FB03F303F5E963394AF8
:107F90001A44039B3849002006F022FD66E0354A6A
:107FA000039B41F6581101FB03F3134403F5C95336
:107FB0001C331B680593059BF62203FB02F2039B0F
:107FC00041F6581101FB03F3134403F52D63294ACD
:107FD0001344BDF806200299184635F0DDFB25490B
:107FE000059A039BF62000FB02F241F6581000FBB5
:107FF00003F313440B4403F6C433BDF806201A8080
:10800000059B5A1C1D4B83FB02131344D910D31735
:10801000C91A0B461B015B1AD11A164A039B41F67B
:10802000581000FB03F3134403F5C9531C331960C4
:10803000104A039B41F6581101FB03F3134403F567
:10804000CA5304331B685A1C0A49039B41F6581053
:1080500000FB03F30B4403F5CA5304331A60084BC7
:108060001B680133064A136000F00CF800BF07B02C
:108070005DF804FB10D70020483A060089888888FC
:10808000F8D5002070B5D2B000234F9300238DF8AF
:108090004331E5E19DF84331C44A41F6581101FBF3
:1080A00003F3134403F5CA531B684F939DF8433100
:1080B000BE494F9AF62000FB02F241F6581000FB31
:1080C00003F313440B4403F6C4331B88002B00F066
:1080D0007F819DF84331062B08D89DF843319BB230
:1080E0004F9918461DF062FC519007E09DF843310E
:1080F0009BB24F9918461BF055FA5190519B132B88
:1081000000F0B381519B082B6FD19DF843314F9AFA
:10811000F62101FB02F241F6581101FB03F313446F
:1081200003F52D63A14A99189DF843319F484F9A52
:10813000F62404FB02F241F6581404FB03F3134443
:10814000034403F6C4331B881D469DF8433197480A
:108150004F9AF62404FB02F241F6581404FB03F391
:108160001344034403F6C4331B881A469DF8433175
:10817000019300922B460A468D49002006F088FEA6
:108180009DF84321894941F6581302FB03F30B4440
:1081900003F5CA5304331B68591E844841F658132B
:1081A00002FB03F3034403F5CA5304331960814B04
:1081B0001B68013B7F4A13604F9B5A1C9DF843018B
:1081C0007D4B83FB02131344D910D317C91A0B46F6
:1081D0001B015B1AD11A754A41F6581300FB03F3D1
:1081E000134403F5CA53196040E1519B002B62D040
:1081F00052ABA3F59E76714B34461D4628686968DC
:10820000AA68EB680FC428696969AA6907C42B7F4B
:10821000237006F11D0340F20F120021184635F0BD
:10822000EDFA1F234E934E9B03AA1344519A6449BF
:10823000184634F0B1FC02464E9B13444E939DF811
:1082400043314F9AF62101FB02F241F6581101FB2E
:1082500003F3134403F52D63544A98189DF84331F2
:1082600052494F9AF62404FB02F241F6581404FBDB
:1082700003F313440B4403F6C4331B881D469DF8D7
:1082800043314A494F9AF62404FB02F241F658144E
:1082900004FB03F313440B4403F6C4331B881A4650
:1082A0009DF8433103A9019300922B46024600201A
:1082B00006F0EEFDDAE0434B1B7883F00103DBB2FE
:1082C000002B3ED0404B1B78002B3AD09DF8433119
:1082D0004F9AF62101FB02F241F6581101FB03F31C
:1082E000134403F52D63314A99189DF843312F4803
:1082F0004F9AF62404FB02F241F6581404FB03F3F0
:108300001344034403F6C4331B881D469DF84331D0
:1083100026484F9AF62404FB02F241F6581404FB57
:1083200003F31344034403F6C4331B881A469DF831
:108330004331019300922B460A462449012006F05E
:10834000A7FD9DF84321194941F6581302FB03F399
:108350000B4403F5CA5304331B68591E134841F6F6
:10836000581302FB03F3034403F5CA5304331960A3
:10837000104B1B68013B0F4A13604F9B5A1C9DF822
:1083800043010D4B83FB02131344D910D317C91AB1
:108390000B461B015B1AD11A044A41F6581300FB25
:1083A00003F3134403F5CA53196045E010D70020C6
:1083B000703A0600F8D5002089888888A83A060017
:1083C000943A060061BB012060BB0120A03A060080
:1083D0009DF84321264941F6581302FB03F30B4451
:1083E00003F5CA5304331B68591E214841F658133C
:1083F00002FB03F3034403F5CA53043319601D4B16
:108400001B68013B1B4A13604F9B5A1C9DF843019C
:10841000194B83FB02131344D910D317C91A0B4607
:108420001B015B1AD11A124A41F6581300FB03F3E1
:10843000134403F5CA5319609DF843310C4A41F6C1
:10844000581101FB03F3134403F5CA5304331B68AB
:10845000002B3FF71FAE9DF8433101338DF84331B8
:108460009DF84331082BE7D900E000BF52B070BD42
:1084700010D70020F8D500208988888810B487B0EC
:108480000390029101920093894A039B41F658118F
:1084900001FB03F313441B68029A9A4202DC854BEA
:1084A0001B6800E1824A039B41F6581101FB03F36C
:1084B00013441B680133029A9A4240F3E6807C4AD7
:1084C000039B41F6581101FB03F3134403F22913F4
:1084D0001B7801337649039A41F6581000FB02F2EB
:1084E0000A44134428331B78002B17D1704A039B8E
:1084F00041F6581101FB03F3134403F229131B78CF
:108500001C46019BD8B26A4A039B41F6581101FBF5
:1085100003F313442344283302461A70644A039B2E
:1085200041F6581101FB03F3134403F5AB631B78C9
:1085300083F00103DBB2002B00F0AA805C4A039BAE
:1085400041F6581101FB03F313441B68DBB20133FE
:108550008DF8173092E0564A039B41F6581101FB03
:1085600003F3134403F594731B781846504A039B96
:1085700041F6581101FB03F31344034428339DF8DB
:1085800017201A704A4A039B41F6581101FB03F366
:10859000134403F229131B7801334549039A41F62A
:1085A000581000FB02F20A441A44283212780132B1
:1085B000D4B23F49039A41F6581000FB02F20A4434
:1085C0001344283322461A70394A039B41F6581146
:1085D00001FB03F3134403F594731B780133D8B202
:1085E000334A039B41F6581101FB03F3134403F58F
:1085F000947302461A702E4A039B41F6581101FBF0
:1086000003F3134403F594731B78F22B31D19DF8D7
:1086100017300133D8B2264A039B41F6581101FBAB
:1086200003F3134403F21B1302461A709DF817203C
:108630001F49039B41F6581000FB03F30B441A60DB
:108640001B4A039B41F6581101FB03F3134403F249
:108650002C531B68D8B2164A039B41F6581101FBF4
:1086600003F3134403F58D7302461A70124B1B6813
:1086700019E09DF8173001338DF817309DF8173049
:10868000029A9A423FF767AF02E00C4B1B680AE080
:10869000074A039B41F6581101FB03F31344029A66
:1086A0001A60074B1B68184607B05DF8044B70470B
:1086B00010D70020FCD5002038A7002030A70020CC
:1086C00034A7002000B587B00390029101928DF885
:1086D00003309DF80330002B02D0029B013302933C
:1086E0008F4A039B41F6581101FB03F3134403F235
:1086F0002C531B680133019A9A4240F0EB80884A60
:10870000039B41F6581101FB03F3134403F22C536E
:108710001A688349039B41F6581000FB03F30B448E
:108720001B68FF210398FFF7A9FE05907D4B1B688E
:10873000059A9A4201D1059BEEE0794A039B41F6E6
:10874000581101FB03F3134403F22C531B685A1C0A
:108750007349039B41F6581000FB03F30B4403F2EB
:108760002C531A606E4A039B41F6581101FB03F328
:1087700013444FF0FF321A60694A039B41F65811C7
:1087800001FB03F3134403F229131B7801336449FB
:10879000039A41F6581000FB02F20A4413442833AE
:1087A0001B78002B41D05E4A039B41F6581101FB18
:1087B00003F3134403F594731878594A039B41F665
:1087C000581101FB03F3134403F2291302461A70F4
:1087D000534A039B41F6581101FB03F3134403F280
:1087E00029131B7801334E49039A41F6581000FBB8
:1087F00002F20A441344283300221A70484A039BA9
:1088000041F6581101FB03F3134403F594731B78ED
:108810000233D8B2424A039B41F6581101FB03F3DD
:10882000134403F5947302461A704FF0FF33019A14
:1088300002990398FFF722FE0490029B002B01DDB2
:10884000049B0593384B1B68049A9A4250D19DF8BB
:108850000330002B4CD0324A039B41F6581101FBE8
:1088600003F3134403F594731B78013B2C49039ADB
:1088700041F6581000FB02F20A44134428331B78D7
:108880001846274A039B41F6581101FB03F3134492
:108890001B6898422CDD224A039B41F6581101FBCC
:1088A00003F3134403F594731B78013B1C49039AAB
:1088B00041F6581000FB02F20A44134428331B7897
:1088C0001846174A039B41F6581101FB03F3134462
:1088D00018600DE0124A039B41F6581101FB03F3A7
:1088E00013441B68019A02990398FFF7C7FD05908E
:1088F0000D4B1B68059A9A420DD19DF80330002B51
:1089000009D0029B5A1E0649039B41F6581000FBF2
:1089100003F30B441A60059B184607B05DF804FB8F
:1089200010D7002038A7002034A7002000B583B05E
:10893000584B01221A60584B6FF04A021A62564B8C
:108940006FF043025A62544B6FF047029A62524BE7
:108950001422DA6244F6206300930023FA22FA21FB
:108960004E480AF065FC4E4B01221A704D4B012215
:108970001A704D4B06221A604C4B06221A60494B66
:108980000A221A704A4B00221A70424B00221A60C7
:1089900047F23053009302234FF47A724FF47A7106
:1089A00044480AF045FC44F62063009302234FF448
:1089B0007A724FF47A7140480AF03AFC44F6206328
:1089C000009302234FF47A724FF47A713B480AF015
:1089D0002FFC42F2107300930023FA22FA21384848
:1089E0000AF026FC42F2107300930023FA22FA21C7
:1089F00034480AF01DFC0AF087FC274BDB6A184656
:108A000008F0DEF8304B50225A70264B1A782E4B65
:108A10009A70264B1B68DAB22B4BDA70224B1B681C
:108A2000DAB2294B1A71F4226121284834F0E6FEAB
:108A3000264B00221A70254B00225A70234B5022DD
:108A40009A70154B00221A60134B00225A60124B89
:108A500000229A60104B0022DA600F4B00221A614C
:108A60000D4B00225A610C4B00229A610A4B0022E6
:108A7000DA61174B06221A60154B1A680A4B1B68FD
:108A80009A4203DD084B1B68114A136000BF03B014
:108A90005DF804FB6CA7002028BB012020D3002038
:108AA00008D700205FBB0120D4D20020D0D2002004
:108AB00060BB012010D3002018D3002038D3002041
:108AC00030D3002028D30020F0A6002014D60020A8
:108AD000D8D20020F0B589B007900691A44A079B30
:108AE00041F6581101FB03F3134403F255530022DE
:108AF0001A709F4A079B41F6581101FB03F3134478
:108B000003F2575300221A70994A079B41F65811F5
:108B100001FB03F3134403F2595300221A70944AE1
:108B2000079B41F6581101FB03F3134403F5AB63B4
:108B300000221A708E4A079B41F6581101FB03F37D
:108B4000134403F2565300221A70894A079B41F6D8
:108B5000581101FB03F3134403F5AA63069A1A6044
:108B6000069B042B00F2BA8401A252F823F000BF46
:108B7000858B02007F8C0200AB9102005D930200A6
:108B80001D9402007A4A079B41F6581101FB03F33A
:108B9000134403F5D46303221A60754A079B41F618
:108BA000581101FB03F3134403F2F16300221A701E
:108BB0006F4A079B41F6581101FB03F3134403F579
:108BC000DA636FF043021A60694A079B41F6581155
:108BD00001FB03F3134403F2C4636FF046021A600F
:108BE000634A079B41F6581101FB03F3134403F555
:108BF000D9636FF03F021A605D4A079B41F6581136
:108C000001FB03F3134403F2555301221A70584A2F
:108C1000079B41F6581101FB03F3134403F24E7313
:108C20001B78562B0BD1524A079B41F6581101FB7A
:108C300003F3134403F24E731B78472B04D0142123
:108C4000079808F02BF803E03221079808F026F87F
:108C5000079B41F6581202FB03F303F5EC63444A09
:108C60001A44079B41F6581101FB03F303F69823BE
:108C70003F490B440433194610460BF08DFA3C4A29
:108C8000079B41F6581101FB03F3134403F24E73A3
:108C90001B78562B0BD1364A079B41F6581101FB26
:108CA00003F3134403F24E731B78472B62D0304A10
:108CB000079B41F6581101FB03F3134403F5DA63F4
:108CC0006FF047021A602A4A079B41F6581101FBD0
:108CD00003F3134403F2C4636FF04A021A60244A98
:108CE000079B41F6581101FB03F3134403F5D963C5
:108CF0006FF043021A601E4A079B41F6581101FBB0
:108D000003F3134403F2F16301221A70184A079B1C
:108D100041F6581101FB03F3134403F5D463012218
:108D20001A60134A079B41F6581101FB03F31344E1
:108D300003F24E731B784D2B04D10A21079807F0DC
:108D4000ADFF31E00A4A079B41F6581101FB03F3DE
:108D5000134403F24E731B78432B04D1052107986B
:108D600007F09CFF20E01421079807F097FF1BE015
:108D700010D70020CC4A079B41F6581101FB03F3A2
:108D8000134403F2F16300221A703221079807F0AE
:108D900085FFC54A079B41F6581101FB03F31344B5
:108DA00003F5D46303221A60C04B1B78002B00F03C
:108DB000D681079B41F6581202FB03F303F5EC63DF
:108DC000B94A1A44079B41F6581101FB03F303F516
:108DD0002B63B5490B440433194610460BF0DCF9FC
:108DE000079B41F6581202FB03F303F5EC63AE4A0E
:108DF0001A44079B41F6581101FB03F303F52B635B
:108E0000A9490B440433194610460BF0C3FA034634
:108E10001A46A749012005F0E3FD079B41F65812C9
:108E200002FB03F303F5E9639F4A98189E4A079BE8
:108E300041F6581101FB03F3134403F5EC631B885F
:108E40001A4640F2E24302FB03F39A4A82FB031202
:108E50009211DB17D21A9449079B41F6581404FB70
:108E600003F30B4403F262731B88194640F2E2439A
:108E700001FB03F38F4981FB03418911DB17C91AF9
:108E8000894C079B41F6581505FB03F3234403F275
:108E900064731B881E46844C079B41F6581505FBDE
:108EA00003F3234403F266731B881C4623469B008E
:108EB00023445B000393029601910092079B0246B4
:108EC0007D49012005F08CFD079B41F6581202FBFD
:108ED00003F303F5E963744A9818734A079B41F654
:108EE000581101FB03F3134403F6B4231B881A46FD
:108EF00040F2E24302FB03F36E4A82FB031292113B
:108F0000DB17D21A6849079B41F6581404FB03F398
:108F10000B4403F6B6231B88194640F2E24301FBDB
:108F200003F3644981FB03418911DB17C91A5E4CC5
:108F3000079B41F6581505FB03F3234403F6B823BA
:108F40001B881E46584C079B41F6581505FB03F33A
:108F5000234403F6BA231B881C4623469B00234464
:108F60005B000393029601910092079B02465249CF
:108F7000012005F035FD5149012005F031FD079B29
:108F800041F6581202FB03F303F5EC63464A1A4418
:108F9000079B41F6581101FB03F303F52B6342498C
:108FA0000B440433194610460BF05EF9079B41F65B
:108FB000581202FB03F303F5EC633B4A1A44079B88
:108FC00041F6581101FB03F303F52B6336490B44BB
:108FD0000433194610460BF0DDF903461A463449AE
:108FE000012005F0FDFC079B41F6581202FB03F33C
:108FF00003F5E9632C4A98182B4A079B41F6581150
:1090000001FB03F3134403F5EC631B881A4640F29B
:10901000E24302FB03F3274A82FB03129211DB17A0
:10902000D21A2149079B41F6581404FB03F30B4461
:1090300003F262731B88194640F2E24301FB03F31B
:109040001C4981FB03418911DB17C91A164C079B88
:1090500041F6581505FB03F3234403F264731B88A0
:109060001E46114C079B41F6581505FB03F323449C
:1090700003F266731B881C4623469B0023445B0057
:109080000393029601910092079B02460A49012030
:1090900005F0A6FC079B41F6581202FB03F303F50B
:1090A000E963014A98180BE010D7002008D7002088
:1090B000C83A0600D34D6210F03A06003C3B060069
:1090C0007D4A079B41F6581101FB03F3134403F655
:1090D000B4231B881A4640F2E24302FB03F3774AAB
:1090E00082FB03129211DB17D21A7349079B41F6D8
:1090F000581404FB03F30B4403F6B6231B881946EC
:1091000040F2E24301FB03F36C4981FB0341891107
:10911000DB17C91A684C079B41F6581505FB03F38A
:10912000234403F6B8231B881E46634C079B41F675
:10913000581505FB03F3234403F6BA231B881C468A
:1091400023469B0023445B00039302960191009207
:10915000079B02465A49012005F042FC1AE0079B92
:1091600041F6581202FB03F303F5EC63524A1A442A
:10917000079B41F6581101FB03F303F52A634E499F
:109180000B440433194610460BF006F84D490120F4
:1091900005F026FC484A079B41F6581101FB03F3F2
:1091A000134403F2575301221A70434A079B41F6B6
:1091B000581101FB03F3134403F2F16300221A7008
:1091C0003D4A079B41F6581101FB03F3134403F595
:1091D000D46303221A60384A079B41F6581101FBF9
:1091E00003F3134403F5DA636FF043021A60324A63
:1091F000079B41F6581101FB03F3134403F2C463C8
:109200006FF046021A602C4A079B41F6581101FB89
:1092100003F3134403F5D9636FF03F021A60264A43
:10922000079B41F6581101FB03F3134403F24E73FD
:109230001B784D2B0BD0204A079B41F6581101FBA0
:1092400003F3134403F24E731B78432B3CD11A4AA9
:10925000079B41F6581101FB03F3134403F5D46354
:1092600001221A601421079807F018FD124A079B83
:1092700041F6581101FB03F3134403F5DA636FF071
:1092800047021A600C4A079B41F6581101FB03F391
:10929000134403F2C4636FF04A021A60064A079B44
:1092A00041F6581101FB03F3134403F5D9636FF042
:1092B00043021A6030E000BF10D70020D34D621087
:1092C000F03A0600543B0600CC4A079B41F6581181
:1092D00001FB03F3134403F24E731B78452B17D0A5
:1092E000C64A079B41F6581101FB03F3134403F2EE
:1092F0004E731B784C2B0BD0C04A079B41F658117C
:1093000001FB03F3134403F24E731B78522B03D17A
:109310003221079807F0C2FC079B41F6581202FB66
:1093200003F303F5EC63B54A1A44079B41F6581161
:1093300001FB03F303F6A823B0490B440433194699
:1093400010460AF029FFAD4A079B41F6581101FB70
:1093500003F3134403F5AB6301221A70A74A079B7A
:1093600041F6581101FB03F3134403F25653012253
:109370001A703221079807F091FCA04A079B41F62A
:10938000581101FB03F3134403F2F16300221A7036
:109390009A4A079B41F6581101FB03F3134403F566
:1093A000D46303221A60954A079B41F6581101FBCA
:1093B00003F3134403F5DA636FF043021A608F4A34
:1093C000079B41F6581101FB03F3134403F2C463F6
:1093D0006FF046021A60894A079B41F6581101FB5B
:1093E00003F3134403F5D9636FF03F021A60079B40
:1093F00041F6581202FB03F303F5EC637F4A1A446B
:10940000079B41F6581101FB03F303F698237B49B0
:109410000B440433194610460AF0BEFE1421079887
:1094200007F03CFC754A079B41F6581101FB03F31A
:10943000134403F2595301221A70704A079B41F6F4
:10944000581101FB03F3134403F5D46301221A609E
:109450006A4A079B41F6581101FB03F3134403F5D5
:10946000DA636FF047021A60644A079B41F65811AD
:1094700001FB03F3134403F2C4636FF04A021A6062
:109480005E4A079B41F6581101FB03F3134403F5B1
:10949000D9636FF043021A60079B41F6581202FB32
:1094A00003F303F5EC63554A1A44079B41F6581140
:1094B00001FB03F303F6B82350490B440433194668
:1094C00010460AF069FE4D4A079B41F6581101FB10
:1094D00003F3134403F2F16300221A70079B41F671
:1094E000581202FB03F303F5E963444A9F18434A09
:1094F000079B41F6581101FB03F3134403F69C2329
:109500001B881A4640F2E24302FB03F33C4A82FB0B
:1095100003129211DB17D21A3849079B41F65810F3
:1095200000FB03F30B4403F6A4231B88194640F207
:10953000E24301FB03F3324981FB03018911DB178D
:10954000C91A2E48079B41F6581404FB03F3034441
:1095500003F6AC231B88184640F2E24300FB03F3FA
:10956000274880FB03408011DB17C01A234C079B60
:1095700041F6581505FB03F3234403F6B4231B8877
:109580001C4640F2E24304FB03F31D4C84FB0354EE
:10959000A411DB17E41A194D079B41F6581606FB78
:1095A00003F32B4403F6BC231B881D4640F2E24321
:1095B00005FB03F3124D85FB0365AD11DB17ED1AB7
:1095C0000E4E079B41F6581C0CFB03F3334403F586
:1095D000EC631B881E4640F2E24306FB03F3084E91
:1095E00086FB03C6B611DB17F31A059304950394A3
:1095F000029001910092079B3A4603E010D70020A9
:10960000D34D62109049012005F0EAF9079B41F61D
:10961000581202FB03F303F5E9638C4A99188B4A4D
:10962000079B41F6581000FB03F3134403F5EC636A
:109630001B881A4640F2E24302FB03F3844A82FB92
:1096400003029211DB17D31A0093069B0A46814945
:10965000012005F0C5F9069B012B40F0F280079B25
:1096600041F6581202FB03F303F5EC63774A9818AE
:10967000764A079B41F6581101FB03F3134403F6A6
:10968000B4231B881C46714A079B41F6581101FB05
:1096900003F3134403F6B6231B881D466B4A079B4E
:1096A00041F6581101FB03F3134403F6B8231B885A
:1096B0001E46664A079B41F6581101FB03F313440B
:1096C00003F6BA231B88009333462A46214609F045
:1096D000AFFD079B41F6581202FB03F303F5E96364
:1096E0005A4A9F18594A079B41F6581101FB03F348
:1096F000134403F69C231B881A4640F2E24302FB04
:1097000003F3534A82FB03129211DB17D21A4F491B
:10971000079B41F6581000FB03F30B4403F6A42308
:109720001B88194640F2E24301FB03F3484981FBE1
:1097300003018911DB17C91A4448079B41F65814E5
:1097400004FB03F3034403F6AC231B88184640F2E2
:10975000E24300FB03F33E4880FB03408011DB172C
:10976000C01A3A4C079B41F6581505FB03F32344F6
:1097700003F6B4231B881C4640F2E24304FB03F3C8
:10978000334C84FB0354A411DB17E41A2F4D079BC1
:1097900041F6581606FB03F32B4403F6BC231B8843
:1097A0001D4640F2E24305FB03F3294D85FB0365AB
:1097B000AD11DB17ED1A254E079B41F6581C0CFB2B
:1097C00003F3334403F5EC631B881E4640F2E24387
:1097D00006FB03F31E4E86FB03C6B611DB17F31A16
:1097E000059304950394029001910092079B3A46D9
:1097F0001949012005F0F4F8079B41F6581202FBC5
:1098000003F303F5E963114A9918104A079B41F6DF
:10981000581000FB03F3134403F5EC631B881A464E
:1098200040F2E24302FB03F3094A82FB0302921176
:10983000DB17D31A0093069B0A460849012005F05E
:10984000CFF800BF09B0F0BD703B060010D7002074
:10985000D34D6210D83B0600003C06006C3C06006D
:10986000F0B58FB009900891099B41F6581202FBA0
:1098700003F303F6B823974A1344181D44F62063F4
:1098800000930023FA22FA2109F0D2FC099B0193EC
:10989000052300930523089A8F49012005F0F8FA63
:1098A00002238DF83430089B01331B78562B40F08F
:1098B0008F80099B41F6581202FB03F303F5E9631D
:1098C000844A1344854A1068186092889A80814AB5
:1098D000099B41F6581101FB03F3134403F5E863B8
:1098E00003221A607B4A099B41F6581101FB03F3DE
:1098F000134403F2375303221A70794B1B78002B61
:1099000000F03E84734A099B41F6581101FB03F3B2
:10991000134403F24E731B78FF2B40F03184714BDC
:109920001B7883F00103DBB2002B00F02984099B34
:1099300041F6581202FB03F303F69823654A1344D9
:10994000181D44F62063009304234FF4FA624FF489
:10995000FA6109F06DFC099B41F6581202FB03F312
:1099600003F52A635B4A1344181D44F620630093F1
:1099700004234FF4FA624FF4FA6109F059FC099B91
:1099800041F6581202FB03F303F6A823514A13448D
:10999000181D44F62063009304234FF4FA624FF439
:1099A000FA6109F045FC099B41F6581202FB03F3EA
:1099B00003F52B63474A1344181D44F620630093B4
:1099C00004234FF4FA624FF4FA6109F031FCD7E353
:1099D000089B01331B784D2B40F08880099B41F692
:1099E000581202FB03F303F5E9633A4A13443E4A73
:1099F0001068186092889A80364A099B41F658117F
:109A000001FB03F3134403F5CA530C330C221A6011
:109A1000304A099B41F6581101FB03F3134403F547
:109A2000E86309221A602B4A099B41F6581101FB91
:109A300003F3134403F2375301221A70099B41F6D2
:109A4000581202FB03F303F69823224A1344181D0D
:109A500047F23053009300234FF47A724FF47A7137
:109A600009F0E6FB099B41F6581202FB03F303F5EC
:109A70002A63184A1344181D40F6B8330093002394
:109A80006422642109F0D4FB099B41F6581202FBC1
:109A900003F303F52B630F4A1344181D44F62063A8
:109AA000009300233222322109F0C2FB099B41F6C8
:109AB000581202FB03F303F6A823064A1344181DA9
:109AC00044F6206300930423FA22FA2109F0B0FB44
:109AD00056E300BF10D700209C3C0600B83C0600AF
:109AE00060BB012061BB0120C03C0600089B013324
:109AF0001B78432B40F0E580099B41F6581202FB8E
:109B000003F303F5E963B04A1344B04A10681860E0
:109B100092889A80099B9AB2AD4B1A80AA4A099BF7
:109B200041F6581101FB03F3134403F237530022AB
:109B30001A70099B41F6581202FB03F303F69823AF
:109B4000A14A1344181D47F23053009300234FF4E9
:109B50007A724FF47A7109F06BFB099B41F6581247
:109B600002FB03F303F52A63974A1344181D44F6D6
:109B70002063009300233222322109F059FB099B14
:109B800041F6581202FB03F303F52B638E4A13448C
:109B9000181D44F62063009300233222322109F07D
:109BA00047FB099B41F6581202FB03F303F6A82377
:109BB000854A1344181D44F6206300930423FA22B7
:109BC000FA2109F035FB099B41F6581202FB03F319
:109BD00003F5E9637C4A9E187B4A099B41F65811BC
:109BE00001FB03F3134403F69C231B881A4640F23F
:109BF000E24302FB03F3774A82FB03129211DB1765
:109C0000D21A7149099B41F6581000FB03F30B442B
:109C100003F6A4231B88194640F2E24301FB03F339
:109C20006C4981FB03018911DB17C91A6648099B3E
:109C300041F6581404FB03F3034403F6AC231B88DA
:109C4000184640F2E24300FB03F3624880FB034006
:109C50008011DB17C01A5C4C099B41F6581505FBB7
:109C600003F3234403F6B4231B881C4640F2E2436B
:109C700004FB03F3574C84FB0354A411DB17E41AD1
:109C8000514D099B41F6581707FB03F32B4403F68C
:109C9000BC231B881D4640F2E24305FB03F34D4DF8
:109CA00085FB0375AD11DB17EB1A04930394029047
:109CB00001910092099B32464749012004F090FE31
:109CC0005EE2089B01331B784C2B40F089803E4AB2
:109CD000099B41F6581101FB03F3134403F2375378
:109CE00002221A70099B41F6581202FB03F303F596
:109CF000E963354A1344394A1068186092889A809B
:109D0000099B41F6581202FB03F303F698232E4AEF
:109D10001344181D42F21073009302234FF47A7219
:109D20004FF47A7109F084FA099B41F6581202FB4C
:109D300003F303F52A63244A1344181D47F23053F2
:109D400000930023FA22FA2109F072FA099B41F6E6
:109D5000581202FB03F303F52B631B4A1344181D2F
:109D600044F6206300930023FA22FA2109F060FAF6
:109D7000099B41F6581202FB03F303F6A823124A8B
:109D80001344181D42F21073009302234FF47A72A9
:109D90004FF47A7109F04CFA0B4A099B41F65811BD
:109DA00001FB03F3134403F5CA530C3308221A6072
:109DB000054A099B41F6581101FB03F3134403F5CF
:109DC000E86305221A60DBE110D70020C83C0600DA
:109DD00040A70020D34D6210D03C06002C3D060069
:109DE000089B01331B78522B7CD1099B41F65812FA
:109DF00002FB03F303F5E963C24A1344C24A106845
:109E0000186092889A80BF4A099B41F6581101FB5D
:109E100003F3134403F2375302221A70099B41F6ED
:109E2000581202FB03F303F69823B64A1344181D95
:109E300042F21073009302234FF47A724FF47A7156
:109E400009F0F6F9099B41F6581202FB03F303F5FA
:109E50002A63AC4A1344181D47F230530093002381
:109E6000FA22FA2109F0E4F9099B41F6581202FBA3
:109E700003F303F52B63A34A1344181D47F2305331
:109E800000930023FA22FA2109F0D2F9099B41F646
:109E9000581202FB03F303F6A8239A4A1344181D31
:109EA00042F21073009302234FF47A724FF47A71E6
:109EB00009F0BEF9934A099B41F6581101FB03F3DF
:109EC000134403F5CA530C3308221A608D4A099BC8
:109ED00041F6581101FB03F3134403F5E86305222F
:109EE0001A604DE1089B01331B78452B7CD1099BFF
:109EF00041F6581202FB03F303F5E963814A134468
:109F0000824A1068186092889A807E4A099B41F6BE
:109F1000581101FB03F3134403F2375302221A7062
:109F2000099B41F6581202FB03F303F69823754A86
:109F30001344181D42F21073009302234FF47A72F7
:109F40004FF47A7109F074F9099B41F6581202FB3B
:109F500003F303F52B636B4A1344181D47F2305388
:109F600000930023FA22FA2109F062F9099B41F6D5
:109F7000581202FB03F303F52A63624A1344181DC7
:109F800047F2305300930023FA22FA2109F050F9E6
:109F9000099B41F6581202FB03F303F6A823594A22
:109FA0001344181D42F21073009302234FF47A7287
:109FB0004FF47A7109F03CF9524A099B41F6581165
:109FC00001FB03F3134403F5CA530C3308221A6050
:109FD0004C4A099B41F6581101FB03F3134403F566
:109FE000E86305221A60CBE0089B01331B78472BFE
:109FF00074D1099B41F6581202FB03F303F5E963A0
:10A00000404A1344424A1068186092889A803D4A38
:10A01000099B41F6581101FB03F3134403F2375334
:10A0200001221A70374A099B41F6581101FB03F3CC
:10A03000134403F5E86303221A60099B41F65812A2
:10A0400002FB03F303F698232E4A1344181D44F62B
:10A050002063009304234FF4FA624FF4FA6109F08D
:10A06000E7F8099B41F6581202FB03F303F52B6353
:10A07000244A1344181D44F62063009304234FF42C
:10A08000FA624FF4FA6109F0D3F8099B41F65812CD
:10A0900002FB03F303F52A631A4A1344181D44F61E
:10A0A0002063009304234FF4FA624FF4FA6109F03D
:10A0B000BFF8099B41F6581202FB03F303F6A823ED
:10A0C000104A1344181D44F62063009304234FF4F0
:10A0D000FA624FF4FA6109F0ABF851E0089B0133E2
:10A0E0001B78582B18D1099B41F6581202FB03F339
:10A0F00003F5E963034A1344064A1068186092881E
:10A100009A803DE010D70020343D06003C3D06001B
:10A11000443D06004C3D0600089B01331B78502B44
:10A120001CD1099B41F6581202FB03F303F5E963C6
:10A130000F4A13440F4A1068186092889A800C4A9C
:10A14000099B41F6581101FB03F3134403F2375303
:10A150000A221A70084B01221A7011E0089B013381
:10A160001B781A460549002004F03AFC48E300BF7A
:10A1700010D70020543D060009D700205C3D0600A2
:10A18000C14B1A68C149099B41F6581000FB03F303
:10A190000B4403F5D0631A60BC4A099B41F6581181
:10A1A00001FB03F3134403F24E731A78089B013347
:10A1B0001B789A420CD1B54A099B41F6581101FB14
:10A1C00003F3134403F5EB631B78002B40F0178374
:10A1D000AE4A099B41F6581101FB03F3134403F205
:10A1E0004E731A78089B01331B789A4200F0D6828E
:10A1F000089B01331878A54A099B41F6581101FBC9
:10A2000003F3134403F24E7302461A709F4A099BEC
:10A2100041F6581101FB03F3134403F24E731B780C
:10A22000502B00F04F82089B03331B781846974A47
:10A23000099B41F6581101FB03F3134403F5D36363
:10A240001860089B04331B781846904A099B41F616
:10A25000581101FB03F3134403F294631860089B45
:10A2600002331B78002B40F05281884A099B41F64B
:10A27000581101FB03F3134403F2375300221A7001
:10A28000099B9AB2824B1A80824B1A6A7F49099BBA
:10A2900041F6581000FB03F30B4403F2C4631A6049
:10A2A0007C4B5A6A7949099B41F6581000FB03F32D
:10A2B0000B4403F5D9631A60764B9A6A7349099B7C
:10A2C00041F6581000FB03F30B4403F5DA631A6000
:10A2D000704BDB6A1946099806F0E0FC0AAB0022D5
:10A2E0001A605A601A81694A099B41F6581101FBAC
:10A2F00003F3134403F5DD63D3ED007AFDEEE77A53
:10A30000CDED077A9DF81C305BB21C465F4A099B75
:10A3100041F6581101FB03F3134403F5DD63D3ED5C
:10A32000007AB2EE047A67EE877AFDEEE77ACDED39
:10A33000077A9DF81C305AB2574B83FB02139910D1
:10A34000D317C91A0B469B000B445B00D31A5BB2B0
:10A350001D464E4A099B41F6581101FB03F3134475
:10A3600003F5DD63D3ED007A9FED4C7A67EE877AD3
:10A37000FDEEE77ACDED077A9DF81C305AB2464BD8
:10A3800083FB02139910D317C91A0B469B000B4489
:10A390005B00D31A5BB20AA800932B4622464049C1
:10A3A00032F0FAFB099B41F6581202FB03F303F566
:10A3B000E963364A9818354A099B41F6581101FB62
:10A3C00003F3134403F5DC631C68304A099B41F630
:10A3D000581101FB03F3134403F2C4631B682B49B8
:10A3E000099A41F6581505FB02F20A4402F5D962B2
:10A3F0001268264D099941F6581606FB01F12944C9
:10A4000001F5DA6109680391029201930AAB0093A6
:10A41000234602462349012004F0E2FA1B4A099B25
:10A4200041F6581101FB03F3134403F5DA631B688B
:10A4300007EE903AF8EEE77A144A099B41F6581174
:10A4400001FB03F3134403F5D763C3ED007A0F4A0E
:10A45000099B41F6581101FB03F3134403F2BC635B
:10A460004FF0FF321A60089B01331B781D46074AE4
:10A47000099B41F6581101FB03F3134403F24E7399
:10A480001B781E4610E000BFD8D2002010D7002055
:10A4900040A7002028BB0120676666660000C8420E
:10A4A000783D0600803D0600B44A099B41F65811EC
:10A4B00001FB03F3134403F5EB631B781846AF4A23
:10A4C000099B41F6581101FB03F3134403F5D363D1
:10A4D0001B68AB4AD3561C46A84A099B41F6581143
:10A4E00001FB03F3134403F294631B68A44AD3569D
:10A4F00002930194009033462A46A249012004F0B9
:10A500006FFA0AF0BFFE00200AF088FEA6E09B4A20
:10A51000099B41F6581101FB03F3134403F2325334
:10A5200001221A70954A099B41F6581101FB03F369
:10A53000134403F5EB631B7883F00103DBB2002BBC
:10A5400034D08E4A099B41F6581101FB03F31344A2
:10A5500003F237531B78012B05D18B4B1B6801335A
:10A56000894A136022E0854A099B41F6581101FB94
:10A5700003F3134403F237531B78022B05D1824BAC
:10A580009B680133804A936010E07C4A099B41F646
:10A59000581101FB03F3134403F237531B78032BC9
:10A5A00004D1794BDB680133774AD3600AF06AFE45
:10A5B00000200AF033FE714A099B41F6581101FB55
:10A5C00003F3134403F5D7634FF000021A606B4A9C
:10A5D000099B41F6581101FB03F3134403F2BC63DA
:10A5E00000221A60089B01331B781D46634A099BB1
:10A5F00041F6581101FB03F3134403F24E731B7829
:10A600001E465E4A099B41F6581101FB03F31344B1
:10A6100003F5EB631B781846584A099B41F658111D
:10A6200001FB03F3134403F5D3631B68544AD35669
:10A630001C46524A099B41F6581101FB03F313448F
:10A6400003F294631B684E4AD35602930194009020
:10A6500033462A464D49012004F0C2F9474A099B76
:10A6600041F6581101FB03F3134403F284631B68A2
:10A67000062B40F0B880414A099B41F6581101FB76
:10A6800003F3134403F294631B68052B0EDC089B51
:10A6900004331B781846394A099B41F6581101FBCF
:10A6A00003F3134403F2846318609CE0334A099B6C
:10A6B00041F6581101FB03F3134403F284630622AD
:10A6C0001A6090E02D4A099B41F6581101FB03F3F3
:10A6D000134403F2BC634FF0FF321A60274A099B10
:10A6E00041F6581101FB03F3134403F2C4636FF006
:10A6F0006D021A60214A099B41F6581101FB03F3D0
:10A70000134403F5D9634FF0FF321A601B4A099BCB
:10A7100041F6581101FB03F3134403F27563012260
:10A720001A70099B9AB21A4B1A801A4B01221A709E
:10A73000089B01331B781846104A099B41F65811B3
:10A7400001FB03F3134403F24E731B781C460B4AC0
:10A75000099B41F6581101FB03F3134403F5EB6326
:10A760001B781A46089B02331B78019300922346FC
:10A7700002460949012004F033F934E010D70020E3
:10A78000DCD20020BC3D060028BB0120043E0600B0
:10A790003CA7002009D70020503E0600089B01334B
:10A7A0001B781846174A099B41F6581101FB03F321
:10A7B000134403F24E731B781C46124A099B41F660
:10A7C000581101FB03F3134403F5EB631B781A469E
:10A7D000089B02331B7801930092234602460A49E4
:10A7E000012004F0FDF8074A099B41F6581101FBCE
:10A7F00003F3134403F5EB6301221A7000E000BF7A
:10A800000FB0F0BD10D70020903E060084B0034684
:10A810008DF80730002303930823029334E01E4A87
:10A82000029B41F6581101FB03F3134403F24E73EC
:10A830001B789DF807209A4202D19DF8073027E047
:10A84000154A029B41F6581101FB03F3134403F22E
:10A850004E731B78FF2B14D10F4A029B41F65811FF
:10A8600001FB03F3134403F5EB631B7883F001034F
:10A87000DBB2002B05D0029A039B9A4201DB029BBC
:10A880000393029B013B0293029B002BC7DD039BBA
:10A89000184604B0704700BF10D7002082B00346AE
:10A8A0008DF807309DF80730433B132B3AD801A2AF
:10A8B00052F823F00DA9020025A9020019A90200EF
:10A8C00025A902001DA9020025A9020025A9020050
:10A8D00025A9020025A9020011A9020009A9020068
:10A8E00025A9020025A9020021A9020025A902002C
:10A8F00015A9020025A9020025A9020025A9020028
:10A9000005A90200094B0EE0094B0CE0094B0AE0D7
:10A91000094B08E0094B06E0094B04E0094B02E053
:10A92000094B00E0094B184602B07047B83C0600DE
:10A93000C03C0600C83C06002C3D0600343D060025
:10A940003C3D0600443D0600543D0600E03906004B
:10A9500000B5B9B0019000238DF8DF30414A03AB58
:10A960001068516803C3127A1A700DF11503BF22E3
:10A970000021184632F042FF03AB184632F05AFE6F
:10A98000024603AB1344019A3749184632F004F9E2
:10A9900007233593002336933DE0344A369B52F823
:10A9A000233005220199184632F081FE0346002B20
:10A9B0000CD12E4A369B2E4942F823102D490120F6
:10A9C00004F00EF801238DF8DF3021E0274A369B92
:10A9D00052F8233005222649184632F068FE034615
:10A9E000002B15D0214A369B52F8232003AB114689
:10A9F000184632F035FE03AB184632F01BFE034614
:10AA00001A4603AB13441C4A1188927819809A7035
:10AA1000369B01333693369A359B9A42BDDB9DF8BF
:10AA2000DF30002B1AD003AB184632F003FE03468A
:10AA3000023BE0336B445D2203F8D42C03AB184691
:10AA400032F0F8FD0346013BE0336B44002203F88B
:10AA5000D42C03AB1946012003F0C2FF00BF39B06C
:10AA60005DF804FB403F0600183F06004CA700209D
:10AA7000E0390600383F06003C3F060082B007235D
:10AA800000930023019307E0074A019B074942F81E
:10AA90002310019B01330193019A009B9A42F3DB3F
:10AAA00000BF00BF02B070474CA70020E03906008D
:10AAB00000B585B00023039307230193002302937D
:10AAC00011E0104A029B52F8233005220E49184625
:10AAD00032F0EDFD0346002B02D0039B01330393BC
:10AAE000029B01330293029A019B9A42E9DB039A8B
:10AAF0000649012003F074FF039B184605B05DF87A
:10AB000004FB00BF4CA70020E03906004C3F0600C4
:10AB100000B5B5B0284A6B461068516803C3118967
:10AB2000927A19809A700DF10B03BD22002118460C
:10AB300032F064FE072332930023339318E01F4A58
:10AB4000339B52F823206B461146184632F088FD9D
:10AB50006B46184632F06EFD03461A466B461344A8
:10AB6000174A1188927819809A70339B0133339376
:10AB7000339A329B9A42E2DB6B46184632F05AFD1A
:10AB80000346023BD0336B445D2203F8D02C6B4666
:10AB9000184632F04FFD0346013BD0336B44002290
:10ABA00003F8D02C6B461946012003F019FF00BFB3
:10ABB00035B05DF804FB00BF683F06004CA70020DD
:10ABC0003C3F060000B5B9B0019000238DF8DF309E
:10ABD000594A03AB106818609188927999809A71EC
:10ABE0000DF11303C1220021184632F007FE03AB1A
:10ABF000184632F01FFD024603AB1344019A4F4939
:10AC0000184631F0C9FF07233593002336936BE0D4
:10AC10004B4A369B52F8233005224A49184632F0F7
:10AC200046FD0346002B3AD19DF8DF3083F0010347
:10AC3000DBB2002B33D04249369B019A41F82320E6
:10AC40003F4A369B52F8233005220199184632F0CC
:10AC50002EFD0346002B08D0394A369B52F823308C
:10AC600005220199184632F006FD354A369B52F806
:10AC7000232003AB1146184632F0F2FC03AB184612
:10AC800032F0D8FC03461A4603AB13442E4A11880F
:10AC9000927819809A7001238DF8DF3021E0284ADC
:10ACA000369B52F8233005222649184632F0FFFC25
:10ACB0000346002B15D0224A369B52F8232003ABC3
:10ACC0001146184632F0CCFC03AB184632F0B2FC09
:10ACD00003461A4603AB13441B4A11889278198025
:10ACE0009A70369B01333693369A359B9A428FDBA6
:10ACF0009DF8DF30002B1AD003AB184632F09AFCD7
:10AD00000346023BE0336B445D2203F8D42C03ABD3
:10AD1000184632F08FFC0346013BE0336B440022BF
:10AD200003F8D42C03AB1946012003F059FE00BFF1
:10AD300039B05DF804FB00BF903F0600743F060089
:10AD40004CA70020E03906003C3F060060DF70475A
:10AD500000BF184600B585B003468DF807309DF852
:10AD60000730162B0FD0162B18D80E2B02D00F2B16
:10AD70000DD013E00B4B01221A700B4B1B680133F3
:10AD8000094A13600BE0074B00221A7007E000220B
:10AD90000421064829F0B2FA039000E000BF05B094
:10ADA0005DF804FB74BB012078BB01206C630600D6
:10ADB00000B583B00D4902200AF0A0FE0190019B6E
:10ADC0000093009B002B04D0094A8421009825F0B1
:10ADD000E9FC1622002100200AF0FEFE01200AF004
:10ADE00014FB00BF03B05DF804FB00BF55AD0200CB
:10ADF000983F060000B593B04FF4804100202FF03B
:10AE00002BFD1190119B1093109B002B04D0A14A95
:10AE1000A721109825F0C6FC1EF0E0FA1190119BB6
:10AE20000F930F9B002B04D09A4AAB210F9825F06B
:10AE3000B9FC00201EF038FB00BF1EF0C5FB034626
:10AE400083F00103DBB2002BF7D1119B0E930E9B15
:10AE5000002B04D08F4AB6210E9825F0A3FCFFF7F3
:10AE6000A7FF04F047FB00238DF8373000238DF84F
:10AE700036300023069301238DF8353000238DF8FA
:10AE800034309DF83530002B1CD000F0AFFC03F0BF
:10AE900025FA00F09FFA02F06BF903F063F802F074
:10AEA0001DF803F0BBF800F02FFB01F055F903F09B
:10AEB0000BF901F079F902F00BF902F0C3F9012066
:10AEC0000AF0ACF904F0A4FB9DF83530002B07D153
:10AED0009DF83430002B05D06F4B1B680C2B01DD27
:10AEE00003F014FA6D4B1B78002B00F0FF816A4BC6
:10AEF0001B6803F00103002B03D101200AF08EF937
:10AF000002E002200AF08AF9644B00221A709DF8D0
:10AF10003530002B20D0604B1B68002B40F3E681BE
:10AF20005F4B1B78002B0AD05B4B1B681A465D49B0
:10AF3000002003F055FD5A4B00221A70D6E1564B03
:10AF40001B681A465749002003F04AFD524B1B6804
:10AF50000133514A1360C9E19DF83430002B00F0F1
:10AF600000814D4B1B68012B0BD100F03FFC4E497B
:10AF7000002003F035FD484B1B680133464A13603F
:10AF8000B4E1454B1B68022B19D103F0A7F91190CE
:10AF9000119A4649002003F023FD00F01BFA4449B2
:10AFA000002003F01DFD02F0E3F83B4B1B6801336A
:10AFB000394A13603F49002003F012FD96E1364BF9
:10AFC0001B68032B0DD101F089FF1190119A3A49AA
:10AFD000002003F005FD304B1B6801332E4A13603F
:10AFE00084E12D4B1B68042B0DD103F017F8119051
:10AFF000119A3249002003F0F3FC274B1B68013300
:10B00000254A136072E1244B1B68052B0DD100F01B
:10B010007BFA1190119A2A49002003F0E1FC1E4BA3
:10B020001B6801331C4A136060E11B4B1B68062B35
:10B030000DD101F091F81190119A2249002003F0EE
:10B04000CFFC154B1B680133134A13604EE1124BC2
:10B050001B68072B0DD103F037F81190119A1A498C
:10B06000002003F0BDFC0C4B1B6801330A4A13603F
:10B070003CE1094B1B68082B2AD100F08FF9119A8B
:10B080001249002003F0ACFC034B1B680133024A59
:10B0900013602BE1983F060074A7002074BB0120C9
:10B0A000390C0320C83F0600D43F0600E03F0600ED
:10B0B000FC3F060008400600184006002C40060031
:10B0C0003C400600504006006840060080400600F4
:10B0D000884B1B68092B0DD102F044FF1190119A87
:10B0E0008549002003F07CFC824B1B680133814AB8
:10B0F0001360FBE07F4B1B680A2B0DD101F054F865
:10B100001190119A7D49002003F06AFC794B1B686D
:10B110000133784A1360E9E0764B1B680B2B0DD1A5
:10B1200001F0D6FF1190119A7549002003F058FCE8
:10B13000704B1B6801336F4A1360D7E06D4B1B687F
:10B140000C2B40F0D38002F07DF81190119A6D49DC
:10B15000002003F045FC674B1B680133654A136010
:10B16000C4E0644B1B68012B10D103F0B7F81190B9
:10B1700030F05CFD1190119A6349002003F030FC1F
:10B180005C4B1B6801335B4A1360AFE0594B1B6893
:10B19000022B11D106AB1946012030F05DFE119053
:10B1A000069B119A5949002003F01AFC514B1B6869
:10B1B0000133504A136099E04E4B1B68032B40F05B
:10B1C000958006AB0C93069B0B9306AB1846FFF7D6
:10B1D000BDFD0A90069B0B9A9A4234BF01230023BF
:10B1E0008DF827304FF08053D3F80C319B02089331
:10B1F000069B089AD31A03F100530793069B0B9AF8
:10B200009A422ED2424B5B88012B0AD9414A424BCB
:10B21000D31ADB081B0443F00203404918462FF001
:10B2200049FE3B4B5B88012B0BD93A4A3A4BD31A68
:10B23000DB081B0443F00200069B0B9A38492FF0F1
:10B2400058FE334B5B88012B0BD9324A324BD31A51
:10B25000DB081B0443F00203079A324918462FF01B
:10B2600037FE069B0B9A9A4234BF01230023DBB2C0
:10B270001946069B0B9A9A4214BF01230023DBB2A6
:10B280001846069B0C9A04920A9A0392079A029215
:10B2900001930B9B009303460A462349002003F0C9
:10B2A0009FFB069B0B9A9A4234BF01230023DBB21B
:10B2B0001946069B0B9A9A4214BF01230023DBB266
:10B2C0001846069B0C9A04920A9A0392079A0292D5
:10B2D00001930B9B009303460A461349002003F099
:10B2E0007FFB044B1B680133024A13602FF010FFF1
:10B2F00020BFE7E574A7002098400600A84006009C
:10B30000B8400600CC400600E0400600F8400600C9
:10B31000ECA40020B0350600783506002C4106006C
:10B320005C41060090410600BC41060074DF704796
:10B3300000BF184675DF704700BF184676DF7047BC
:10B3400000BF184677DF704700BF184678DF7047A8
:10B3500000BF18467ADF704700BF18467CDF704791
:10B3600000BF18467FDF704700BF184688DF704770
:10B3700000BF184689DF704700BF18468CDF704752
:10B3800000BF18468FDF704700BF1846B1DF704717
:10B3900000BF184662DF704700BF184600B583B093
:10B3A0000DF1030319460848FFF7F4FF0190019BD4
:10B3B0001946064803F08AFF9DF80320044B9A7053
:10B3C00000BF03B05DF804FB8CD20020D04406001F
:10B3D00088D2002000B583B000238DF8073019E033
:10B3E0009DF807301846FBF7F3FF9DF80730184625
:10B3F000FCF704F99DF8073001211846FCF782F9A3
:10B400009DF807301846FCF70BFB9DF80730013319
:10B410008DF807309DF80730082BE1D9FDF786FA43
:10B4200000BF03B05DF804FB00B583B00346009194
:10B43000ADF80630BDF80630009A1946034825F0ED
:10B44000B1F900BF03B05DF804FB00BFEFBEADDE95
:10B4500000B583B00190019A0349012003F0C0FABE
:10B4600000BF03B05DF804FBDC44060000B583B008
:10B470000190019A0349012003F0B2FA00BF03B022
:10B480005DF804FBF844060000B583B00190019B11
:10B490001B78002B21D1019B5B881A4641F658137B
:10B4A00002FB03F303F5E9630E4A1A44019B5B8830
:10B4B0000D49002003F094FA019B5888019B5B889A
:10B4C0001946084A41F6581301FB03F3134403F5E8
:10B4D000EC6393E8060007F07FFF00BF03B05DF860
:10B4E00004FB00BF10D700201045060000B583B054
:10B4F0000190019A0349012003F072FA00BF03B0E2
:10B500005DF804FB3C45060000B589B06B461C2283
:10B510000021184632F072F9002300930F4B01937B
:10B520000F4B029305238DF80C300023ADF80E303D
:10B5300000238DF810300B4B05930B4B06936B4695
:10B5400018460CF0F9FD0790079B1946074803F0D1
:10B55000BDFE079B184609B05DF804FB0000D4301F
:10B560000000E45789B40200EDB402005C45060017
:10B5700000B583B00190164B1B7883F00103DBB25A
:10B58000002B17D0134B1B78002B0BD0124B1B78C2
:10B59000002B07D0114B1A68114B1B6813440F4A3C
:10B5A000136011E00D4B1A680D4B1B6813440B4AD6
:10B5B000136009E00B4B01221A70094B1B681846F7
:10B5C00017F01EFB17F0C6FB03B05DF804FB00BFCD
:10B5D000D33D0320CF3D032010D600200CD6002001
:10B5E00000D60020D63D032000B583B0019000F0C6
:10B5F00005F800BF03B05DF804FB000000B583B0A0
:10B6000000230193204B1B78002B09D01F4B1B8874
:10B610001A461F49002003F0E3F940F2E7332FE018
:10B620001C4B1B7883F00103DBB2002B27D0FFF704
:10B630003FFA0346002B22DD174811F06BFF019003
:10B64000FFF766FA1548FFF783F9019B194614487E
:10B6500003F03CFE134B00221A70019B002B09D112
:10B66000114B1B781A46114B1B781149002003F02F
:10B67000B7F904E0019A0F49002003F0B1F9019BEA
:10B68000184603B05DF804FBEDC7012084D200200A
:10B6900090450600EEC701202CBC0120C0450600E5
:10B6A000C8450600ECC7012008D7002060BB012078
:10B6B000DC4506000446060008B511F0CCFE00BFCC
:10B6C00008BD000000B583B001900449012003F0DB
:10B6D00087F900BF03B05DF804FB00BF24460600F5
:10B6E00000B585B003902D4B1B8819462C4A41F6B6
:10B6F000581301FB03F3134403F5EB631B78002B92
:10B7000048D0284B93F80C31002B1DD0254BD3F893
:10B710000821244BD3F8083120490988019100936E
:10B720001346214A2149012003F0B2FB1B4B188824
:10B730001C4BD3F808311B4A0121019100931A4B8D
:10B7400006CA07F0D7FF1EE0144B1B881A4641F6C5
:10B75000581302FB03F303F5E963114A1A44114B32
:10B7600093F80C3119460F4BD3F8083100930B4670
:10B770000F49012003F034F9084B1B88094A06CA17
:10B78000184607F029FE0DF0E1F80346062B01D814
:10B79000FFF734FF00BF05B05DF804FB4ED3002077
:10B7A00010D700207C0D0320840D032030460600B6
:10B7B0005446060000B583B001900A4B1B68012B6C
:10B7C0000BD0084B1B681BB205220749184617F01F
:10B7D0001DFF044B4FF0FF321A6000BF03B05DF84D
:10B7E00004FB00BFACD20020F0A6002000B583B05F
:10B7F00025F0ACFB0190019B19468E4803F066FDD5
:10B80000019B002B02D0032009F008FD8A4A002189
:10B810008A4825F0D9FB0190019B1946884803F01E
:10B8200055FD884A0021884825F0CEFB0190019BF8
:10B830001946834803F04AFD019B002B02D00320E8
:10B8400009F0ECFC814A0021814825F0BDFB019004
:10B85000019B19467F4803F039FD019B002B02D064
:10B86000032009F0DBFC7C4A01217C4825F0ACFB7D
:10B870000190019B19467A4803F028FD019B002B9B
:10B8800002D0032009F0CAFC764A0121764825F04F
:10B890009BFB0190019B1946744803F017FD019B27
:10B8A000002B02D0032009F0B9FC714A0021714835
:10B8B00025F08AFB0190019B19466F4803F006FDB5
:10B8C000019B002B02D0032009F0A8FC6B4A002149
:10B8D0006B4825F079FB0190019B1946694803F0FC
:10B8E000F5FC694A694BC3F8CC2A019B002B02D0B6
:10B8F000032009F093FC614A0021654825F064FBB0
:10B900000190019B19465F4803F0E0FC614B5F4AE0
:10B9100002F50052C2F82434019B002B02D0032010
:10B9200009F07CFC554A00215B4825F04DFB019055
:10B93000019B1946534803F0C9FC584B534A02F582
:10B940004052C2F87C3D019B002B02D0032009F03D
:10B9500065FC4A4A0021524825F036FB0190019BC4
:10B960001946484803F0B2FC4E4B484A02F5A04243
:10B97000C2F8D436019B002B02D0032009F04EFC04
:10B980003E4A0021484825F01FFB0190019B1946C3
:10B990003C4803F09BFC454B3C4A02F5E042D36235
:10B9A000019B002B02D0032009F038FC334A002110
:10B9B0003F4825F009FB0190019B1946314803F0EF
:10B9C00085FC3C4B314A02F50042C2F88439019BA8
:10B9D000002B02D0032009F021FC284A0021364820
:10B9E00025F0F2FA0190019B1946264803F06EFCFF
:10B9F000324B264A02F52042C2F8DC32019B002B72
:10BA000002D0032009F00AFC1C4A00212C4825F032
:10BA1000DBFA0190019B19461A4803F057FC294BA9
:10BA20001A4A02F53042C2F8343C00BF03B05DF858
:10BA300004FB00BFA4460600B5B7020090560600FE
:10BA4000B446060039BB020094560600E9B5020070
:10BA500098560600CC46060071B50200A4560600B2
:10BA6000E4460600C5B602009C56060000470600E4
:10BA7000E1B60200A05606001847060055BC0200B9
:10BA8000705606003447060078D0002010D70020FA
:10BA90007456060098D0002078560600B8D00020D2
:10BAA0007C560600D8D0002080560600F8D0002032
:10BAB0008456060018D100208856060038D1002090
:10BAC0008C56060058D10020F0B585B001900020BA
:10BAD00001F006FC164B0093019BDA171C46154635
:10BAE0004FF000024FF00003EB0343EA5443E2033C
:10BAF00012F57A7643F100074FF4FA624FF0000333
:10BB00003046394630F002FF02460B46134600220B
:10BB10001946009825F092FA0390039B002B03D15D
:10BB20000449012002F05CFF00BF05B0F0BD00BF7A
:10BB3000B8D100204447060000B585B00190184BED
:10BB400093F854301846FFF7F1FB0390039B002B4A
:10BB500019D1144B1B7883F00103DBB2002B12D0F8
:10BB6000104B1B781A461049012002F039FF482378
:10BB7000ADF808300D4B1B881BB202A902221846F3
:10BB800017F044FD07E0074B1B78039A0849012092
:10BB900002F026FF00BF00BF05B05DF804FB00BF48
:10BBA000B8C3012009D700206447060040A7002041
:10BBB000A4470600F0B585B00190019B93F8583773
:10BBC00083F00103DBB2002B04D02049012002F0F6
:10BBD00007FF38E0019BD3F8CC3A184625F086FAE7
:10BBE0000390019BD3F8CC3A0093019BD3F85037D4
:10BBF000DA171C4615464FF000024FF00003EB0326
:10BC000043EA5443E20312F57A7643F100074FF416
:10BC1000FA624FF000033046394630F077FE0246B4
:10BC20000B461346019A1946009825F007FA03902F
:10BC3000039B002B07D0019B03F5E962039B04499A
:10BC4000012002F0CDFE05B0F0BD00BFD8470600D0
:10BC500008480600F0B587B00390039B0593059B49
:10BC6000D3F8C83A062B6ADC059B93F8583783F063
:10BC70000103DBB2002B07D1464B1B78002B16D0FB
:10BC8000454B1B78002B12D0059B93F8583783F057
:10BC90000103DBB21A46414B1B7883F00103DBB290
:10BCA000009300233E49012002F09AFE6FE0059BBD
:10BCB000012283F8F026059BD3F8F436002B3EDBF7
:10BCC000059BD3F8C036002B39D1059B93F8F1368C
:10BCD000002B34D0059BD3F83837591C314B83FBEC
:10BCE00001235A10CB17D21A13469B0013445B0052
:10BCF0001344CA1A059BC3F83827059BD3F8383775
:10BD0000059A03F5E1739B00134400225A60059BDA
:10BD1000D3F8F436092B06DC059BD3F8F4365A1C0D
:10BD2000059BC3F8F426059BD3F8F436002B06DDFB
:10BD3000059BD3F8C83A9BB2184605F0D7FF059B80
:10BD4000D3F8CC3A0293059BD3F85037DA171C4648
:10BD500015464FF000024FF00003EB0343EA544353
:10BD6000E20312F57A7643F100074FF4FA624FF0DE
:10BD700000033046394630F0C9FD02460B461346F3
:10BD8000059A1946029825F059F9049000BF07B0AA
:10BD9000F0BD00BF61BB0120F13E0320DC3E03206B
:10BDA00050480600E9A28B2EF0B585B00190174BE4
:10BDB0000093019BDA171C4615464FF000024FF026
:10BDC0000003EB0343EA5443E20312F57A7643F1AE
:10BDD00000074FF4FA624FF000033046394630F066
:10BDE00095FD02460B46134600221946009825F0A1
:10BDF00025F90390064B1B881A46039B0549012031
:10BE000002F0EEFD039B184605B0F0BD40D20020C5
:10BE10004ED300202049060008B5034B184625F0F4
:10BE200065F900BF08BD00BF98D100202DE9F0439F
:10BE300087B0002305935C4B9B7A412B6FD15B4B02
:10BE400018685A4B1B68D91D584B1B6803331A4698
:10BE500004F0ACFF554B1868544B1B68D91D534B6D
:10BE60001B6803331A4604F065FF514E514B1B68A3
:10BE7000DA171C4615464FF000024FF00003EB03A3
:10BE800043EA5443E20312F57A7843F100094FF490
:10BE9000FA624FF000034046494630F037FD024653
:10BEA0000B46134600221946304625F0C7F803908A
:10BEB000414B00221A70414B03F5304303F50263F6
:10BEC000D3ED007AFDEEE77ACDED017A9DF80430EE
:10BED0005AB23A4B03F53043D3F83C385BB20721F2
:10BEE000002004F0A9FF04238DF80830344B1B68B0
:10BEF000344A52F82330DBB28DF809302B4B1B68E3
:10BF0000DBB28DF80A3002AB03221946072017F086
:10BF10007DFB039A2C49002002F062FD2AE0244CAC
:10BF2000244B1B68DA17184611464FF000024FF0F9
:10BF30000003CB0343EA5043C20312F57A7643F180
:10BF400000074FF4FA624FF000033046394630F0F4
:10BF5000DDFC02460B46134600221946204625F01A
:10BF60006DF80490144B00221A70049A17490020AF
:10BF700002F036FD1649002002F032FDFFF74CFFBB
:10BF800009F080F9134B1B7883F00103DBB2002B1F
:10BF900002D0002009F042F9032009F03FF9059B87
:10BFA000184607B0BDE8F083E83D0320E83E0320D3
:10BFB000F8D1002018D20020E43E032010D7002042
:10BFC0005CD4002064D4002078490600944906001F
:10BFD000AC490600F13E032070B582B0154E164BF9
:10BFE0001B68DA17184611464FF000024FF00003A5
:10BFF000CB0343EA5043C20312F57A7443F10005C0
:10C000004FF4FA624FF000032046294630F07EFCE0
:10C0100002460B46134600221946304625F00EF81C
:10C020000190019A0549002002F0DAFC019B1846B4
:10C0300002B070BD60D2002080D20020D44906003A
:10C0400000B583B0074B184625F050F80190019ACF
:10C050000549002002F0C4FC019B184603B05DF8BE
:10C0600004FB00BF60D20020E849060000B587B09D
:10C070000346ADF80E30BDF80E2013465B001344A6
:10C080009B00144A1344BDF80E201146184610F0C8
:10C09000ADFE0590BDF80E10BDF80E200D481346FC
:10C0A0005B0013449B00034402331B884FF6FF726E
:10C0B00093420CBF01230023DBB21A46059B009379
:10C0C00013460A460449002002F08AFC00BF07B06C
:10C0D0005DF804FB4CC30120FC49060000B587B0A5
:10C0E0000390039B5B680593039B5B881A4613468A
:10C0F0005B001344DB00154A13440399184619F0FA
:10C1000045FA039B1B78032B1CD1059B93F8C43283
:10C110001A46039B5B8800931346059A0C4900203E
:10C1200002F05EFC039B5B88002201211846FFF7AA
:10C130001DF90490039B5B881A46049B0549002067
:10C1400002F04EFC00BF07B05DF804FB84BB012089
:10C15000344A0600584A060000B585B06B460822EE
:10C160000021184631F04AFB0C4B00930C4B019315
:10C170006B4618460DF0AEFA0390039B0293029BA8
:10C18000002B05D0074A40F22241029824F00AFB16
:10C19000039B184605B05DF804FB00BFDDC002003C
:10C1A00060D00020804A060000B587B0154B009390
:10C1B000154B0193154B0293002304931AE0049A44
:10C1C00013465B001344DB00114A13446A461146D0
:10C1D000184619F073FA0590059B0393039B002BF7
:10C1E00005D00C4A40F23541039824F0DBFA049B59
:10C1F00001330493049B062BE1D9059B184607B035
:10C200005DF804FB5D5B04006DB4020060D00020AB
:10C2100084BB0120804A060000B585B00346ADF816
:10C220000630BDF80630002201211846FFF79EF8BF
:10C230000390BDF80620039B0349002002F0D0FBC9
:10C2400000BF05B05DF804FB584A0600F0B595B094
:10C250000790079B04331393139B1B88ADF84A3058
:10C26000079B1B88103B462B00F2208601A252F848
:10C2700023F000BF91C3020067C40200EDCA0200B0
:10C28000ADCE0200ADCE0200ADCE0200ADCE0200BA
:10C29000ADCE0200ADCE0200ADCE0200ADCE0200AA
:10C2A000E3C7020075C70200ADCE0200ADCE0200AA
:10C2B00017C80200ADCE0200CBCC020007CD0200B1
:10C2C000ADCE0200ADCE0200ADCE0200ADCE02007A
:10C2D000ADCE0200ADCE0200ADCE0200ADCE02006A
:10C2E000ADCE0200ADCE0200ADCE0200ADCE02005A
:10C2F000ADCE0200ADCE0200ADCE0200ADCE02004A
:10C30000ADCE0200ADCE0200ADCE0200ADCE020039
:10C31000ADCE0200ADCE0200ADCE0200ADCE020029
:10C3200089CD0200ADCE0200ADCE0200ADCE02003E
:10C33000ADCE0200ADCE0200ADCE0200ADCE020009
:10C34000ADCE0200ADCE0200ADCE0200ADCE0200F9
:10C35000ADCE0200ADCE0200ADCE0200ADCE0200E9
:10C36000ADCE0200ADCE0200ADCE0200ADCE0200D9
:10C37000ADCE0200ADCE0200ADCE0200ADCE0200C9
:10C38000ADCE0200ADCE0200ADCE020051CE020015
:10C39000139B1B88062B08D9BDF84A301A465C4906
:10C3A000012002F01DFB00F08CBD079B9B881A4604
:10C3B000139B1B885749002002F012FB139B1B881C
:10C3C0001A4613465B001344DB00534A9818079B38
:10C3D0009B880022194619F0BDFA1190119B19464D
:10C3E0004E4802F073FF139B1B881A46139B1B8851
:10C3F000184613465B001344DB00474A1A44484979
:10C4000041F6581300FB03F30B4403F23C531A604C
:10C41000139B1B881A464349002002F0E1FA139B44
:10C420001B881A464FF4BA6302FB03F33E4A1A44D0
:10C43000079B9B88194610460DF010FA1190119B2E
:10C4400019463A4802F042FF139B1B881846FFF733
:10C450000DFE0CF07BFA03461A463549002002F027
:10C46000BFFA00F02EBD139B1B88062B08D9BDF820
:10C470004A301A462F49012002F0B2FA00F021BDDD
:10C480002D4B1B7883F00103DBB2002B11D02B4B1B
:10C490001B78002B0DD02A4B1B88BDF84A209A42EE
:10C4A00007D1264B00221A70254B14221A80FFF761
:10C4B000A5F8139B1B881946194A41F6581301FB2E
:10C4C00003F3134403F24E731B78FF2B3CD0139BF2
:10C4D0001B881A4641F6581302FB03F303F5E96380
:10C4E0000F4A1A44139B1B791C46BDF84A300C496D
:10C4F00041F6581000FB03F30B4403F5EB631B7884
:10C50000009323460F49012002F06AFA3CE000BF85
:10C51000C04A0600F04A060084BB01201C4B0600FE
:10C5200010D700203C4B0600A0A70020604B06005F
:10C53000804B0600984B060008D70020EDC701206D
:10C5400084D20020C84B0600139B1B881A46139BFD
:10C550001B79B749012002F043FAB64B1B7883F0F0
:10C560000103DBB2002B0FD0B34B1B7883F0010328
:10C57000DBB2002B08D0B14B1B7883F00103DBB298
:10C58000002B01D0FFF73AF8BDF84A30AC4A41F62B
:10C59000581101FB03F3134403F5EB6300221A70F7
:10C5A000BDF84A30A64A41F6581101FB03F3134483
:10C5B0001B68002B4CDBBDF84A30A14A41F65811EC
:10C5C00001FB03F3134403F22C531B68002B3FDBE6
:10C5D0000C238DF83830BDF84A30994A41F658118D
:10C5E00001FB03F3134403F24E731B788DF83930CB
:10C5F000BDF84A30924A41F6581101FB03F3134447
:10C6000003F22C531B68DBB28DF83A30BDF84A3088
:10C610008B4A41F6581101FB03F313441B68DBB24C
:10C620008DF83B30874B1B881946854A41F65813D5
:10C6300001FB03F3134403F5EB631B78002B07D0D6
:10C64000804B1B8818460EA97F4B042219F0E8F98D
:10C65000079B9B881846FEF78DFE1190079B9B88D1
:10C660001A46119B7949002002F0BAF9079B9B8872
:10C670001846FBF7D5F9764B1B78002B00F0188491
:10C68000BDF84A306E4A41F6581101FB03F31344DA
:10C6900003F24E731B78FF2B00F00A84BDF84A307A
:10C6A000674A41F6581101FB03F3134403F2375371
:10C6B0001B78012B21D1674B1B68013B654A136036
:10C6C000654B1B690133644A1361BDF84A305C4A0B
:10C6D00041F6581101FB03F3134403F23A531B785C
:10C6E000002B39D05D4B1B68013B5C4A13605A4BF1
:10C6F0005B690133584A53612EE0BDF84A30504A15
:10C7000041F6581101FB03F3134403F237531B782E
:10C71000022B0AD1524B1B68013B514A13604E4B0E
:10C720009B6901334C4A936116E0BDF84A30444A94
:10C7300041F6581101FB03F3134403F237531B78FE
:10C74000032B09D1464B1B68013B454A1360424B02
:10C75000DB690133404AD361BDF84A3041F65812D3
:10C7600002FB03F303F5E963354A13441846FEF769
:10C7700029FA9DE3139B1B88062B07D9BDF84A3085
:10C780001A463849012002F02BF99AE3079B1B7ADD
:10C790008DF84330079B5B7A8DF84230BDF84A3004
:10C7A000274A41F6581101FB03F3134403F5DE63F6
:10C7B0001B78002B00F07E839DF94320BDF84A30A2
:10C7C0001146184605F054FFBDF84A301C4A41F6A0
:10C7D000581101FB03F3134403F5DE6300221A70C2
:10C7E00068E3139B1B88062B07D9BDF84A301A460D
:10C7F0001D49012002F0F4F863E31C49002002F017
:10C80000EFF8139B1B79022B40F056831749002049
:10C8100002F0E6F850E3139B1B88062B2AD9BDF8DB
:10C820004A301A461249012002F0DAF849E300BF03
:10C83000044C0600E33D032009D7002008D7002060
:10C8400010D7002040A70020344C0600584C0600AA
:10C8500060BB012064BB012028BB012068BB012014
:10C860006CBB0120804C0600A84C0600D44C06008E
:10C87000F44C0600944B1B78002B1BD0139B9B8819
:10C880001A4640F2E24302FB03F3904A82FB031292
:10C890009211DB17D21A8E4B5B88194640F2E243A5
:10C8A00001FB03F3894981FB03018911DB17CB1AD3
:10C8B0009A4209DC139B9B881A4640F2E24302FB32
:10C8C00003F3844A934237DDBDF84A3041F65812EB
:10C8D00002FB03F303F5E9637F4A9918139B9B88D6
:10C8E0001A4640F2E24302FB03F3784A82FB03025A
:10C8F0009211DB17D01A139BDB881A4640F2E243F1
:10C9000002FB03F3714A82FB03429211DB17D21A36
:10C91000139B1B891D46139B5B891C4623469B006A
:10C9200023445B0002930195009203460A466B493B
:10C93000012002F055F8C4E2139B1A88139B0433BC
:10C9400019461046FEF7F6FC1190119B19466448F3
:10C9500002F0BCFCBDF84A3041F6581202FB03F36A
:10C9600003F5E9635C4A9918139B9B881A4640F2C9
:10C97000E24302FB03F3554A82FB03029211DB17E9
:10C98000D01A139BDB881A4640F2E24302FB03F302
:10C990004E4A82FB03429211DB17D21A139B1B896A
:10C9A0001D46139B5B891C4623469B0023445B006A
:10C9B00002930195009203460A464A49002002F07C
:10C9C0000FF8BDF84A30444A41F6581101FB03F311
:10C9D000134403F5EB631B78002B47D0BDF84A30B6
:10C9E00041F6581202FB03F303F5E9633A4A99183A
:10C9F000139B9B881A4640F2E24302FB03F3334A3F
:10CA000082FB03029211DB17D01A139BDB881A46B4
:10CA100040F2E24302FB03F32C4A82FB03429211F1
:10CA2000DB17D21A139B1B891D46139B5B891C467F
:10CA300023469B0023445B0002930195009203462A
:10CA40000A462849002001F0CBFFBDF84A30224AAF
:10CA500041F6581101FB03F3134403F5EC62139BF9
:10CA6000043393E8030082E803002AE2139B9B88C7
:10CA70001A4640F2E24302FB03F3144A82FB03121C
:10CA80009211DB17D11A139BDB881A4640F2E2435E
:10CA900002FB03F30D4A82FB03029211DB17D21A49
:10CAA000139B1B891C46139B5B89184603469B00FE
:10CAB00003445B000193009413460A460A49002090
:10CAC00001F08EFFFDE100BF61BB0120D34D62107C
:10CAD00008D30020475F030010D70020284D060030
